:020000040800F2
:1000000000280020B90D00085D0D0008630D0008F0
:10001000690D00086F0D0008750D00080000000054
:100020000000000000000000000000007B0D000840
:10003000870D000800000000930D00089F0D0008C8
:10004000010E0008010E0008010E0008010E000854
:10005000010E0008010E0008010E0008010E000844
:10006000010E0008010E0008010E0008010E000834
:10007000010E0008010E0008010E0008010E000824
:10008000010E0008010E0008010E0008010E000814
:10009000010E0008010E0008010E0008010E000804
:1000A000010E0008010E0008010E0008010E0008F4
:1000B000010E0008010E000800000000010E0008FB
:1000C000010E00080000000000000000010E000802
:1000D00000000000010E0008010E000800000000F2
:1000E000010E0008010E0008010E000800000000CB
:1000F0000000000000000000000000000000000000
:0C01000000000000000000005FF808F1A3
:10010C0010B5054C237833B9044B13B10448AFF345
:10011C0000800123237010BD0C00002000000000A3
:10012C000C1C000808B5034B1BB103490348AFF383
:10013C00008008BD00000000100000200C1C00080E
:10014C0080B500AF00F058FE0E4B00221A600E4B2B
:10015C0000221A600D4B00221A600D4B0B221A6004
:10016C000C4B3B221A600C4B2E221A6000F016F836
:10017C0000F050F800F062FD4FF47A7000F09EFE33
:10018C00F8E700BF380000203C00002028000020C9
:10019C0034000020300000202C00002080B590B0EE
:1001AC0000AF07F1180328220021184601F020FDAA
:1001BC003B1D00221A605A609A60DA601A610223B1
:1001CC00BB610123BB621023FB6200237B6307F13D
:1001DC001803184601F00CF90346002B01D000F06F
:1001EC007FFD0F237B600023BB600023FB6000239B
:1001FC003B6100237B613B1D0021184601F078FB1D
:10020C000346002B01D000F06BFD00BF4037BD460C
:10021C0080BD000080B586B000AF07F10803002256
:10022C001A605A609A60DA60224B9B69214A43F04B
:10023C00040393611F4B9B6903F004037B607B6891
:10024C001C4B9B691B4A43F008039361194B9B6938
:10025C0003F008033B603B6800224FF6FC71164824
:10026C0001F0AEF8002247F6FF71144801F0A8F82F
:10027C004FF6FC73BB600123FB6000233B61022340
:10028C007B6107F1080319460B4800F01FFF47F686
:10029C00FF73BB600123FB6000233B6102237B6186
:1002AC0007F108031946054800F010FF00BF183786
:1002BC00BD4680BD0010024000080140000C01400A
:1002CC0080B500AF934B1B68042B00F38880914BD7
:1002DC001B68022B3FDC012201218F4801F070F8D2
:1002EC00002202218C4801F06BF8002202218A487E
:1002FC0001F066F800220821874801F061F800221D
:10030C001021854801F05CF801222021824801F07F
:10031C0057F801224021804801F052F80022802138
:10032C007D4801F04DF800224FF480717A4801F0BD
:10033C0047F800224FF40071774801F041F8002291
:10034C004FF48061744801F03BF801224FF40061D6
:10035C00714801F035F86F4B1B68022B3FDD012211
:10036C0001216D4801F02CF8002202216A4801F0AD
:10037C0027F800220221684801F022F80022082107
:10038C00654801F01DF801221021634801F018F8AE
:10039C0000222021604801F013F8012240215E4820
:1003AC0001F00EF8002280215B4801F009F80022D0
:1003BC004FF48071584801F003F800224FF400719B
:1003CC00554800F0FDFF01224FF48061524800F0C7
:1003DC00F7FF00224FF400614F4800F0F1FF4D4B46
:1003EC001B68042B40F388804A4B1B68072B3FDCAF
:1003FC0000220121484800F0E3FF00220221464878
:10040C0000F0DEFF01220421434800F0D9FF012255
:10041C000821414800F0D4FF002210213E4800F092
:10042C00CFFF002220213C4800F0CAFF00224021CF
:10043C00394800F0C5FF00228021374800F0C0FF8A
:10044C0001224FF48071344800F0BAFF01224FF4BE
:10045C000071314800F0B4FF00224FF480612E4847
:10046C0000F0AEFF00224FF400612B4800F0A8FF13
:10047C00284B1B68072B3FDD00220121264800F08A
:10048C009FFF01220221244800F09AFF0022042140
:10049C00214800F095FF012208211F4800F090FF31
:1004AC00002210211C4800F08BFF002220211A484A
:1004BC0000F086FF00224021174800F081FF012246
:1004CC008021154800F07CFF00224FF48071124807
:1004DC0000F076FF01224FF400710F4800F070FF1E
:1004EC0000224FF480610C4800F06AFF00224FF4A8
:1004FC000061094800F064FF064B1B680133054A94
:10050C001360044B1B68092B02DD024B00221A609E
:10051C0000BF80BD38000020000C014080B582B0C7
:10052C0000AF78607B68092B00F2C88101A252F8F9
:10053C0023F000BF69050008BF0500081506000878
:10054C006B060008C1060008170700086D070008B5
:10055C00C3070008190800086F08000800224FF4B0
:10056C008071D54800F02CFF00224FF40071D24866
:10057C0000F026FF00224FF48061CF4800F020FFEE
:10058C0000224FF40061CC4800F01AFF00224FF417
:10059C008051C94800F014FF00224FF40051C648A6
:1005AC0000F00EFF01224FF48041C34800F008FF19
:1005BC0085E101224FF48071BF4800F001FF002259
:1005CC004FF40071BC4800F0FBFE00224FF4806138
:1005DC00B94800F0F5FE01224FF40061B64800F076
:1005EC00EFFE01224FF48051B34800F0E9FE0122E6
:1005FC004FF40051B04800F0E3FE01224FF480416B
:10060C00AD4800F0DDFE5AE100224FF48071AA489B
:10061C0000F0D6FE00224FF40071A74800F0D0FE87
:10062C0001224FF48061A44800F0CAFE00224FF46E
:10063C000061A14800F0C4FE00224FF480519E4896
:10064C0000F0BEFE01224FF400519B4800F0B8FEB2
:10065C0000224FF48041984800F0B2FE2FE10022B6
:10066C004FF48071944800F0ABFE00224FF40071FF
:10067C00914800F0A5FE00224FF480618E4800F0F6
:10068C009FFE00224FF400618B4800F099FE01227E
:10069C004FF48051884800F093FE01224FF4005132
:1006AC00854800F08DFE00224FF48041824800F016
:1006BC0087FE04E101224FF480717F4800F080FE38
:1006CC0000224FF400717C4800F07AFE00224FF4B7
:1006DC008061794800F074FE01224FF40061764885
:1006EC0000F06EFE01224FF48051734800F068FE5A
:1006FC0000224FF40051704800F062FE00224FF4CB
:10070C0080416D4800F05CFED9E000224FF480710E
:10071C00694800F055FE01224FF40071664800F064
:10072C004FFE00224FF48061634800F049FE002226
:10073C004FF40061604800F043FE01224FF48051F9
:10074C005D4800F03DFE00224FF400515A4800F085
:10075C0037FE00224FF48041574800F031FEAEE0E6
:10076C0000224FF48071544800F02AFE01224FF40D
:10077C000071514800F024FE00224FF480614E4875
:10078C0000F01EFE00224FF400614B4800F018FEF2
:10079C0000224FF48051484800F012FE00224FF422
:1007AC000051454800F00CFE00224FF480414248B5
:1007BC0000F006FE83E000224FF480713E4800F00A
:1007CC00FFFD00224FF400713B4800F0F9FD0022C0
:1007DC004FF48061384800F0F3FD01224FF40061C2
:1007EC00354800F0EDFD01224FF48051324800F005
:1007FC00E7FD01224FF400512F4800F0E1FD0122EA
:10080C004FF480412C4800F0DBFD58E000224FF4FF
:10081C008071294800F0D4FD00224FF40071264865
:10082C0000F0CEFD00224FF48061234800F0C8FD9B
:10083C0000224FF40061204800F0C2FD00224FF46A
:10084C0080511D4800F0BCFD00224FF400511A48A5
:10085C0000F0B6FD00224FF48041174800F0B0FDC7
:10086C002DE000224FF48071134800F0A9FD002206
:10087C004FF40071104800F0A3FD00224FF480618A
:10088C000D4800F09DFD00224FF400610A4800F075
:10089C0097FD01224FF48051074800F091FD002292
:1008AC004FF40051044800F08BFD00224FF48041BE
:1008BC00014800F085FD02E00008014000BF00BFC8
:1008CC000837BD4680BD00BF80B582B000AF7860F0
:1008DC007B68092B00F2A88101A252F823F000BF1B
:1008EC001509000865090008B5090008050A000883
:1008FC00550A0008A50A0008F50A0008450B00086F
:10090C00950B0008E50B000800220421C94800F0F3
:10091C0057FD00220821C74800F052FD002210218B
:10092C00C44800F04DFD00224FF40041C14800F0D6
:10093C0047FD00224FF48051BF4800F041FD0022DA
:10094C004FF40051BC4800F03BFD01224FF48041B4
:10095C00B94800F035FD68E101220421B54800F0EA
:10096C002FFD00220821B34800F02AFD002210219F
:10097C00B04800F025FD01224FF40041AD4800F0D5
:10098C001FFD01224FF48051AB4800F019FD0122EC
:10099C004FF40051A84800F013FD01224FF48041A0
:1009AC00A54800F00DFD40E100220421A14800F013
:1009BC0007FD002208219F4800F002FD01221021B2
:1009CC009C4800F0FDFC00224FF40041994800F0D7
:1009DC00F7FC00224FF48051974800F0F1FC012203
:1009EC004FF40051944800F0EBFC00224FF480418E
:1009FC00914800F0E5FC18E1002204218D4800F03C
:100A0C00DFFC002208218B4800F0DAFC00221021C8
:100A1C00884800F0D5FC00224FF40041854800F0D6
:100A2C00CFFC01224FF48051834800F0C9FC012215
:100A3C004FF40051804800F0C3FC00224FF4804179
:100A4C007D4800F0BDFCF0E001220421794800F063
:100A5C00B7FC00220821774800F0B2FC00221021DC
:100A6C00744800F0ADFC01224FF40041714800F0D5
:100A7C00A7FC01224FF480516F4800F0A1FC00222A
:100A8C004FF400516C4800F09BFC00224FF4804165
:100A9C00694800F095FCC8E000220421654800F08C
:100AAC008FFC01220821634800F08AFC00221021EF
:100ABC00604800F085FC00224FF400415D4800F0D6
:100ACC007FFC01224FF480515B4800F079FC00223E
:100ADC004FF40051584800F073FC00224FF4804151
:100AEC00554800F06DFCA0E000220421514800F0B4
:100AFC0067FC012208214F4800F062FC0022102103
:100B0C004C4800F05DFC00224FF40041494800F0D5
:100B1C0057FC00224FF48051474800F051FC002252
:100B2C004FF40051444800F04BFC00224FF480413C
:100B3C00414800F045FC78E0002204213D4800F0DB
:100B4C003FFC002208213B4800F03AFC0022102117
:100B5C00384800F035FC01224FF40041354800F0D4
:100B6C002FFC01224FF48051334800F029FC012264
:100B7C004FF40051304800F023FC01224FF4804127
:100B8C002D4800F01DFC50E000220421294800F003
:100B9C0017FC00220821274800F012FC002210212B
:100BAC00244800F00DFC00224FF40041214800F0D5
:100BBC0007FC00224FF480511F4800F001FC00227A
:100BCC004FF400511C4800F0FBFB00224FF4804115
:100BDC00194800F0F5FB28E000220421154800F02C
:100BEC00EFFB00220821134800F0EAFB0022102141
:100BFC00104800F0E5FB00224FF400410D4800F0D6
:100C0C00DFFB01224FF480510B4800F0D9FB00228E
:100C1C004FF40051084800F0D3FB00224FF4804100
:100C2C00054800F0CDFB00E000BF00BF0837BD4613
:100C3C0080BD00BF00080140000C014080B500AF32
:100C4C00244B1B68082B2BD801A252F823F000BFB1
:100C5C00810C0008AD0C0008AD0C00088F0C0008CE
:100C6C00AD0C0008970C0008AD0C0008AD0C00088A
:100C7C00A50C0008184B05221A60184B03221A60A9
:100C8C000FE0164B02221A600BE0134B03221A6082
:100C9C00124B05221A6004E00F4B02221A6000E08E
:100CAC0000BF0D4B1B681846FFF738FC0B4B1B683D
:100CBC001846FFF709FEFFF703FB074B1B68013BC8
:100CCC00054A1360054B1B68013B044A136000BFC7
:100CDC0080BD00BF380000203C0000202800002010
:100CEC0080B400AF72B600BFFEE7000080B485B0E0
:100CFC0000AF154B9B69144A43F001039361124BEF
:100D0C009B6903F00103BB60BB680F4BDB690E4AA8
:100D1C0043F08053D3610C4BDB6903F080537B6051
:100D2C007B680A4B5B68FB60FB6823F0E063FB604D
:100D3C00FB6843F08063FB60044AFB68536000BFB0
:100D4C001437BD4680BC70470010024000000140C3
:100D5C0080B400AFFEE780B400AFFEE780B400AF14
:100D6C00FEE780B400AFFEE780B400AFFEE780B4CE
:100D7C0000AF00BFBD4680BC704780B400AF00BF61
:100D8C00BD4680BC704780B400AF00BFBD4680BC80
:100D9C00704780B500AF00F075F800BF80BD80B41F
:100DAC0000AF00BFBD4680BC70470000FFF7F7FFE7
:100DBC000B480C490C4A002302E0D458C4500433AD
:100DCC00C4188C42F9D3094A094C002301E0136082
:100DDC000432A242FBD300F0E7FEFFF7B1F97047F3
:100DEC00000000200C000020501C00080C0000200B
:100DFC0044000020FEE7000080B500AF084B1B68E4
:100E0C00074A43F010031360032000F02BF90F2066
:100E1C0000F008F8FFF76AFF0023184680BD00BFFA
:100E2C000020024080B582B000AF7860124B1A6887
:100E3C00124B1B7819464FF47A73B3FBF1F3B2FBE8
:100E4C00F3F3184600F035F90346002B01D00123CB
:100E5C000EE07B680F2B0AD8002279684FF0FF3028
:100E6C0000F00BF9064A7B681360002300E00123B5
:100E7C0018460837BD4680BD000000200800002041
:100E8C000400002080B400AF054B1B781A46054BBC
:100E9C001B681344034A136000BFBD4680BC7047F7
:100EAC00080000204000002080B400AF024B1B68FB
:100EBC001846BD4680BC70474000002080B584B009
:100ECC0000AF7860FFF7F0FFB8607B68FB60FB68F1
:100EDC00B3F1FF3F05D00A4B1B781A46FB6813444D
:100EEC00FB6000BFFFF7E0FF0246BB68D31AFA684D
:100EFC009A42F7D800BF00BF1037BD4680BD00BF77
:100F0C000800002080B485B000AF78607B6803F0E7
:100F1C000703FB600C4BDB68BB60BA684FF6FF0342
:100F2C001340BB60FB681A02BB68134343F0BF63FA
:100F3C0043F40033BB60044ABB68D36000BF143772
:100F4C00BD4680BC704700BF00ED00E080B400AF30
:100F5C00044BDB681B0A03F007031846BD4680BC34
:100F6C00704700BF00ED00E080B483B000AF0346D3
:100F7C003960FB7197F90730002B0ADB3B68DAB25A
:100F8C000C4997F907301201D2B20B4483F80023B5
:100F9C000AE03B68DAB20849FB7903F00F03043B23
:100FAC001201D2B20B441A7600BF0C37BD4680BC7E
:100FBC00704700BF00E100E000ED00E080B489B0B4
:100FCC0000AFF860B9607A60FB6803F00703FB615F
:100FDC00FB69C3F10703042B28BF0423BB61FB6926
:100FEC000433062B02D9FB69033B00E000237B6131
:100FFC004FF0FF32BB6902FA03F3DA43BB681A40C5
:10100C007B699A404FF0FF317B6901FA03F3D943B6
:10101C007B680B40134318462437BD4680BC704791
:10102C0080B582B000AF78607B68013BB3F1807F04
:10103C0001D301230FE00A4A7B68013B53600F2167
:10104C004FF0FF30FFF790FF054B00229A60044BE6
:10105C0007221A60002318460837BD4680BD00BF22
:10106C0010E000E080B582B000AF78607868FFF7E0
:10107C0049FF00BF0837BD4680BD80B586B000AFC4
:10108C000346B9607A60FB7300237B61FFF75EFF58
:10109C0078617A68B9687869FFF790FF024697F92A
:1010AC000F3011461846FFF75FFF00BF1837BD46DB
:1010BC0080BD80B582B000AF78607868FFF7B0FF74
:1010CC00034618460837BD4680BD000080B48BB07F
:1010DC0000AF7860396000237B6200233B6248E1FB
:1010EC0001227B6A02FA03F3FB613B681B68FA6915
:1010FC001340BB61BA69FB699A4240F037813B6887
:10110C005B68A34A93425ED0A14A934275D8A14A28
:10111C00934258D09F4A93426FD89F4A934252D0E1
:10112C009D4A934269D89D4A93424CD09B4A934224
:10113C0063D89B4A934246D0994A93425DD8122B6E
:10114C002AD8122B59D801A252F823F0D311000837
:10115C00AD110008BF1100080112000807120008A9
:10116C0007120008071200080712000807120008EF
:10117C0007120008071200080712000807120008DF
:10118C0007120008071200080712000807120008CF
:10119C00B5110008C9110008824A934213D02CE003
:1011AC003B68DB683B6229E03B68DB6804333B62ED
:1011BC0024E03B68DB6808333B621FE03B68DB687C
:1011CC000C333B621AE03B689B68002B02D1042372
:1011DC003B6213E03B689B68012B05D108233B6203
:1011EC007B68FA691A6109E008233B627B68FA693B
:1011FC005A6103E000233B6200E000BFBB69FF2B98
:10120C0001D87B6801E07B6804337B61BB69FF2BF1
:10121C0002D87B6A9B0002E07B6A083B9B003B6127
:10122C007B691A680F213B6901FA03F3DB431A400F
:10123C00396A3B6901FA03F31A437B691A603B680C
:10124C005B6803F08053002B00F09080564B9B6939
:10125C00554A43F001039361534B9B6903F001031F
:10126C00BB60BB68514A7B6A9B08023352F823303F
:10127C00FB607B6A03F003039B000F2202FA03F36B
:10128C00DB43FA681340FB607B68494A93420DD0FC
:10129C007B68484A934207D07B68474A934201D106
:1012AC00022304E0032302E0012300E000237A6A16
:1012BC0002F0030292009340FA681343FB603B492F
:1012CC007B6A9B080233FA6841F823203B685B6811
:1012DC0003F48013002B06D0384B9A683749BB694E
:1012EC0013438B6006E0354B9A68BB69DB4333498B
:1012FC0013408B603B685B6803F40013002B06D033
:10130C002E4BDA682D49BB691343CB6006E02B4B9F
:10131C00DA68BB69DB4329491340CB603B685B68E7
:10132C0003F40033002B06D0244B5A682349BB69C5
:10133C0013434B6006E0214B5A68BB69DB431F49E2
:10134C0013404B603B685B6803F48033002B06D082
:10135C001A4B1A681949BB6913430B6006E0174B0B
:10136C001A68BB69DB43154913400B607B6A013378
:10137C007B623B681A687B6A22FA03F3002B7FF4CA
:10138C00AFAE00BF00BF2C37BD4680BC704700BF5E
:10139C00000032100000311000002210000021105B
:1013AC00000012100000111000100240000001405B
:1013BC0000080140000C01400010014000040140F5
:1013CC0080B483B000AF78600B467B8013467B7093
:1013DC007B78002B03D07A887B681A6103E07B88CA
:1013EC001A047B681A6100BF0C37BD4680BC70477D
:1013FC0080B586B000AF78607B68002B01D10123EB
:10140C006CE27B681B6803F00103002B00F0878003
:10141C00924B5B6803F00C03042B0CD08F4B5B6876
:10142C0003F00C03082B12D18C4B5B6803F4803354
:10143C00B3F5803F0BD1894B1B6803F40033002BB1
:10144C006CD07B685B68002B68D1012346E27B681B
:10145C005B68B3F5803F06D1804B1B687F4A43F431
:10146C00803313602EE07B685B68002B0CD17B4BC8
:10147C001B687A4A23F480331360784B1B68774AD5
:10148C0023F4802313601DE07B685B68B3F5A02F09
:10149C000CD1724B1B68714A43F4802313606F4B61
:1014AC001B686E4A43F4803313600BE06B4B1B6874
:1014BC006A4A23F480331360684B1B68674A23F431
:1014CC00802313607B685B68002B13D0FFF7ECFC68
:1014DC00386108E0FFF7E8FC02463B69D31A642B3D
:1014EC0001D90323FAE15D4B1B6803F40033002B95
:1014FC00F0D014E0FFF7D8FC386108E0FFF7D4FC1B
:10150C0002463B69D31A642B01D90323E6E1534B02
:10151C001B6803F40033002BF0D100E000BF7B68A4
:10152C001B6803F00203002B63D04C4B5B6803F089
:10153C000C03002B0BD0494B5B6803F00C03082BFE
:10154C001CD1464B5B6803F48033002B16D1434B04
:10155C001B6803F00203002B05D07B681B69012B71
:10156C0001D00123BAE13D4B1B6823F0F8027B68E4
:10157C005B69DB00394913430B603AE07B681B69FC
:10158C00002B20D0364B01221A60FFF78DFC3861FE
:10159C0008E0FFF789FC02463B69D31A022B01D9FC
:1015AC0003239BE12D4B1B6803F00203002BF0D0AF
:1015BC002A4B1B6823F0F8027B685B69DB00274928
:1015CC0013430B6015E0264B00221A60FFF76CFCEE
:1015DC00386108E0FFF768FC02463B69D31A022B1E
:1015EC0001D903237AE11D4B1B6803F00203002B86
:1015FC00F0D17B681B6803F00803002B3AD07B68A2
:10160C009B69002B19D0174B01221A60FFF74CFC79
:10161C00386108E0FFF748FC02463B69D31A022BFD
:10162C0001D903235AE10D4B5B6A03F00203002B33
:10163C00F0D0012000F09AFA1CE00A4B00221A604C
:10164C00FFF732FC38610FE0FFF72EFC02463B69D6
:10165C00D31A022B08D9032340E100BF001002402B
:10166C0000004242800442429E4B5B6A03F002033C
:10167C00002BE9D17B681B6803F00403002B00F0FE
:10168C00A6800023FB75974BDB6903F08053002B7E
:10169C000DD1944BDB69934A43F08053D361914B4A
:1016AC00DB6903F08053BB60BB680123FB758E4B79
:1016BC001B6803F48073002B18D18B4B1B688A4A70
:1016CC0043F480731360FFF7EFFB386108E0FFF71A
:1016DC00EBFB02463B69D31A642B01D90323FDE0D3
:1016EC00814B1B6803F48073002BF0D07B68DB68A4
:1016FC00012B06D17B4B1B6A7A4A43F00103136220
:10170C002DE07B68DB68002B0CD1764B1B6A754A8D
:10171C0023F001031362734B1B6A724A23F0040318
:10172C0013621CE07B68DB68052B0CD16D4B1B6ACC
:10173C006C4A43F0040313626A4B1B6A694A43F018
:10174C00010313620BE0674B1B6A664A23F001032B
:10175C001362644B1B6A634A23F0040313627B68B5
:10176C00DB68002B15D0FFF79FFB38610AE0FFF711
:10177C009BFB02463B69D31A41F28832934201D952
:10178C000323ABE0574B1B6A03F00203002BEED094
:10179C0014E0FFF789FB38610AE0FFF785FB02468E
:1017AC003B69D31A41F28832934201D9032395E065
:1017BC004C4B1B6A03F00203002BEED1FB7D012B7B
:1017CC0005D1484BDB69474A23F08053D3617B68D2
:1017DC00DB69002B00F08180424B5B6803F00C034B
:1017EC00082B61D07B68DB69022B46D13F4B002272
:1017FC001A60FFF759FB386108E0FFF755FB02460A
:10180C003B69D31A022B01D9032367E0354B1B68C4
:10181C0003F00073002BF0D17B681B6AB3F5803F9B
:10182C0008D1304B5B6823F400327B689B682D49F0
:10183C0013434B602B4B5B6823F474127B68196A5F
:10184C007B685B6A0B43274913434B60274B012290
:10185C001A60FFF729FB386108E0FFF725FB024609
:10186C003B69D31A022B01D9032337E01D4B1B68AC
:10187C0003F00073002BF0D02FE01C4B00221A60F9
:10188C00FFF712FB386108E0FFF70EFB02463B69DD
:10189C00D31A022B01D9032320E0124B1B6803F04F
:1018AC000073002BF0D118E07B68DB69012B01D1B0
:1018BC00012313E00B4B5B68FB60FB6803F4803285
:1018CC007B681B6A9A4206D1FB6803F470127B6832
:1018DC005B6A9A4201D0012300E0002318461837B6
:1018EC00BD4680BD001002400070004060004242C6
:1018FC0080B584B000AF786039607B68002B01D173
:10190C000123D0E06A4B1B6803F007033A689A4244
:10191C0010D9674B1B6823F0070265493B681343DA
:10192C000B60634B1B6803F007033A689A4201D0C3
:10193C000123B8E07B681B6803F00203002B20D066
:10194C007B681B6803F00403002B05D0594B5B68C4
:10195C00584A43F4E06353607B681B6803F0080348
:10196C00002B05D0534B5B68524A43F460535360D1
:10197C00504B5B6823F0F0027B689B684D49134326
:10198C004B607B681B6803F00103002B40D07B6825
:10199C005B68012B07D1474B1B6803F40033002B0A
:1019AC0015D101237FE07B685B68022B07D1414B8B
:1019BC001B6803F00073002B09D1012373E03D4B2E
:1019CC001B6803F00203002B01D101236BE0394BA0
:1019DC005B6823F003027B685B68364913434B60FA
:1019EC00FFF762FAF8600AE0FFF75EFA0246FB685E
:1019FC00D31A41F28832934201D9032353E02D4B81
:101A0C005B6803F00C027B685B689B009A42EBD12D
:101A1C00274B1B6803F007033A689A4210D2244BF9
:101A2C001B6823F0070222493B6813430B60204BD1
:101A3C001B6803F007033A689A4201D0012332E095
:101A4C007B681B6803F00403002B08D0194B5B6800
:101A5C0023F4E0627B68DB68164913434B607B68B8
:101A6C001B6803F00803002B09D0124B5B6823F4AE
:101A7C0060527B681B69DB000E4913434B6000F01E
:101A8C0021F802460B4B5B681B0903F00F030A4954
:101A9C00CB5C22FA03F3094A1360094B1B68184606
:101AAC00FFF7C0F9002318461037BD4680BD00BFB4
:101ABC000020024000100240241C000800000020FE
:101ACC000400002080B487B000AF0023FB6000232B
:101ADC00BB6000237B6100237B6000233B611E4BBA
:101AEC005B68FB60FB6803F00C03042B02D0082B33
:101AFC0003D027E0194B3B6127E0FB689B0C03F0FC
:101B0C000F03174AD35C7B60FB6803F48033002B14
:101B1C0010D0114B5B685B0C03F00103114AD35CD2
:101B2C00BB607B680D4A02FB03F2BB68B2FBF3F3AC
:101B3C007B6104E07B680C4A02FB03F37B617B69ED
:101B4C003B6102E0054B3B6100BF3B6918461C370B
:101B5C00BD4680BC704700BF0010024000127A00E6
:101B6C00341C0008441C000800093D0080B485B0FA
:101B7C0000AF78600A4B1B680A4AA2FB03235B0A7E
:101B8C007A6802FB03F3FB6000BFFB685A1EFA6025
:101B9C00002BF9D100BF00BF1437BD4680BC704785
:101BAC0000000020D34D621070B500260C4D0D4C7A
:101BBC00641BA410A64209D100F022F800260A4D9D
:101BCC000A4C641BA410A64205D170BD55F8043B09
:101BDC0098470136EEE755F8043B98470136F2E793
:101BEC00481C0008481C0008481C00084C1C000835
:101BFC0003460244934200D1704703F8011BF9E7F6
:101C0C00F8B500BFF8BC08BC9E467047F8B500BFDD
:081C1C00F8BC08BC9E467047AD
:101C24000000000000000000010203040607080988
:101C340002030405060708090A0B0C0D0E0F101009
:041C44000102000099
:041C4800310100085E
:041C4C000D0100087E
:0C1C500000127A001000000001000000EB
:0400000508000DB929
:00000001FF
