:020000040800F2
:10000000002800200D0A0008B1090008B7090008FF
:10001000BD090008C3090008C90900080000000064
:10002000000000000000000000000000CF090008F0
:10003000DB09000800000000E7090008F3090008D8
:10004000550A0008550A0008550A0008550A000814
:10005000550A0008550A0008550A0008550A000804
:10006000550A0008550A0008550A0008550A0008F4
:10007000550A0008550A0008550A0008550A0008E4
:10008000550A0008550A0008550A0008550A0008D4
:10009000550A0008550A0008550A0008550A0008C4
:1000A000550A0008550A0008550A0008550A0008B4
:1000B000550A0008550A000800000000550A00080B
:1000C000550A00080000000000000000550A000862
:1000D00000000000550A0008550A00080000000052
:1000E000550A0008550A0008550A000800000000DB
:1000F0000000000000000000000000000000000000
:0C01000000000000000000005FF808F1A3
:10010C0010B5054C237833B9044B13B10448AFF345
:10011C0000800123237010BD0C00002000000000A3
:10012C006018000808B5034B1BB103490348AFF333
:10013C00008008BD000000001000002060180008BE
:10014C0080B500AF00F082FC094B00221A60094B0D
:10015C0000221A60084B00221A6000F00FF800F021
:10016C0049F800F09DF84FF47A7000F0D1FCF8E7F4
:10017C002C000020300000202800002080B590B01A
:10018C0000AF07F1180328220021184601F05AFB92
:10019C003B1D00221A605A609A60DA601A610223D1
:1001AC00BB610123BB621023FB6200237B6307F15D
:1001BC001803184600F046FF0346002B01D000F050
:1001CC00B9FB0F237B600023BB600023FB60002383
:1001DC003B6100237B613B1D0021184601F0B2F905
:1001EC000346002B01D000F0A5FB00BF4037BD46F5
:1001FC0080BD000080B586B000AF07F10803002277
:10020C001A605A609A60DA60224B9B69214A43F06B
:10021C00040393611F4B9B6903F004037B607B68B1
:10022C001C4B9B691B4A43F008039361194B9B6958
:10023C0003F008033B603B6800224FF6FC71164844
:10024C0000F0E8FE002247F6FF71144800F0E2FED1
:10025C004FF6FC73BB600123FB6000233B61022360
:10026C007B6107F1080319460B4800F059FD47F66E
:10027C00FF73BB600123FB6000233B6102237B61A6
:10028C0007F108031946054800F04AFD00BF18376E
:10029C00BD4680BD0010024000080140000C01402A
:1002AC0080B500AFB64B1B680B2B02DDB44B0022A4
:1002BC001A60B34B1B680B2B00F22F8301A252F870
:1002CC0023F000BF010300088303000805040008A5
:1002DC0087040008090500089505000817060008A2
:1002EC00990600081B0700089D0700081F08000856
:1002FC00A508000800220121A24800F08BFE002274
:10030C000221A04800F086FE002204219D4800F046
:10031C0081FE002208219B4800F07CFE0022102167
:10032C00984800F077FE00222021964800F072FEDB
:10033C0000224021934800F06DFE0022802191485C
:10034C0000F068FE00224FF480718E4800F062FECF
:10035C0000224FF400718B4800F05CFE01224FF438
:10036C008061884800F056FE00224FF400618548F9
:10037C0000F050FED2E200220121824800F04AFE39
:10038C00002202217F4800F045FE002204217D4816
:10039C0000F040FE002208217A4800F03BFE0022CB
:1003AC001021784800F036FE00222021754800F01C
:1003BC0031FE00224021734800F02CFE00228021E7
:1003CC00704800F027FE00224FF480716D4800F059
:1003DC0021FE00224FF400716A4800F01BFE00223F
:1003EC004FF48061674800F015FE01224FF4006164
:1003FC00644800F00FFE91E200220121614800F0F8
:10040C0009FE002202215F4800F004FE00220421B4
:10041C005C4800F0FFFD002208215A4800F0FAFD6C
:10042C0000221021574800F0F5FD002220215548EC
:10043C0000F0F0FD01224021524800F0EBFD0022BB
:10044C008021504800F0E6FD00224FF480714D48A9
:10045C0000F0E0FD00224FF400714A4800F0DAFD94
:10046C0000224FF48061474800F0D4FD00224FF485
:10047C000061444800F0CEFD50E2002201214148C9
:10048C0000F0C8FD002202213E4800F0C3FD00220E
:10049C0004213C4800F0BEFD00220821394800F040
:1004AC00B9FD00221021374800F0B4FD00222021B4
:1004BC00344800F0AFFD00224021324800F0AAFD84
:1004CC00012280212F4800F0A5FD00224FF48071FD
:1004DC002C4800F09FFD00224FF40071294800F0D9
:1004EC0099FD00224FF48061264800F093FD002214
:1004FC004FF40061234800F08DFD0FE20022012132
:10050C00204800F087FD002202211E4800F082FDE9
:10051C00002204211B4800F07DFD0022082119480F
:10052C0000F078FD00221021164800F073FD002227
:10053C002021144800F06EFD00224021114800F0EB
:10054C0069FD002280210F4800F064FD01224FF468
:10055C0080710C4800F05EFD00224FF400710948D8
:10056C0000F058FD00224FF48061064800F052FD67
:10057C0000224FF40061034800F04CFDCEE100BFB7
:10058C002C000020000C014000220121C14800F089
:10059C0041FD00220221BF4800F03CFD0022042155
:1005AC00BC4800F037FD00220821BA4800F032FDAB
:1005BC0000221021B74800F02DFD01222021B54862
:1005CC0000F028FD00224021B24800F023FD00225B
:1005DC008021B04800F01EFD00224FF48071AD4820
:1005EC0000F018FD00224FF40071AA4800F012FD33
:1005FC0000224FF48061A74800F00CFD00224FF45C
:10060C000061A44800F006FD88E100220121A14808
:10061C0000F000FD002202219E4800F0FBFC0022AD
:10062C0004219C4800F0F6FC00220821994800F0B7
:10063C00F1FC01221021974800F0ECFC0022202153
:10064C00944800F0E7FC00224021924800F0E2FCC4
:10065C00002280218F4800F0DDFC00224FF48071D5
:10066C008C4800F0D7FC00224FF40071894800F050
:10067C00D1FC00224FF48061864800F0CBFC0022B4
:10068C004FF40061834800F0C5FC47E100220121D2
:10069C00804800F0BFFC002202217E4800F0BAFC2A
:1006AC00002204217B4800F0B5FC01220821794886
:1006BC0000F0B0FC00221021764800F0ABFC0022C8
:1006CC002021744800F0A6FC00224021714800F063
:1006DC00A1FC002280216F4800F09CFC00224FF40A
:1006EC0080716C4800F096FC00224FF40071694850
:1006FC0000F090FC00224FF48061664800F08AFC08
:10070C0000224FF40061634800F084FC06E10022F3
:10071C000121604800F07EFC002202215D4800F0BF
:10072C0079FC012204215B4800F074FC00220821B2
:10073C00584800F06FFC00221021564800F06AFC6B
:10074C0000222021534800F065FC00224021514832
:10075C0000F060FC002280214E4800F05BFC00227F
:10076C004FF480714B4800F055FC00224FF400719F
:10077C00484800F04FFC00224FF48061454800F0DF
:10078C0049FC00224FF40061424800F043FCC5E0F4
:10079C00002201213F4800F03DFC012202213D488E
:1007AC0000F038FC002204213A4800F033FC00220F
:1007BC000821384800F02EFC00221021354800F0AA
:1007CC0029FC00222021334800F024FC0022402187
:1007DC00304800F01FFC002280212E4800F01AFC4B
:1007EC0000224FF480712B4800F014FC00224FF4CF
:1007FC000071284800F00EFC00224FF4806125485F
:10080C0000F008FC00224FF40061224800F002FCCA
:10081C0084E0012201211F4800F0FCFB0022022190
:10082C001C4800F0F7FB002204211A4800F0F2FBF0
:10083C0000220821174800F0EDFB0022102115487A
:10084C0000F0E8FB00222021124800F0E3FB00221C
:10085C004021104800F0DEFB002280210D4800F002
:10086C00D9FB00224FF480710A4800F0D3FB002220
:10087C004FF40071074800F0CDFB00224FF480616B
:10088C00044800F0C7FB00224FF40061014800F05F
:10089C00C1FB43E0000C014000220121234800F081
:1008AC00B9FB00220221214800F0B4FB00220421F4
:1008BC001E4800F0AFFB002208211C4800F0AAFBE8
:1008CC0000221021194800F0A5FB00222021174816
:1008DC0000F0A0FB00224021144800F09BFB0022FA
:1008EC008021124800F096FB00224FF480710F48D3
:1008FC0000F090FB01224FF400710C4800F08AFBD1
:10090C0000224FF48061094800F084FB00224FF470
:10091C000061064800F07EFB00E000BF044B1B6842
:10092C000133034A136000BF80BD00BF000C0140BF
:10093C002C00002080B400AF72B600BFFEE70000B0
:10094C0080B485B000AF154B9B69144A43F001038A
:10095C009361124B9B6903F00103BB60BB680F4BA7
:10096C00DB690E4A43F08053D3610C4BDB6903F017
:10097C0080537B607B680A4B5B68FB60FB6823F0F1
:10098C00E063FB60FB6843F08063FB60044AFB6838
:10099C00536000BF1437BD4680BC70470010024046
:1009AC000000014080B400AFFEE780B400AFFEE76A
:1009BC0080B400AFFEE780B400AFFEE780B400AFB8
:1009CC00FEE780B400AF00BFBD4680BC704780B46A
:1009DC0000AF00BFBD4680BC704780B400AF00BF05
:1009EC00BD4680BC704780B500AF00F075F800BF05
:1009FC0080BD80B400AF00BFBD4680BC7047000016
:100A0C00FFF7F7FF0B480C490C4A002302E0D458BF
:100A1C00C4500433C4188C42F9D3094A094C00233E
:100A2C0001E013600432A242FBD300F0E7FEFFF7B3
:100A3C0087FB7047000000200C000020A418000861
:100A4C000C00002038000020FEE7000080B500AF4D
:100A5C00084B1B68074A43F010031360032000F097
:100A6C002BF90F2000F008F8FFF76AFF0023184657
:100A7C0080BD00BF0020024080B582B000AF78601E
:100A8C00124B1A68124B1B7819464FF47A73B3FB4E
:100A9C00F1F3B2FBF3F3184600F035F90346002BE3
:100AAC0001D001230EE07B680F2B0AD80022796855
:100ABC004FF0FF3000F00BF9064A7B6813600023FF
:100ACC0000E0012318460837BD4680BD0000002019
:100ADC00080000200400002080B400AF054B1B78F8
:100AEC001A46054B1B681344034A136000BFBD46EE
:100AFC0080BC7047080000203400002080B400AF98
:100B0C00024B1B681846BD4680BC70473400002061
:100B1C0080B584B000AF7860FFF7F0FFB8607B68F9
:100B2C00FB60FB68B3F1FF3F05D00A4B1B781A46FC
:100B3C00FB681344FB6000BFFFF7E0FF0246BB6895
:100B4C00D31AFA689A42F7D800BF00BF1037BD46D7
:100B5C0080BD00BF0800002080B485B000AF786075
:100B6C007B6803F00703FB600C4BDB68BB60BA6867
:100B7C004FF6FF031340BB60FB681A02BB681343BC
:100B8C0043F0BF6343F40033BB60044ABB68D360DB
:100B9C0000BF1437BD4680BC704700BF00ED00E0BD
:100BAC0080B400AF044BDB681B0A03F00703184644
:100BBC00BD4680BC704700BF00ED00E080B483B040
:100BCC0000AF03463960FB7197F90730002B0ADB45
:100BDC003B68DAB20C4997F907301201D2B20B44D8
:100BEC0083F800230AE03B68DAB20849FB7903F08A
:100BFC000F03043B1201D2B20B441A7600BF0C3720
:100C0C00BD4680BC704700BF00E100E000ED00E095
:100C1C0080B489B000AFF860B9607A60FB6803F00B
:100C2C000703FB61FB69C3F10703042B28BF0423F3
:100C3C00BB61FB690433062B02D9FB69033B00E063
:100C4C0000237B614FF0FF32BB6902FA03F3DA43F6
:100C5C00BB681A407B699A404FF0FF317B6901FAFF
:100C6C0003F3D9437B680B40134318462437BD4626
:100C7C0080BC704780B582B000AF78607B68013B68
:100C8C00B3F1807F01D301230FE00A4A7B68013B5B
:100C9C0053600F214FF0FF30FFF790FF054B002200
:100CAC009A60044B07221A60002318460837BD4689
:100CBC0080BD00BF10E000E080B582B000AF78606E
:100CCC007868FFF749FF00BF0837BD4680BD80B587
:100CDC0086B000AF0346B9607A60FB7300237B617A
:100CEC00FFF75EFF78617A68B9687869FFF790FF63
:100CFC00024697F90F3011461846FFF75FFF00BF09
:100D0C001837BD4680BD80B582B000AF786078687A
:100D1C00FFF7B0FF034618460837BD4680BD0000FC
:100D2C0080B48BB000AF7860396000237B62002305
:100D3C003B6248E101227B6A02FA03F3FB613B68E8
:100D4C001B68FA691340BB61BA69FB699A4240F0AF
:100D5C0037813B685B68A34A93425ED0A14A9342B9
:100D6C0075D8A14A934258D09F4A93426FD89F4A54
:100D7C00934252D09D4A934269D89D4A93424CD09B
:100D8C009B4A934263D89B4A934246D0994A9342DA
:100D9C005DD8122B2AD8122B59D801A252F823F065
:100DAC00270E0008010E0008130E0008550E00084F
:100DBC005B0E00085B0E00085B0E00085B0E000863
:100DCC005B0E00085B0E00085B0E00085B0E000853
:100DDC005B0E00085B0E00085B0E00085B0E000843
:100DEC005B0E0008090E00081D0E0008824A934293
:100DFC0013D02CE03B68DB683B6229E03B68DB6886
:100E0C0004333B6224E03B68DB6808333B621FE041
:100E1C003B68DB680C333B621AE03B689B68002B39
:100E2C0002D104233B6213E03B689B68012B05D184
:100E3C0008233B627B68FA691A6109E008233B626C
:100E4C007B68FA695A6103E000233B6200E000BF53
:100E5C00BB69FF2B01D87B6801E07B6804337B61A5
:100E6C00BB69FF2B02D87B6A9B0002E07B6A083BC4
:100E7C009B003B617B691A680F213B6901FA03F304
:100E8C00DB431A40396A3B6901FA03F31A437B6965
:100E9C001A603B685B6803F08053002B00F0908075
:100EAC00564B9B69554A43F001039361534B9B6925
:100EBC0003F00103BB60BB68514A7B6A9B08023399
:100ECC0052F82330FB607B6A03F003039B000F2274
:100EDC0002FA03F3DB43FA681340FB607B68494A70
:100EEC0093420DD07B68484A934207D07B68474AAF
:100EFC00934201D1022304E0032302E0012300E02A
:100F0C0000237A6A02F0030292009340FA681343BA
:100F1C00FB603B497B6A9B080233FA6841F823204B
:100F2C003B685B6803F48013002B06D0384B9A683F
:100F3C003749BB6913438B6006E0354B9A68BB6934
:100F4C00DB43334913408B603B685B6803F400134D
:100F5C00002B06D02E4BDA682D49BB691343CB60AE
:100F6C0006E02B4BDA68BB69DB4329491340CB60A5
:100F7C003B685B6803F40033002B06D0244B5A68A3
:100F8C002349BB6913434B6006E0214B5A68BB698C
:100F9C00DB431F4913404B603B685B6803F48033B1
:100FAC00002B06D01A4B1A681949BB6913430B6006
:100FBC0006E0174B1A68BB69DB43154913400B60FD
:100FCC007B6A01337B623B681A687B6A22FA03F303
:100FDC00002B7FF4AFAE00BF00BF2C37BD4680BCEA
:100FEC00704700BF000032100000311000002210CA
:100FFC00000021100000121000001110001002401F
:10100C000000014000080140000C014000100140AC
:10101C000004014080B483B000AF78600B467B8045
:10102C0013467B707B78002B03D07A887B681A611F
:10103C0003E07B881A047B681A6100BF0C37BD463D
:10104C0080BC704780B586B000AF78607B68002BA1
:10105C0001D101236CE27B681B6803F00103002BB8
:10106C0000F08780924B5B6803F00C03042B0CD0D0
:10107C008F4B5B6803F00C03082B12D18C4B5B6815
:10108C0003F48033B3F5803F0BD1894B1B6803F419
:10109C000033002B6CD07B685B68002B68D101237C
:1010AC0046E27B685B68B3F5803F06D1804B1B68DA
:1010BC007F4A43F4803313602EE07B685B68002B1F
:1010CC000CD17B4B1B687A4A23F480331360784B2A
:1010DC001B68774A23F4802313601DE07B685B68F0
:1010EC00B3F5A02F0CD1724B1B68714A43F48023CB
:1010FC0013606F4B1B686E4A43F4803313600BE034
:10110C006B4B1B686A4A23F480331360684B1B6873
:10111C00674A23F4802313607B685B68002B13D031
:10112C00FFF7ECFC386108E0FFF7E8FC02463B698E
:10113C00D31A642B01D90323FAE15D4B1B6803F42A
:10114C000033002BF0D014E0FFF7D8FC386108E036
:10115C00FFF7D4FC02463B69D31A642B01D9032355
:10116C00E6E1534B1B6803F40033002BF0D100E095
:10117C0000BF7B681B6803F00203002B63D04C4B51
:10118C005B6803F00C03002B0BD0494B5B6803F03E
:10119C000C03082B1CD1464B5B6803F48033002BEB
:1011AC0016D1434B1B6803F00203002B05D07B6860
:1011BC001B69012B01D00123BAE13D4B1B6823F0C5
:1011CC00F8027B685B69DB00394913430B603AE03A
:1011DC007B681B69002B20D0364B01221A60FFF76D
:1011EC008DFC386108E0FFF789FC02463B69D31A95
:1011FC00022B01D903239BE12D4B1B6803F0020347
:10120C00002BF0D02A4B1B6823F0F8027B685B693B
:10121C00DB00274913430B6015E0264B00221A60B4
:10122C00FFF76CFC386108E0FFF768FC02463B698D
:10123C00D31A022B01D903237AE11D4B1B6803F04F
:10124C000203002BF0D17B681B6803F00803002B12
:10125C003AD07B689B69002B19D0174B01221A607E
:10126C00FFF74CFC386108E0FFF748FC02463B698D
:10127C00D31A022B01D903235AE10D4B5B6A03F0FD
:10128C000203002BF0D0012000F09AFA1CE00A4B6C
:10129C0000221A60FFF732FC38610FE0FFF72EFCDA
:1012AC0002463B69D31A022B08D9032340E100BF45
:1012BC000010024000004242800442429E4B5B6A96
:1012CC0003F00203002BE9D17B681B6803F00403D5
:1012DC00002B00F0A6800023FB75974BDB6903F015
:1012EC008053002B0DD1944BDB69934A43F0805310
:1012FC00D361914BDB6903F08053BB60BB68012366
:10130C00FB758E4B1B6803F48073002B18D18B4B31
:10131C001B688A4A43F480731360FFF7EFFB386154
:10132C0008E0FFF7EBFB02463B69D31A642B01D9AB
:10133C000323FDE0814B1B6803F48073002BF0D07A
:10134C007B68DB68012B06D17B4B1B6A7A4A43F026
:10135C00010313622DE07B68DB68002B0CD1764B0C
:10136C001B6A754A23F001031362734B1B6A724AA2
:10137C0023F0040313621CE07B68DB68052B0CD1A3
:10138C006D4B1B6A6C4A43F0040313626A4B1B6A75
:10139C00694A43F0010313620BE0674B1B6A664A10
:1013AC0023F001031362644B1B6A634A23F00403AA
:1013BC0013627B68DB68002B15D0FFF79FFB38614D
:1013CC000AE0FFF79BFB02463B69D31A41F28832D5
:1013DC00934201D90323ABE0574B1B6A03F0020382
:1013EC00002BEED014E0FFF789FB38610AE0FFF721
:1013FC0085FB02463B69D31A41F28832934201D9EC
:10140C00032395E04C4B1B6A03F00203002BEED137
:10141C00FB7D012B05D1484BDB69474A23F08053F8
:10142C00D3617B68DB69002B00F08180424B5B68E9
:10143C0003F00C03082B61D07B68DB69022B46D1CF
:10144C003F4B00221A60FFF759FB386108E0FFF7A9
:10145C0055FB02463B69D31A022B01D9032367E0E3
:10146C00354B1B6803F00073002BF0D17B681B6AB3
:10147C00B3F5803F08D1304B5B6823F400327B68B6
:10148C009B682D4913434B602B4B5B6823F4741200
:10149C007B68196A7B685B6A0B43274913434B6073
:1014AC00274B01221A60FFF729FB386108E0FFF790
:1014BC0025FB02463B69D31A022B01D9032337E0E3
:1014CC001D4B1B6803F00073002BF0D02FE01C4B5E
:1014DC0000221A60FFF712FB386108E0FFF70EFBE1
:1014EC0002463B69D31A022B01D9032320E0124B8D
:1014FC001B6803F00073002BF0D118E07B68DB69EC
:10150C00012B01D1012313E00B4B5B68FB60FB68E3
:10151C0003F480327B681B6A9A4206D1FB6803F4A1
:10152C0070127B685B6A9A4201D0012300E00023B1
:10153C0018461837BD4680BD0010024000700040B0
:10154C006000424280B584B000AF786039607B683F
:10155C00002B01D10123D0E06A4B1B6803F0070379
:10156C003A689A4210D9674B1B6823F00702654909
:10157C003B6813430B60634B1B6803F007033A682B
:10158C009A4201D00123B8E07B681B6803F0020388
:10159C00002B20D07B681B6803F00403002B05D0C4
:1015AC00594B5B68584A43F4E06353607B681B6893
:1015BC0003F00803002B05D0534B5B68524A43F4ED
:1015CC0060535360504B5B6823F0F0027B689B6860
:1015DC004D4913434B607B681B6803F00103002BE0
:1015EC0040D07B685B68012B07D1474B1B6803F429
:1015FC000033002B15D101237FE07B685B68022B45
:10160C0007D1414B1B6803F00073002B09D1012358
:10161C0073E03D4B1B6803F00203002B01D1012347
:10162C006BE0394B5B6823F003027B685B683649DF
:10163C0013434B60FFF762FAF8600AE0FFF75EFABB
:10164C000246FB68D31A41F28832934201D9032334
:10165C0053E02D4B5B6803F00C027B685B689B00CE
:10166C009A42EBD1274B1B6803F007033A689A4266
:10167C0010D2244B1B6823F0070222493B6813430A
:10168C000B60204B1B6803F007033A689A4201D0A9
:10169C00012332E07B681B6803F00403002B08D0A5
:1016AC00194B5B6823F4E0627B68DB6816491343D3
:1016BC004B607B681B6803F00803002B09D0124BAE
:1016CC005B6823F460527B681B69DB000E49134393
:1016DC004B6000F021F802460B4B5B681B0903F0D2
:1016EC000F030A49CB5C22FA03F3094A1360094B36
:1016FC001B681846FFF7C0F9002318461037BD4683
:10170C0080BD00BF00200240001002407818000885
:10171C00000000200400002080B487B000AF00233C
:10172C00FB600023BB6000237B6100237B600023F4
:10173C003B611E4B5B68FB60FB6803F00C03042BE6
:10174C0002D0082B03D027E0194B3B6127E0FB6844
:10175C009B0C03F00F03174AD35C7B60FB6803F40C
:10176C008033002B10D0114B5B685B0C03F0010332
:10177C00114AD35CBB607B680D4A02FB03F2BB6869
:10178C00B2FBF3F37B6104E07B680C4A02FB03F3CE
:10179C007B617B693B6102E0054B3B6100BF3B69B0
:1017AC0018461C37BD4680BC704700BF0010024075
:1017BC0000127A00881800089818000800093D00EB
:1017CC0080B485B000AF78600A4B1B680A4AA2FB54
:1017DC0003235B0A7A6802FB03F3FB6000BFFB6820
:1017EC005A1EFA60002BF9D100BF00BF1437BD465A
:1017FC0080BC704700000020D34D621070B50026ED
:10180C000C4D0D4C641BA410A64209D100F022F81B
:10181C0000260A4D0A4C641BA410A64205D170BDCB
:10182C0055F8043B98470136EEE755F8043B9847CA
:10183C000136F2E79C1800089C1800089C18000858
:10184C00A018000803460244934200D1704703F8E5
:10185C00011BF9E7F8B500BFF8BC08BC9E46704701
:0C186C00F8B500BFF8BC08BC9E467047F1
:101878000000000000000000010203040607080938
:1018880002030405060708090A0B0C0D0E0F1010B9
:041898000102000049
:04189C00310100080E
:0418A0000D0100082E
:0C18A40000127A0010000000010000009B
:0400000508000A0DD8
:00000001FF
