:020000040800F2
:1000000000280020D5130008B9100008BF10000810
:10001000C5100008CB100008D11000080000000037
:10002000000000000000000000000000D7100008E1
:10003000E310000800000000EF100008FB100008AB
:100040001D1400081D1400081D1400081D140008CC
:100050001D1400081D1400081D1400081D140008BC
:100060001D1400081D1400081D1400081D140008AC
:100070001D1400081D1400081D1400081D1400089C
:100080001D1400081D1400081D1400081D1400088C
:100090001D1400081D1400081D1400081D1400087C
:1000A0001D1400081D1400081D1400081D1400086C
:1000B000091100081D140008000000001D140008AC
:1000C0001D14000800000000000000001D140008BE
:1000D000000000001D1400081D14000800000000AE
:1000E0001D1400081D1400081D1400080000000065
:1000F0000000000000000000000000000000000000
:0C01000000000000000000005FF808F1A3
:10010C0010B5054C237833B9044B13B10448AFF345
:10011C0000800123237010BD60000020000000004F
:10012C004C2A000808B5034B1BB103490348AFF335
:10013C00008008BD00000000640000204C2A00086C
:10014C0080B483B000AF786039607B685A003B683C
:10015C000F4981FB03018910DB17CB1A0D4941F8BC
:10016C0022307B685B00581C3968094B83FB0123E8
:10017C009A10CB17D21A13469B0013445B00CA1A71
:10018C00044B43F8202000BF0C37BD4680BC7047A1
:10019C00676666667C00002080B582B000AF786030
:1001AC007B68032B6AD801A252F823F0C90100081E
:1001BC00F9010008290200085902000800228021D8
:1001CC00344801F028FC01224FF48071314801F0D1
:1001DC0022FC01224FF400712E4801F01CFC01227C
:1001EC004FF480612B4801F016FC48E0012280217D
:1001FC00284801F010FC00224FF48071254801F0D2
:10020C000AFC01224FF40071224801F004FC012287
:10021C004FF480611F4801F0FEFB30E00122802189
:10022C001C4801F0F8FB01224FF48071194801F0D1
:10023C00F2FB00224FF40071164801F0ECFB012296
:10024C004FF48061134801F0E6FB18E00122802195
:10025C00104801F0E0FB01224FF480710D4801F0D1
:10026C00DAFB01224FF400710A4801F0D4FB0022A2
:10027C004FF48061074801F0CEFB00E000BF064A56
:10028C007B6852F82330184600F008F800BF083796
:10029C00BD4680BD000C01407C00002080B582B0C2
:1002AC0000AF78607B68092B00F2808101A252F8C4
:1002BC0023F000BFE90200083103000879030008AD
:1002CC00C10300080904000851040008990400083F
:1002DC00E10400082905000871050008002201212D
:1002EC00B54801F098FB00220221B34801F093FBC2
:1002FC0000220421B04801F08EFB00220821AE48F8
:10030C0001F089FB00221021AB4801F084FB002294
:10031C002021A94801F07FFB01224021A64801F0D1
:10032C007AFB44E101220121A34801F074FB002275
:10033C000221A14801F06FFB002204219E4801F02C
:10034C006AFB012208219C4801F065FB0122102167
:10035C00994801F060FB01222021974801F05BFBDA
:10036C0001224021944801F056FB20E1002201219A
:10037C00914801F050FB002202218F4801F04BFB09
:10038C00012204218C4801F046FB002208218A48F6
:10039C0001F041FB00221021874801F03CFB0122B7
:1003AC002021854801F037FB00224021824801F0D2
:1003BC0032FBFCE0002201217F4801F02CFB0022E3
:1003CC0002217D4801F027FB002204217A4801F02C
:1003DC0022FB00220821784801F01DFB012210218C
:1003EC00754801F018FB01222021734801F013FB22
:1003FC0000224021704801F00EFBD8E001220121BF
:10040C006D4801F008FB002202216B4801F003FB50
:10041C0000220421684801F0FEFA012208216648F6
:10042C0001F0F9FA01221021634801F0F4FA0022DC
:10043C002021614801F0EFFA002240215E4801F0D2
:10044C00EAFAB4E0002201215B4801F0E4FA01224F
:10045C000221594801F0DFFA00220421564801F02C
:10046C00DAFA00220821544801F0D5FA01221021B1
:10047C00514801F0D0FA002220214F4801F0CBFA6C
:10048C00002240214C4801F0C6FA90E000220121E4
:10049C00494801F0C0FA01220221474801F0BBFA99
:1004AC0000220421444801F0B6FA002208214248F7
:1004BC0001F0B1FA002210213F4801F0ACFA002201
:1004CC0020213D4801F0A7FA002240213A4801F0D2
:1004DC00A2FA6CE000220121374801F09CFA0022BC
:1004EC000221354801F097FA00220421324801F02C
:1004FC0092FA01220821304801F08DFA01221021D4
:10050C002D4801F088FA012220212B4801F083FAB2
:10051C0001224021284801F07EFA48E00022012106
:10052C00254801F078FA00220221234801F073FAE1
:10053C0000220421204801F06EFA002208211E48F6
:10054C0001F069FA002210211B4801F064FA002224
:10055C002021194801F05FFA00224021164801F0D1
:10056C005AFA24E000220121134801F054FA002227
:10057C000221114801F04FFA002204210E4801F02B
:10058C004AFA002208210C4801F045FA01221021F8
:10059C00094801F040FA00222021074801F03BFAFB
:1005AC0000224021044801F036FA00E000BF00BFF1
:1005BC000837BD4680BD00BF000C014080B400AFC1
:1005CC00064B1B68012B04D1044B00221A6001233B
:1005DC0000E000231846BD4680BC70478C0000200C
:1005EC0080B400AF064B1B68012B04D1044B0022D6
:1005FC001A60012300E000231846BD4680BC7047FA
:10060C009000002080B400AF064B1B68012B04D176
:10061C00044B00221A60012300E000231846BD465B
:10062C0080BC70479400002080B500AF5D4B5B68C8
:10063C005C4A13605B4B9B685A4A53604FF4807161
:10064C00594801F0D1F903461A46564B9A60554B5E
:10065C001A68544B5B689A4226D1524B5A68514BDC
:10066C009B689A4220D14F4BDA684E4B9B689A425A
:10067C000ED04C4B9B684B4AD3604A4B9B68002B6B
:10068C0012D14A4B01221A60494BC8221A600BE066
:10069C00474B1B68013B464A1360454B1B68002BBC
:1006AC0002DC404B0122DA60424B5B68414A13602A
:1006BC00404B9B683F4A53604FF400713A4801F03D
:1006CC0093F903461A463B4B9A603A4B1A68394BDE
:1006DC005B689A4226D1374B5A68364B9B689A42D4
:1006EC0020D1344BDA68334B9B689A420ED0314B95
:1006FC009B68304AD3602F4B9B68002B12D12E4B3A
:10070C0001221A602D4BC8221A600BE02B4B1B6880
:10071C00013B2A4A1360294B1B68002B02DC254B3A
:10072C000122DA60264B5B68254A1360244B9B68D8
:10073C00234A53604FF480611B4801F055F903467E
:10074C001A461F4B9A601E4B1A681D4B5B689A42E7
:10075C0026D11B4B5A681A4B9B689A4220D1184BD6
:10076C00DA68174B9B689A420ED0154B9B68144A5B
:10077C00D360134B9B68002B12D1124B01221A60D1
:10078C00114BC8221A600BE00F4B1B68013B0E4A41
:10079C0013600D4B1B68002B02DC094B0122DA6045
:1007AC0000BF80BD00000020000801408C0000202C
:1007BC0010000020140000209000002024000020D5
:1007CC0028000020940000203800002080B582B062
:1007DC0000AF00237B60ADE05B4A7B6852F82330AE
:1007EC00032B00F29D8001A252F823F009080008A7
:1007FC0067080008A9080008EB0800087B68002BB4
:10080C0004D1514A7B68012142F823107B68012BEB
:10081C0004D14D4A7B68022142F823104A4A7B6876
:10082C0052F82330013B494A52F823301946786874
:10083C0000F09EFB444A7B6852F82330013B434A4C
:10084C0052F82330424A82FB03125211DB17D31A9F
:10085C0019467868FFF774FC69E0786800F082FC50
:10086C003C4A7B6852F82330012B5BD1364A7B68BB
:10087C00022142F82310354B5B681946786800F06A
:10088C0077FB324B5B68324A82FB03125211DB1747
:10089C00D31A19467868FFF753FC43E0786800F0E8
:1008AC0095FC2C4A7B6852F82330012B3CD1264A0C
:1008BC007B68032142F82310244B9B681946786807
:1008CC0000F056FB214B9B68214A82FB031252110C
:1008DC00DB17D31A19467868FFF732FC24E07868E6
:1008EC0000F0A8FC1B4A7B6852F82330012B1DD169
:1008FC00154A7B68012142F82310144B1B681946DA
:10090C00786800F035FB114B1B68114A82FB03120F
:10091C005211DB17D31A19467868FFF711FC05E062
:10092C0000BF04E000BF02E000BF00E000BF7B6836
:10093C0001337B607B68012B7FF74EAF00BF00BF9C
:10094C000837BD4680BD00BF9C0000204800002039
:10095C001F85EB51A400002080B582B000AF0023AE
:10096C007B6040E0244A7B6852F823300D2B22D068
:10097C000D2B2EDC0B2B02D00C2B0ED029E01F4A9A
:10098C007B6852F82330012B25D1786800F086FC67
:10099C001921786800F0ECFA1DE0184A7B6852F8CF
:1009AC002330012B19D1786800F0AAFC1921786842
:1009BC0000F0DEFA11E0114A7B6852F82330012B6B
:1009CC000DD1786800F0CEFC1921786800F0D0FACF
:1009DC0005E000BF04E000BF02E000BF00E000BF84
:1009EC007B6801337B607B68012BBBDD00BF00BFE4
:1009FC000837BD4680BD00BF9C000020A40000202D
:100A0C0080B584B000AFA84B9B68012B12D1A74BCB
:100A1C001B685A1CA5490A601846FFF7BDFBA34B7F
:100A2C001B68032B02DDA14B00221A601921022046
:100A3C0000F09EFA9E4B1B68092B26DC9A4BDB6858
:100A4C00012B22D10023FB6018E0FB685B00994A64
:100A5C0052F8232013469B0013445B001946FB6895
:100A6C005B000133934A52F823300B44013B194687
:100A7C00F868FFF765FBFB680133FB60FB68012B33
:100A8C00E3DD6421032000F073FA894B1B680A2B09
:100A9C0070DDFFF7A5FD0346002B52D0844B1B687D
:100AAC000D2B36D00D2B4EDC0B2B02D00C2B18D073
:100ABC0049E0814B1B6842F2AB62934204DC7E4BF3
:100ACC001B6864337C4A13607B4B1B687B4A82FB3C
:100ADC0003125211DB17D31A19460020FFF730FB13
:100AEC0032E0754B5B6842F2AB62934204DC724BB2
:100AFC005B686433704A53606F4B5B686F4A82FB70
:100B0C0003125211DB17D31A19460020FFF718FBFA
:100B1C001AE0694B9B6842F2AB62934204DC664B71
:100B2C009B686433644A9360634B9B68634A82FBA3
:100B3C0003125211DB17D31A19460020FFF700FBE2
:100B4C0002E000BF00E000BFFFF75CFD0346002B96
:100B5C0010D00023BB600AE0574ABB6852F8232030
:100B6C005749BB6841F82320BB680133BB60BB68A5
:100B7C00022BF1DDFFF722FD0346002B00F0D180A4
:100B8C004B4B1B680D2B00F2CE8001A252F823F0C8
:100B9C00D50B0008D50B0008D50B0008D50B0008A9
:100BAC00330D0008330D0008330D0008330D000819
:100BBC00330D0008330D0008330D0008390C000804
:100BCC00770C0008D10C000800237B600AE03C4A3B
:100BDC007B6852F8232038497B6841F823207B68D6
:100BEC0001337B607B68022BF1DD314B0B221A60E9
:100BFC002F4B0B225A6000F091FA2F4B1B682F4A97
:100C0C0082FB03125211DB17D31A19460020FFF78F
:100C1C0097FA02210120FFF793FA1921002000F026
:100C2C00A7F91921012000F0A3F97DE0204B0C223B
:100C3C001A601F4B0C225A601F4B5B681F4A82FBC9
:100C4C0003125211DB17D31A19460020FFF778FA5A
:100C5C0003210120FFF774FA1921002000F088F914
:100C6C001921012000F084F95EE0114B0D221A606D
:100C7C000F4B0D225A60104B9B68104A82FB0312DB
:100C8C005211DB17D31A19460020FFF759FA042129
:100C9C000120FFF755FA1921002000F069F91921FC
:100CAC00012000F065F93FE0A4000020980000202E
:100CBC009C0000207C0000203C0000201F85EB5194
:100CCC00480000201A4B01221A60194B02225A606C
:100CDC00184B1B68184A82FB03125211DB17D31AEC
:100CEC0019460020FFF72CFA124B5B68124A82FB64
:100CFC0003125211DB17D31A19460120FFF720FA01
:100D0C000C4B1B681946002000F032F9094B5B684C
:100D1C001946012000F02CF96421032000F028F979
:100D2C0002E000BF00E000BF00BF1037BD4680BD31
:100D3C009C000020480000201F85EB5180B500AFBF
:100D4C0000F068FB00F018F800F09EF800F050F886
:100D5C00084801F0BDFA1921022000F009F96421BC
:100D6C00032000F005F9FFF731FDFFF7F5FDFFF764
:100D7C0047FEF8E7C400002080B590B000AF07F143
:100D8C00180328220021184601F052FE3B1D0022B8
:100D9C001A605A609A60DA601A610223BB610123FF
:100DAC00BB621023FB6200237B6307F11803184618
:100DBC0000F062FE0346002B01D000F0D3F80F23A5
:100DCC007B600023BB600023FB6000233B6100239E
:100DDC007B613B1D0021184601F0CEF80346002B29
:100DEC0001D000F0BFF800BF4037BD4680BD000009
:100DFC0080B586B000AF07F1080300221A605A6074
:100E0C009A60DA603B4600221A605A601D4B4FF024
:100E1C0080421A601B4B41F63F725A60194B0022FC
:100E2C009A60184B0922DA60164B00221A61154B96
:100E3C0000229A61134801F0FBF90346002B01D004
:100E4C0000F090F84FF48053BB6007F1080319468B
:100E5C000C4801F079FB0346002B01D000F082F81E
:100E6C0000233B6000237B603B461946054801F09C
:100E7C0051FD0346002B01D000F074F800BF183769
:100E8C00BD4680BDC400002080B586B000AF07F120
:100E9C00080300221A605A609A60DA60284B9B693A
:100EAC00274A43F004039361254B9B6903F0040329
:100EBC007B607B68224B9B69214A43F0080393615A
:100ECC001F4B9B6903F008033B603B680022FC212D
:100EDC001C4800F0A0FD002240F2FF711A4800F0FF
:100EEC009AFDFC23BB600123FB6000233B610223C2
:100EFC007B6107F108031946124800F0FBFB40F236
:100F0C00FF73BB600123FB6000233B6102237B6109
:100F1C0007F1080319460C4800F0ECFB4FF4E063B2
:100F2C00BB600023FB6001233B6107F108031946FA
:100F3C00044800F0DFFB00BF1837BD4680BD00BF82
:100F4C000010024000080140000C014080B582B046
:100F5C0000AF786000F024F8FFF766FB00BF08379D
:100F6C00BD4680BD80B400AF72B600BFFEE7000086
:100F7C0080B483B000AF78603960074A7B68002189
:100F8C0042F8231005497B683A6841F8232000BFDA
:100F9C000C37BD4680BC7047A4000020B400002074
:100FAC0080B483B000AF00237B601CE0124A7B68E6
:100FBC0052F82330002B13DD0F4A7B6852F8233094
:100FCC005A1E0D497B6841F823200B4A7B6852F866
:100FDC002330002B04DC094A7B68012142F82310E2
:100FEC007B6801337B607B68032BDFDD00BF00BFB8
:100FFC000C37BD4680BC7047B4000020A400002014
:10100C0080B485B000AF154B9B69144A43F00103C3
:10101C009361124B9B6903F00103BB60BB680F4BE0
:10102C00DB690E4A43F08053D3610C4BDB6903F050
:10103C0080537B607B680A4B5B68FB60FB6823F02A
:10104C00E063FB60FB6843F08063FB60044AFB6871
:10105C00536000BF1437BD4680BC7047001002407F
:10106C000000014080B584B000AF78607B681B68DD
:10107C00B3F1804F13D10C4BDB690B4A43F00103E6
:10108C00D361094BDB6903F00103FB60FB680022B1
:10109C0000211C2000F0F7FA1C2000F010FB00BF10
:1010AC001037BD4680BD00BF0010024080B400AFB9
:1010BC00FEE780B400AFFEE780B400AFFEE780B47B
:1010CC0000AFFEE780B400AFFEE780B400AF00BF16
:1010DC00BD4680BC704780B400AF00BFBD4680BC2D
:1010EC00704780B400AF00BFBD4680BC704780B570
:1010FC0000AF00F0D5F900BF80BD000080B500AF97
:10110C00024801F031F900BF80BD00BFC4000020CF
:10111C0080B400AF00BFBD4680BC704780B500AF47
:10112C00002204210E4800F076FC002208210C4815
:10113C0000F071FC00221021094800F06CFC002228
:10114C002021074800F067FC00224021044800F0F1
:10115C0062FC00228021024800F05DFC00BF80BDD3
:10116C000008014080B582B000AF78607A68134601
:10117C005B001344042202FA03F39BB201221946CA
:10118C00114800F048FC7A6813465B0013440133A5
:10119C00042202FA03F39BB2002219460A4800F01B
:1011AC003AFC7A6813465B0013440233042202FAB9
:1011BC0003F39BB200221946034800F02CFC00BF3D
:1011CC000837BD4680BD00BF0008014080B582B025
:1011DC0000AF78607A6813465B001344042202FA6D
:1011EC0003F39BB200221946114800F014FC7A68F4
:1011FC0013465B0013440133042202FA03F39BB23F
:10120C00002219460A4800F006FC7A6813465B0077
:10121C0013440233042202FA03F39BB2012219464F
:10122C00034800F0F8FB00BF0837BD4680BD00BF87
:10123C000008014080B582B000AF78607A68134630
:10124C005B001344042202FA03F39BB200221946FA
:10125C00114800F0E0FB7A6813465B00134401333D
:10126C00042202FA03F39BB2012219460A4800F049
:10127C00D2FB7A6813465B0013440233042202FA51
:10128C0003F39BB200221946034800F0C4FB00BFD5
:10129C000837BD4680BD00BF0008014080B582B054
:1012AC0000AF78607A6813465B001344042202FA9C
:1012BC0003F39BB21946114800F0C5FB7A6813463C
:1012CC005B0013440133042202FA03F39BB20022A5
:1012DC0019460A4800F09FFB7A6813465B001344DA
:1012EC000233042202FA03F39BB20022194603488C
:1012FC0000F091FB00BF0837BD4680BD00080140DF
:10130C0080B582B000AF78607A6813465B001344F6
:10131C00042202FA03F39BB200221946104800F093
:10132C007AFB7A6813465B0013440133042202FAF9
:10133C0003F39BB200221946094800F06CFB7A6853
:10134C0013465B0013440233042202FA03F39BB2EC
:10135C001946034800F077FB00BF0837BD4680BD37
:10136C000008014080B582B000AF78607A681346FF
:10137C005B001344042202FA03F39BB200221946C9
:10138C00104800F048FB7A6813465B0013440133A5
:10139C00042202FA03F39BB219460A4800F053FBED
:1013AC007A6813465B0013440233042202FA03F3F7
:1013BC009BB200221946034800F02DFB00BF0837F2
:1013CC00BD4680BD00080140FFF7A2FE0B480C494A
:1013DC000C4A002302E0D458C4500433C4188C4285
:1013EC00F9D3094A094C002301E013600432A242EC
:1013FC00FBD301F0F9FAFFF7A1FC704700000020C5
:10140C0060000020902A00086000002010010020DD
:10141C00FEE7000080B500AF084B1B68074A43F09D
:10142C0010031360032000F023F90F2000F008F8DC
:10143C00FFF7E6FD0023184680BD00BF00200240E8
:10144C0080B582B000AF7860124B1A68124B1B78D3
:10145C0019464FF47A73B3FBF1F3B2FBF3F318466E
:10146C0000F03BF90346002B01D001230EE07B6812
:10147C000F2B0AD8002279684FF0FF3000F003F9E7
:10148C00064A7B681360002300E0012318460837E6
:10149C00BD4680BD540000205C0000205800002098
:1014AC0080B400AF054B1B781A46054B1B681344E0
:1014BC00034A136000BFBD4680BC70475C0000202F
:1014CC000C01002080B400AF024B1B681846BD46CF
:1014DC0080BC70470C01002080B485B000AF7860F0
:1014EC007B6803F00703FB600C4BDB68BB60BA68DE
:1014FC004FF6FF031340BB60FB681A02BB68134333
:10150C0043F0BF6343F40033BB60044ABB68D36051
:10151C0000BF1437BD4680BC704700BF00ED00E033
:10152C0080B400AF044BDB681B0A03F007031846BA
:10153C00BD4680BC704700BF00ED00E080B483B0B6
:10154C0000AF0346FB7197F90730002B0BDBFB79DF
:10155C0003F01F02064997F907305B09012000FAD6
:10156C0002F241F8232000BF0C37BD4680BC704707
:10157C0000E100E080B483B000AF03463960FB713A
:10158C0097F90730002B0ADB3B68DAB20C4997F964
:10159C0007301201D2B20B4483F800230AE03B68F7
:1015AC00DAB20849FB7903F00F03043B1201D2B203
:1015BC000B441A7600BF0C37BD4680BC704700BF89
:1015CC0000E100E000ED00E080B489B000AFF8600D
:1015DC00B9607A60FB6803F00703FB61FB69C3F138
:1015EC000703042B28BF0423BB61FB690433062BC0
:1015FC0002D9FB69033B00E000237B614FF0FF3213
:10160C00BB6902FA03F3DA43BB681A407B699A4060
:10161C004FF0FF317B6901FA03F3D9437B680B4030
:10162C00134318462437BD4680BC704780B582B042
:10163C0000AF78607B68013BB3F1807F01D301235D
:10164C000FE00A4A7B68013B53600F214FF0FF30DB
:10165C00FFF790FF054B00229A60044B07221A609B
:10166C00002318460837BD4680BD00BF10E000E0DF
:10167C0080B582B000AF78607868FFF72DFF00BFAF
:10168C000837BD4680BD80B586B000AF0346B96053
:10169C007A60FB7300237B61FFF742FF78617A6805
:1016AC00B9687869FFF790FF024697F90F30114639
:1016BC001846FFF75FFF00BF1837BD4680BD80B5E9
:1016CC0082B000AF0346FB7197F907301846FFF75D
:1016DC0035FF00BF0837BD4680BD80B582B000AF76
:1016EC0078607868FFF7A2FF034618460837BD46B6
:1016FC0080BD000080B48BB000AF786039600023EF
:10170C007B6200233B6248E101227B6A02FA03F30D
:10171C00FB613B681B68FA691340BB61BA69FB69E2
:10172C009A4240F037813B685B68A34A93425ED093
:10173C00A14A934275D8A14A934258D09F4A9342EA
:10174C006FD89F4A934252D09D4A934269D89D4A82
:10175C0093424CD09B4A934263D89B4A934246D0C7
:10176C00994A93425DD8122B2AD8122B59D801A230
:10177C0052F823F0FB170008D5170008E7170008EC
:10178C00291800082F1800082F1800082F18000817
:10179C002F1800082F1800082F1800082F18000801
:1017AC002F1800082F1800082F1800082F180008F1
:1017BC002F1800082F180008DD170008F117000873
:1017CC00824A934213D02CE03B68DB683B6229E0F1
:1017DC003B68DB6804333B6224E03B68DB6808331E
:1017EC003B621FE03B68DB680C333B621AE03B68F2
:1017FC009B68002B02D104233B6213E03B689B687F
:10180C00012B05D108233B627B68FA691A6109E058
:10181C0008233B627B68FA695A6103E000233B6250
:10182C0000E000BFBB69FF2B01D87B6801E07B683F
:10183C0004337B61BB69FF2B02D87B6A9B0002E0FF
:10184C007B6A083B9B003B617B691A680F213B69F3
:10185C0001FA03F3DB431A40396A3B6901FA03F3DB
:10186C001A437B691A603B685B6803F08053002B5A
:10187C0000F09080564B9B69554A43F001039361ED
:10188C00534B9B6903F00103BB60BB68514A7B6AF5
:10189C009B08023352F82330FB607B6A03F003038E
:1018AC009B000F2202FA03F3DB43FA681340FB6040
:1018BC007B68494A93420DD07B68484A934207D0D3
:1018CC007B68474A934201D1022304E0032302E0E0
:1018DC00012300E000237A6A02F003029200934095
:1018EC00FA681343FB603B497B6A9B080233FA6836
:1018FC0041F823203B685B6803F48013002B06D06F
:10190C00384B9A683749BB6913438B6006E0354BFB
:10191C009A68BB69DB43334913408B603B685B6857
:10192C0003F40013002B06D02E4BDA682D49BB694B
:10193C001343CB6006E02B4BDA68BB69DB432949C8
:10194C001340CB603B685B6803F40033002B06D07C
:10195C00244B5A682349BB6913434B6006E0214B67
:10196C005A68BB69DB431F4913404B603B685B689B
:10197C0003F48033002B06D01A4B1A681949BB6943
:10198C0013430B6006E0174B1A68BB69DB43154920
:10199C0013400B607B6A01337B623B681A687B6A7D
:1019AC0022FA03F3002B7FF4AFAE00BF00BF2C373D
:1019BC00BD4680BC704700BF0000321000003110E3
:1019CC000000221000002110000012100000111065
:1019DC00001002400000014000080140000C0140D2
:1019EC00001001400004014080B485B000AF786065
:1019FC000B467B807B689A687B881340002B02D057
:101A0C000123FB7301E00023FB73FB7B18461437A7
:101A1C00BD4680BC704780B483B000AF78600B4685
:101A2C007B8013467B707B78002B03D07A887B6895
:101A3C001A6103E07B881A047B681A6100BF0C37BB
:101A4C00BD4680BC704780B485B000AF78600B4653
:101A5C007B807B68DB68FB607A88FB6813401A0428
:101A6C00FB68D9437B880B401A437B681A6100BF23
:101A7C001437BD4680BC704780B586B000AF786027
:101A8C007B68002B01D101236CE27B681B6803F09F
:101A9C000103002B00F08780924B5B6803F00C0372
:101AAC00042B0CD08F4B5B6803F00C03082B12D16A
:101ABC008C4B5B6803F48033B3F5803F0BD1894BBF
:101ACC001B6803F40033002B6CD07B685B68002B25
:101ADC0068D1012346E27B685B68B3F5803F06D191
:101AEC00804B1B687F4A43F4803313602EE07B6885
:101AFC005B68002B0CD17B4B1B687A4A23F4803338
:101B0C001360784B1B68774A23F4802313601DE025
:101B1C007B685B68B3F5A02F0CD1724B1B68714AC4
:101B2C0043F4802313606F4B1B686E4A43F480337D
:101B3C0013600BE06B4B1B686A4A23F48033136011
:101B4C00684B1B68674A23F4802313607B685B68CF
:101B5C00002B13D0FFF7B6FC386108E0FFF7B2FC9E
:101B6C0002463B69D31A642B01D90323FAE15D4B7E
:101B7C001B6803F40033002BF0D014E0FFF7A2FC39
:101B8C00386108E0FFF79EFC02463B69D31A642BD0
:101B9C0001D90323E6E1534B1B6803F40033002BFC
:101BAC00F0D100E000BF7B681B6803F00203002B40
:101BBC0063D04C4B5B6803F00C03002B0BD0494BF0
:101BCC005B6803F00C03082B1CD1464B5B6803F4D9
:101BDC008033002B16D1434B1B6803F00203002B00
:101BEC0005D07B681B69012B01D00123BAE13D4B69
:101BFC001B6823F0F8027B685B69DB0039491343EF
:101C0C000B603AE07B681B69002B20D0364B01221D
:101C1C001A60FFF757FC386108E0FFF753FC0246E7
:101C2C003B69D31A022B01D903239BE12D4B1B6873
:101C3C0003F00203002BF0D02A4B1B6823F0F802B0
:101C4C007B685B69DB00274913430B6015E0264B6F
:101C5C0000221A60FFF736FC386108E0FFF732FC0F
:101C6C0002463B69D31A022B01D903237AE11D4B9F
:101C7C001B6803F00203002BF0D17B681B6803F098
:101C8C000803002B3AD07B689B69002B19D0174BAB
:101C9C0001221A60FFF716FC386108E0FFF712FC0E
:101CAC0002463B69D31A022B01D903235AE10D4B8F
:101CBC005B6A03F00203002BF0D0012000F09AFACB
:101CCC001CE00A4B00221A60FFF7FCFB38610FE0A6
:101CDC00FFF7F8FB02463B69D31A022B08D9032302
:101CEC0040E100BF0010024000004242800442422A
:101CFC009E4B5B6A03F00203002BE9D17B681B68E7
:101D0C0003F00403002B00F0A6800023FB75974B17
:101D1C00DB6903F08053002B0DD1944BDB69934AA4
:101D2C0043F08053D361914BDB6903F08053BB606C
:101D3C00BB680123FB758E4B1B6803F48073002B6F
:101D4C0018D18B4B1B688A4A43F480731360FFF7DE
:101D5C00B9FB386108E0FFF7B5FB02463B69D31AC3
:101D6C00642B01D90323FDE0814B1B6803F48073C2
:101D7C00002BF0D07B68DB68012B06D17B4B1B6AF8
:101D8C007A4A43F0010313622DE07B68DB68002B79
:101D9C000CD1764B1B6A754A23F001031362734B0B
:101DAC001B6A724A23F0040313621CE07B68DB6835
:101DBC00052B0CD16D4B1B6A6C4A43F00403136268
:101DCC006A4B1B6A694A43F0010313620BE0674BD1
:101DDC001B6A664A23F001031362644B1B6A634A55
:101DEC0023F0040313627B68DB68002B15D0FFF72C
:101DFC0069FB38610AE0FFF765FB02463B69D31AC1
:101E0C0041F28832934201D90323ABE0574B1B6A52
:101E1C0003F00203002BEED014E0FFF753FB386104
:101E2C000AE0FFF74FFB02463B69D31A41F28832B6
:101E3C00934201D9032395E04C4B1B6A03F0020338
:101E4C00002BEED1FB7D012B05D1484BDB69474ABA
:101E5C0023F08053D3617B68DB69002B00F0818019
:101E6C00424B5B6803F00C03082B61D07B68DB6989
:101E7C00022B46D13F4B00221A60FFF723FB38613F
:101E8C0008E0FFF71FFB02463B69D31A022B01D96E
:101E9C00032367E0354B1B6803F00073002BF0D174
:101EAC007B681B6AB3F5803F08D1304B5B6823F429
:101EBC0000327B689B682D4913434B602B4B5B684E
:101ECC0023F474127B68196A7B685B6A0B4327499D
:101EDC0013434B60274B01221A60FFF7F3FA38616A
:101EEC0008E0FFF7EFFA02463B69D31A022B01D93F
:101EFC00032337E01D4B1B6803F00073002BF0D05D
:101F0C002FE01C4B00221A60FFF7DCFA386108E066
:101F1C00FFF7D8FA02463B69D31A022B01D90323E7
:101F2C0020E0124B1B6803F00073002BF0D118E07B
:101F3C007B68DB69012B01D1012313E00B4B5B6840
:101F4C00FB60FB6803F480327B681B6A9A4206D103
:101F5C00FB6803F470127B685B6A9A4201D0012320
:101F6C0000E0002318461837BD4680BD0010024023
:101F7C00007000406000424280B584B000AF7860D1
:101F8C0039607B68002B01D10123D0E06A4B1B68C0
:101F9C0003F007033A689A4210D9674B1B6823F089
:101FAC00070265493B6813430B60634B1B6803F0E6
:101FBC0007033A689A4201D00123B8E07B681B689A
:101FCC0003F00203002B20D07B681B6803F0040392
:101FDC00002B05D0594B5B68584A43F4E0635360BF
:101FEC007B681B6803F00803002B05D0534B5B6820
:101FFC00524A43F460535360504B5B6823F0F00239
:10200C007B689B684D4913434B607B681B6803F0EE
:10201C000103002B40D07B685B68012B07D1474B39
:10202C001B6803F40033002B15D101237FE07B6880
:10203C005B68022B07D1414B1B6803F00073002B2C
:10204C0009D1012373E03D4B1B6803F00203002B05
:10205C0001D101236BE0394B5B6823F003027B68F1
:10206C005B68364913434B60FFF72CFAF8600AE0C3
:10207C00FFF728FA0246FB68D31A41F288329342E2
:10208C0001D9032353E02D4B5B6803F00C027B68F2
:10209C005B689B009A42EBD1274B1B6803F007034C
:1020AC003A689A4210D2244B1B6823F0070222494B
:1020BC003B6813430B60204B1B6803F007033A6823
:1020CC009A4201D0012332E07B681B6803F00403C1
:1020DC00002B08D0194B5B6823F4E0627B68DB684B
:1020EC00164913434B607B681B6803F00803002BF5
:1020FC0009D0124B5B6823F460527B681B69DB00D0
:10210C000E4913434B6000F021F802460B4B5B6801
:10211C001B0903F00F030A49CB5C22FA03F3094AAB
:10212C001360094B1B681846FFF78AF90023184601
:10213C001037BD4680BD00BF002002400010024099
:10214C00642A0008540000205800002080B487B096
:10215C0000AF0023FB600023BB6000237B610023E6
:10216C007B6000233B611E4B5B68FB60FB6803F0EC
:10217C000C03042B02D0082B03D027E0194B3B6136
:10218C0027E0FB689B0C03F00F03174AD35C7B60C2
:10219C00FB6803F48033002B10D0114B5B685B0C95
:1021AC0003F00103114AD35CBB607B680D4A02FB50
:1021BC0003F2BB68B2FBF3F37B6104E07B680C4A6F
:1021CC0002FB03F37B617B693B6102E0054B3B61E6
:1021DC0000BF3B6918461C37BD4680BC704700BF2A
:1021EC000010024000127A00742A0008842A0008A9
:1021FC0000093D0080B485B000AF78600A4B1B68C5
:10220C000A4AA2FB03235B0A7A6802FB03F3FB6016
:10221C0000BFFB685A1EFA60002BF9D100BF00BF4B
:10222C001437BD4680BC704754000020D34D62105B
:10223C0080B582B000AF78607B68002B01D10123A0
:10224C0041E07B6893F83D30DBB2002B06D17B6814
:10225C00002283F83C207868FEF704FF7B6802229A
:10226C0083F83D207B681A687B6804331946104656
:10227C0000F056FA7B68012283F846207B68012225
:10228C0083F83E207B68012283F83F207B68012283
:10229C0083F840207B68012283F841207B6801226F
:1022AC0083F842207B68012283F843207B6801225B
:1022BC0083F844207B68012283F845207B68012247
:1022CC0083F83D20002318460837BD4680BD00002A
:1022DC0080B485B000AF78607B6893F83D30DBB29A
:1022EC00012B01D0012335E07B68022283F83D20CD
:1022FC007B681B68DA687B681B6842F00102DA6055
:10230C007B681B68164A934209D07B681B68B3F143
:10231C00804F04D07B681B68124A934211D17B68B2
:10232C001B689B6803F00703FB60FB68062B10D04F
:10233C007B681B681A687B681B6842F001021A6094
:10234C0007E07B681B681A687B681B6842F0010217
:10235C001A60002318461437BD4680BC704700BF76
:10236C00002C01400004004080B584B000AF7860C0
:10237C007B681B68DB68FB607B681B681B69BB6048
:10238C00BB6803F00203002B20D0FB6803F00203B0
:10239C00002B1BD07B681B686FF002021A617B68F4
:1023AC0001221A777B681B689B6903F00303002BDF
:1023BC0003D0786800F098F905E0786800F08BF9A4
:1023CC00786800F09AF97B6800221A77BB6803F0F2
:1023DC000403002B20D0FB6803F00403002B1BD05C
:1023EC007B681B686FF004021A617B6802221A7703
:1023FC007B681B689B6903F44073002B03D07868DF
:10240C0000F072F905E0786800F065F9786800F082
:10241C0074F97B6800221A77BB6803F00803002B61
:10242C0020D0FB6803F00803002B1BD07B681B68D3
:10243C006FF008021A617B6804221A777B681B68AC
:10244C00DB6903F00303002B03D0786800F04CF930
:10245C0005E0786800F03FF9786800F04EF97B6889
:10246C0000221A77BB6803F01003002B20D0FB6806
:10247C0003F01003002B1BD07B681B686FF010025D
:10248C001A617B6808221A777B681B68DB6903F486
:10249C004073002B03D0786800F026F905E07868CB
:1024AC0000F019F9786800F028F97B6800221A7797
:1024BC00BB6803F00103002B0CD0FB6803F0010395
:1024CC00002B07D07B681B686FF001021A617868DB
:1024DC00FEF73CFDBB6803F08003002B0CD0FB68BF
:1024EC0003F08003002B07D07B681B686FF0800221
:1024FC001A61786800F06FFABB6803F04003002B98
:10250C000CD0FB6803F04003002B07D07B681B68E2
:10251C006FF040021A61786800F0F8F8BB6803F0BD
:10252C002003002B0CD0FB6803F02003002B07D0FA
:10253C007B681B686FF020021A61786800F042FA21
:10254C0000BF1037BD4680BD80B584B000AF786049
:10255C0039600023FB737B6893F83C30012B01D16D
:10256C000223B4E07B68012283F83C207B680222C2
:10257C0083F83D207B681B689B68BB60BB6823F0BD
:10258C007703BB60BB6823F47F43BB607B681B682D
:10259C00BA689A603B681B68B3F5005F3ED0B3F530
:1025AC00005F00F28780B3F5805F00F08680B3F5A2
:1025BC00805F7FD8702B1AD0702B7BD8602B50D0BB
:1025CC00602B77D8502B3CD0502B73D8402B58D045
:1025DC00402B6FD8302B64D0302B6BD8202B60D095
:1025EC00202B67D8002B5CD0102B5AD062E07B6874
:1025FC0018683B6899683B685A683B68DB6800F070
:10260C006AF97B681B689B68BB60BB6843F0770307
:10261C00BB607B681B68BA689A604FE07B6818687F
:10262C003B6899683B685A683B68DB6800F053F973
:10263C007B681B689A687B681B6842F480429A60CE
:10264C003CE07B6818683B6859683B68DB681A4655
:10265C0000F0CAF87B681B685021184600F021F97D
:10266C002CE07B6818683B6859683B68DB681A4645
:10267C0000F0E8F87B681B686021184600F011F93F
:10268C001CE07B6818683B6859683B68DB681A4635
:10269C0000F0AAF87B681B684021184600F001F98D
:1026AC000CE07B681A683B681B681946104600F002
:1026BC00F8F803E00123FB7300E000BF7B68012204
:1026CC0083F83D207B68002283F83C20FB7B184676
:1026DC001037BD4680BD80B483B000AF786000BFBA
:1026EC000C37BD4680BC704780B483B000AF7860B7
:1026FC0000BF0C37BD4680BC704780B483B000AFC0
:10270C00786000BF0C37BD4680BC704780B483B086
:10271C0000AF786000BF0C37BD4680BC704700002E
:10272C0080B485B000AF786039607B681B68FB6053
:10273C007B682B4A934207D07B68B3F1804F03D060
:10274C007B68284A934208D1FB6823F07003FB6036
:10275C003B685B68FA681343FB607B68204A9342D2
:10276C0007D07B68B3F1804F03D07B681D4A93423E
:10277C0008D1FB6823F44073FB603B68DB68FA68A4
:10278C001343FB60FB6823F080023B685B691343D7
:10279C00FB607B68FA681A603B689A687B68DA624F
:1027AC003B681A687B689A627B680D4A934203D136
:1027BC003B681A697B681A637B6801225A617B68E3
:1027CC001B6903F00103002B05D07B681B6923F008
:1027DC0001027B681A6100BF1437BD4680BC70478C
:1027EC00002C01400004004080B487B000AFF860BA
:1027FC00B9607A60FB681B6A7B61FB681B6A23F01B
:10280C000102FB681A62FB689B693B613B6923F020
:10281C00F0033B617B681B013A6913433B617B69A5
:10282C0023F00A037B617A69BB6813437B61FB6805
:10283C003A699A61FB687A691A6200BF1C37BD4617
:10284C0080BC704780B487B000AFF860B9607A6024
:10285C00FB681B6A7B61FB681B6A23F01002FB6838
:10286C001A62FB689B693B613B6923F470433B61D3
:10287C007B681B033A6913433B617B6923F0A0031C
:10288C007B61BB681B017A6913437B61FB683A6906
:10289C009A61FB687A691A6200BF1C37BD4680BC1E
:1028AC00704780B485B000AF786039607B689B68F6
:1028BC00FB60FB6823F07003FB603A68FB68134312
:1028CC0043F00703FB607B68FA689A6000BF14371B
:1028DC00BD4680BC704780B487B000AFF860B9606B
:1028EC007A603B60FB689B687B617B6923F47F4368
:1028FC007B613B681A027B681A43BB6813437A6995
:10290C0013437B61FB687A699A6000BF1C37BD4634
:10291C0080BC704780B485B000AF786039607B684C
:10292C0093F83C30012B01D1022341E07B6801225A
:10293C0083F83C207B68022283F83D207B681B686F
:10294C005B68FB607B681B689B68BB60FB6823F063
:10295C007003FB603B681B68FA681343FB607B6881
:10296C001B68FA685A607B681B68144A934209D04A
:10297C007B681B68B3F1804F04D07B681B68104ADE
:10298C0093420CD1BB6823F08003BB603B685B684F
:10299C00BA681343BB607B681B68BA689A607B6833
:1029AC00012283F83D207B68002283F83C20002321
:1029BC0018461437BD4680BC704700BF002C014040
:1029CC000004004080B483B000AF786000BF0C37C7
:1029DC00BD4680BC704780B483B000AF786000BF48
:1029EC000C37BD4680BC704770B500260C4D0D4CA5
:1029FC00641BA410A64209D100F022F800260A4D4F
:102A0C000A4C641BA410A64205D170BD55F8043BBA
:102A1C0098470136EEE755F8043B98470136F2E744
:102A2C00882A0008882A0008882A00088C2A0008AE
:102A3C0003460244934200D1704703F8011BF9E7A7
:102A4C00F8B500BFF8BC08BC9E467047F8B500BF8F
:082A5C00F8BC08BC9E4670475F
:102A6400000000000000000001020304060708093A
:102A740002030405060708090A0B0C0D0E0F1010BB
:042A8400010200004B
:042A88003101000810
:042A8C000D01000830
:102A90000100000001000000010000000100000032
:102AA000C80000000100000001000000010000005B
:102AB00001000000C800000001000000010000004B
:102AC0000100000001000000C8000000F401000047
:102AD0002C010000C8000000F40100002C010000DF
:102AE000C800000000127A00100000000100000081
:04000005080013D507
:00000001FF
