:020000040800F2
:10000000002800207D1600084D1300085313000837
:10001000591300085F130008651300080000000072
:100020000000000000000000000000006B1300084A
:100030007713000800000000831300088F130008E6
:10004000C5160008C5160008C5160008C516000824
:10005000C5160008C5160008C5160008C516000814
:10006000C5160008C5160008C5160008C516000804
:10007000C5160008C5160008C5160008C5160008F4
:10008000C5160008C5160008C5160008C5160008E4
:10009000C5160008C5160008C5160008C5160008D4
:1000A000C5160008C5160008C5160008C5160008C4
:1000B0009D130008C516000800000000C5160008C2
:1000C000C51600080000000000000000C51600086A
:1000D00000000000C5160008C5160008000000005A
:1000E000C5160008C5160008C51600080000000067
:1000F0000000000000000000000000000000000000
:0C01000000000000000000005FF808F1A3
:10010C0010B5054C237833B9044B13B10448AFF345
:10011C0000800123237010BDC400002000000000EB
:10012C00A82E000808B5034B1BB103490348AFF3D5
:10013C00008008BD00000000C8000020A82E0008A8
:10014C0080B483B000AF254B1A6813469B00134450
:10015C005B001A46214B5B681344013B7B607B6858
:10016C001F4A82FB03129210DB17D31A1B4A13602F
:10017C0079681B4B83FB01239A10CB17D21A1346B9
:10018C009B0013445B00CA1A144B5A60134B9A68B9
:10019C0013469B0013445B001A46104BDB68134458
:1001AC00013B3B603B680E4A82FB03129210DB174B
:1001BC00D31A0A4A93603968094B83FB01239A10BE
:1001CC00CB17D21A13469B0013445B00CA1A034B7D
:1001DC00DA6000BF0C37BD4680BC7047E0000020E1
:1001EC006766666680B483B000AF786039607B6800
:1001FC005A003B680F4981FB03018910DB17CB1AAE
:10020C000D4941F822307B685B00581C3968094B5A
:10021C0083FB01239A10CB17D21A13469B0013446D
:10022C005B00CA1A044B43F8202000BF0C37BD46B4
:10023C0080BC704767666666E000002080B500AF42
:10024C00434B1B68032B6BD801A252F823F000BF61
:10025C006D0200089D020008CD020008FD02000896
:10026C00002280213B4801F02AFD01224FF48071CD
:10027C00384801F024FD01224FF40071354801F09B
:10028C001EFD01224FF48061324801F018FD48E058
:10029C00012280212F4801F012FD00224FF48071C1
:1002AC002C4801F00CFD01224FF40071294801F09B
:1002BC0006FD01224FF48061264801F000FD30E07C
:1002CC0001228021234801F0FAFC01224FF48071B5
:1002DC00204801F0F4FC00224FF400711D4801F09D
:1002EC00EEFC01224FF480611A4801F0E8FC18E0A2
:1002FC0001228021174801F0E2FC01224FF48071A9
:10030C00144801F0DCFC01224FF40071114801F09B
:10031C00D6FC00224FF480610E4801F0D0FC00E0C6
:10032C0000BF0B4B1B680C4A52F82330184600F0E8
:10033C0015F8074B1B680133054A1360044B1B6807
:10034C00032B02DD024B00221A6000BF80BD00BFF0
:10035C00F0000020000C0140E000002080B582B0CD
:10036C0000AF78607B68092B00F2808101A252F803
:10037C0023F000BFA9030008F103000839040008AA
:10038C0081040008C904000811050008590500087B
:10039C00A1050008E905000831060008002201212A
:1003AC00B54801F08CFC00220221B34801F087FC17
:1003BC0000220421B04801F082FC00220821AE4842
:1003CC0001F07DFC00221021AB4801F078FC0022EA
:1003DC002021A94801F073FC01224021A64801F01C
:1003EC006EFC44E101220121A34801F068FC0022CB
:1003FC000221A14801F063FC002204219E4801F077
:10040C005EFC012208219C4801F059FC01221021BC
:10041C00994801F054FC01222021974801F04FFC2F
:10042C0001224021944801F04AFC20E100220121E4
:10043C00914801F044FC002202218F4801F03FFC5E
:10044C00012204218C4801F03AFC002208218A4840
:10045C0001F035FC00221021874801F030FC01220C
:10046C002021854801F02BFC00224021824801F01C
:10047C0026FCFCE0002201217F4801F020FC002238
:10048C0002217D4801F01BFC002204217A4801F076
:10049C0016FC00220821784801F011FC01221021E1
:1004AC00754801F00CFC01222021734801F007FC77
:1004BC0000224021704801F002FCD8E00122012109
:1004CC006D4801F0FCFB002202216B4801F0F7FBA8
:1004DC0000220421684801F0F2FB01220821664841
:1004EC0001F0EDFB01221021634801F0E8FB002232
:1004FC002021614801F0E3FB002240215E4801F01D
:10050C00DEFBB4E0002201215B4801F0D8FB0122A4
:10051C000221594801F0D3FB00220421564801F076
:10052C00CEFB00220821544801F0C9FB0122102106
:10053C00514801F0C4FB002220214F4801F0BFFBC1
:10054C00002240214C4801F0BAFB90E0002201212E
:10055C00494801F0B4FB01220221474801F0AFFBEE
:10056C0000220421444801F0AAFB00220821424841
:10057C0001F0A5FB002210213F4801F0A0FB002256
:10058C0020213D4801F09BFB002240213A4801F01C
:10059C0096FB6CE000220121374801F090FB002211
:1005AC000221354801F08BFB00220421324801F076
:1005BC0086FB01220821304801F081FB0122102129
:1005CC002D4801F07CFB012220212B4801F077FB08
:1005DC0001224021284801F072FB48E00022012151
:1005EC00254801F06CFB00220221234801F067FB37
:1005FC0000220421204801F062FB002208211E4841
:10060C0001F05DFB002210211B4801F058FB002279
:10061C002021194801F053FB00224021164801F01B
:10062C004EFB24E000220121134801F048FB00227C
:10063C000221114801F043FB002204210E4801F075
:10064C003EFB002208210C4801F039FB012210214D
:10065C00094801F034FB00222021074801F02FFB50
:10066C0000224021044801F02AFB00E000BF00BF3B
:10067C000837BD4680BD00BF000C014080B400AF00
:10068C00064B1B68012B04D1044B00221A6001237A
:10069C0000E000231846BD4680BC7047F4000020E3
:1006AC0080B400AF064B1B68012B04D1044B002215
:1006BC001A60012300E000231846BD4680BC704739
:1006CC00F800002080B400AF064B1B68012B04D14E
:1006DC00044B00221A60012300E000231846BD469B
:1006EC0080BC7047FC00002080B500AF5D4B5B68A0
:1006FC005C4A13605B4B9B685A4A53604FF48071A1
:10070C00594801F0C5FA03461A46564B9A60554BA8
:10071C001A68544B5B689A4226D1524B5A68514B1B
:10072C009B689A4220D14F4BDA684E4B9B689A4299
:10073C000ED04C4B9B684B4AD3604A4B9B68002BAA
:10074C0012D14A4B01221A60494BC8221A600BE0A5
:10075C00474B1B68013B464A1360454B1B68002BFB
:10076C0002DC404B0122DA60424B5B68414A136069
:10077C00404B9B683F4A53604FF400713A4801F07C
:10078C0087FA03461A463B4B9A603A4B1A68394B28
:10079C005B689A4226D1374B5A68364B9B689A4213
:1007AC0020D1344BDA68334B9B689A420ED0314BD4
:1007BC009B68304AD3602F4B9B68002B12D12E4B79
:1007CC0001221A602D4BC8221A600BE02B4B1B68C0
:1007DC00013B2A4A1360294B1B68002B02DC254B7A
:1007EC000122DA60264B5B68254A1360244B9B6818
:1007FC00234A53604FF480611B4801F049FA0346C9
:10080C001A461F4B9A601E4B1A681D4B5B689A4226
:10081C0026D11B4B5A681A4B9B689A4220D1184B15
:10082C00DA68174B9B689A420ED0154B9B68144A9A
:10083C00D360134B9B68002B12D1124B01221A6010
:10084C00114BC8221A600BE00F4B1B68013B0E4A80
:10085C0013600D4B1B68002B02DC094B0122DA6084
:10086C0000BF80BD0000002000080140F400002003
:10087C001000002014000020F800002024000020AC
:10088C0028000020FC0000203800002080B500AFBC
:10089C003D4B1B68032B73D801A252F823F000BF09
:1008AC00BD080008F10800082509000859090008CE
:1008BC00354B01221A60002000F0D4FD334B1B682D
:1008CC00334A82FB03129211DB17D31A194600200C
:1008DC00FFF788FC2D4B1B68002219462D4800F0B1
:1008EC0073FB4EE0284B02221A60002000F0EEFD54
:1008FC00264B5B68264A82FB03129211DB17D31A34
:10090C0019460020FFF76EFC204B5B68002219464D
:10091C00204800F059FB34E01B4B03221A600020E6
:10092C0000F008FE194B9B68194A82FB03129211C6
:10093C00DB17D31A19460020FFF754FC134B9B68A6
:10094C0000221946134800F03FFB1AE00E4B01221F
:10095C001A60002000F086FD0C4B1B680C4A82FBD1
:10096C0003129211DB17D31A19460020FFF73AFC39
:10097C00064B1B6800221946064800F025FB00E0D8
:10098C0000BF00BF80BD00BF000100204800002058
:10099C00D34D62109908000880B500AF3D4B5B68E1
:1009AC00032B73D801A252F823F000BFC909000829
:1009BC00FD090008310A0008650A0008354B0222BF
:1009CC005A60012000F082FD334B5B68334A82FB96
:1009DC0003129211DB17D31A19460120FFF702FC00
:1009EC002D4B5B68002219462D4800F0EDFA4EE0C5
:1009FC00284B02225A60012000F034FD264B5B6824
:100A0C00264A82FB03129211DB17D31A19460120D6
:100A1C00FFF7E8FB204B5B6800221946204800F0EA
:100A2C00D3FA34E01B4B03225A60012000F082FD04
:100A3C00194B9B68194A82FB03129211DB17D31ACC
:100A4C0019460120FFF7CEFB134B9B680022194679
:100A5C00134800F0B9FA1AE00E4B01225A6001203B
:100A6C0000F000FD0C4B1B680C4A82FB0312921128
:100A7C00DB17D31A19460120FFF7B4FB064B1B6892
:100A8C0000221946064800F09FFA00E000BF00BFA4
:100A9C0080BD00BF0001002048000020D34D621033
:100AAC00A509000880B500AF0B4B1B680D2B0CD0B3
:100ABC000D2B0DDC0B2B02D00C2B03D008E000F01F
:100ACC006DFD06E000F0AEFD03E000F089FD00E0F6
:100ADC0000BF00BF80BD00BF0001002080B582B008
:100AEC0000AF874B1B680A2B70DDFFF7D9FD03465F
:100AFC00002B52D0824B1B680D2B36D00D2B4EDCAD
:100B0C000B2B02D00C2B18D049E07E4B1B687E4A75
:100B1C00934205DC7B4B1B6803F57A73794A1360AF
:100B2C00784B1B68794A82FB03129211DB17D31A9C
:100B3C0019460020FFF756FB32E0724B5B68724A95
:100B4C00934205DC6F4B5B6803F57A736D4A536017
:100B5C006C4B5B686D4A82FB03129211DB17D31A44
:100B6C0019460020FFF73EFB1AE0664B9B68664A6D
:100B7C00934205DC634B9B6803F57A73614A93607F
:100B8C00604B9B68614A82FB03129211DB17D31AEC
:100B9C0019460020FFF726FB02E000BF00E000BF73
:100BAC00FFF790FD0346002B10D000237B600AE07A
:100BBC00544A7B6852F8232055497B6841F823201E
:100BCC007B6801337B607B68022BF1DDFFF756FD00
:100BDC000346002B00F09080494B1B680A2B4EDD1E
:100BEC00474B1B680D2B35D00D2B00F384800B2B42
:100BFC0002D00C2B17D07EE0414B0C221A60404BDC
:100C0C000C225A603F4B5B68404A82FB03129211E4
:100C1C00DB17D31A19460020FFF7E4FA0321002052
:100C2C00FFF7E0FA68E0364B0D221A60344B0D22C8
:100C3C005A60344B9B68354A82FB03129211DB17C6
:100C4C00D31A19460020FFF7CDFA04210120FFF733
:100C5C00C9FA51E02A4B00221A60294B00225A6033
:100C6C002C4800F0A7FAFFF711FEFFF795FE4FF4A2
:100C7C007A724FF47A71284800F0A6F93CE0204BC8
:100C8C001B68092B38DC00233B600AE0204A3B68D8
:100C9C0052F823201B493B6841F823203B68013361
:100CAC003B603B68022BF1DD1C4800F083FA1C48CA
:100CBC0000F080FA184800F07DFA114B0B221A60F4
:100CCC000F4B0B225A60124B1B68104A82FB03120B
:100CDC009211DB17D31A19460020FFF783FA022171
:100CEC000120FFF77FFA00F099FBFA220021094856
:100CFC0000F06AF900E000BF00BF0837BD4680BDB8
:100D0C00000100203C000020B7820100D34D62108E
:100D1C0048000020B10A00084D010008990800089D
:100D2C00A509000880B500AF00F0C8FC00F040F841
:100D3C0000F0C6F800F078F8164801F01DFC00F041
:100D4C0031F9FA224FF47A71134800F03DF94FF45F
:100D5C007A724FF47A71114800F036F900224FF490
:100D6C007A710F4800F030F900224FF47A710D4877
:100D7C0000F02AF90A224FF47A710B4800F024F99A
:100D8C000A224FF47A71094800F01EF900F0C8F9F4
:100D9C00FCE700BF14010020490200084D010008C7
:100DAC0099080008A5090008E90A0008F5060008DA
:100DBC0080B590B000AF07F1180328220021184627
:100DCC0001F0A0FF3B1D00221A605A609A60DA60A5
:100DDC001A610223BB610123BB621023FB62002357
:100DEC007B6307F11803184600F09AFF0346002BAB
:100DFC0001D000F0D1F80F237B600023BB600023EF
:100E0C00FB6000233B6100237B613B1D00211846E6
:100E1C0001F006FA0346002B01D000F0BDF800BF2C
:100E2C004037BD4680BD000080B586B000AF07F1ED
:100E3C00080300221A605A609A60DA603B4600226E
:100E4C001A605A601D4B4FF080421A601B4B41F6E2
:100E5C003F725A60194B00229A60184B0922DA60D3
:100E6C00164B00221A61154B00229A61134801F0AF
:100E7C0033FB0346002B01D000F08EF84FF4805367
:100E8C00BB6007F1080319460C4801F0B1FC03469E
:100E9C00002B01D000F080F800233B6000237B6026
:100EAC003B461946054801F089FE0346002B01D04C
:100EBC0000F072F800BF1837BD4680BD1401002049
:100ECC0080B586B000AF07F1080300221A605A60A3
:100EDC009A60DA60284B9B69274A43F004039361BC
:100EEC00254B9B6903F004037B607B68224B9B6959
:100EFC00214A43F0080393611F4B9B6903F00803DD
:100F0C003B603B680022FC211C4800F0D8FE00220C
:100F1C0040F2FF711A4800F0D2FEFC23BB600123A3
:100F2C00FB6000233B6102237B6107F10803194638
:100F3C00124800F033FD40F2FF73BB600123FB60ED
:100F4C0000233B6102237B6107F1080319460C481F
:100F5C0000F024FD4FF4E063BB600023FB60012331
:100F6C003B6107F108031946044800F017FD00BF68
:100F7C001837BD4680BD00BF00100240000801407C
:100F8C00000C014080B582B000AF786000F0B6F87C
:100F9C0000BF0837BD4680BD80B400AF72B600BF3D
:100FAC00FEE7000080B400AF064B00225A60054BF0
:100FBC0000229A60034B00221A6000BFBD4680BC21
:100FCC00704700BF5C01002080B586B000AFF860B0
:100FDC00B9607A60142001F085FE03463B613B69E1
:100FEC00002B00F082803B69FA681A60BB68414AAA
:100FFC00A2FB0323DA083B695A607B683D4AA2FBDB
:10100C000323DA083B699A603B6900221A613B6949
:10101C000022DA60384B5B68002B0BD1364A3B69F7
:10102C005360354A3B699360334B1B680133324A3A
:10103C0013605BE0304B5B687B6109E03B695A688D
:10104C007B695B68D21A3B695A607B691B697B615F
:10105C007B69002B05D03B695A687B695B689A42B7
:10106C00ECD2254B5B687A699A4214D1224B5A68B0
:10107C003B691A61204B5B683A69DA601E4B5B680E
:10108C0059683B695A681C4B5B688A1A5A601A4A41
:10109C003B69536023E07B69002B0BD1164B9A689C
:1010AC003B69DA60144B9B683A691A61124A3B69D6
:1010BC00936014E03B697A691A617B69DA683B6971
:1010CC00DA607B69DB683A691A617B693A69DA60D4
:1010DC007B695A683B695B68D21A7B695A60064B1C
:1010EC001B680133044A136000E000BF1837BD468B
:1010FC0080BD00BFCDCCCCCC5C01002080B400AF57
:10110C00064B5B68002B04D0044B5B685A68013AB1
:10111C005A6000BFBD4680BC704700BF5C01002018
:10112C0080B582B000AF224B5B68002B3BD0204BCC
:10113C005B685B68002B37D11D4B5B681B6898475D
:10114C001B4B5B687B601A4B5B681B69184A5360CE
:10115C00174B5B68002B04D0154B5B680022DA60E0
:10116C0002E0134B00229A60114B1B68013B104AA2
:10117C0013607B689B68002B11D07B6818687B68B8
:10118C009A6813469B0013445B0019467B689A6867
:10119C0013469B0013445B001A46FFF715FF786853
:1011AC0001F0A8FD00E000BF0837BD4680BD00BFC0
:1011BC005C01002080B584B000AF7860344B5B6874
:1011CC00002B60D0324B5B68FB6058E0FB681B68FF
:1011DC007A689A4250D1FB68BB60FB681B69FB6064
:1011EC002B4B5B68BA689A421AD1294B5B681B6916
:1011FC00274A5360264B5B68002B0DD0244B5B6851
:10120C000022DA60224B5B685968BB685A68204B35
:10121C005B680A445A6026E01D4B00229A6022E06B
:10122C001B4B9B68BA689A420AD1194B9B68DB68C6
:10123C0000221A61164B9B68DB68154A936012E01A
:10124C00BB68DB68BA6812691A61BB681B69BA684B
:10125C00D268DA60BB685968BB681B695A68BB689E
:10126C001B690A445A60B86801F044FD084B1B68BE
:10127C00013B074A136002E0FB681B69FB60FB68DB
:10128C00002BA3D100E000BF1037BD4680BD00BFCE
:10129C005C01002080B485B000AF154B9B69144AEB
:1012AC0043F001039361124B9B6903F00103BB6094
:1012BC00BB680F4BDB690E4A43F08053D3610C4B78
:1012CC00DB6903F080537B607B680A4B5B68FB60D7
:1012DC00FB6823F0E063FB60FB6843F08063FB601A
:1012EC00044AFB68536000BF1437BD4680BC70478E
:1012FC00001002400000014080B584B000AF78605F
:10130C007B681B68B3F1804F13D10C4BDB690B4A24
:10131C0043F00103D361094BDB6903F00103FB606C
:10132C00FB68002200211C2000F001FB1C2000F0B7
:10133C001AFB00BF1037BD4680BD00BF0010024035
:10134C0080B400AFFEE780B400AFFEE780B400AF1E
:10135C00FEE780B400AFFEE780B400AFFEE780B4D8
:10136C0000AF00BFBD4680BC704780B400AF00BF6B
:10137C00BD4680BC704780B400AF00BFBD4680BC8A
:10138C00704780B500AF00F0DFF900BF80BD0000F2
:10139C0080B500AF024801F03BF900BF80BD00BF33
:1013AC001401002080B586B000AF7860144A154B4C
:1013BC00D31A7B617B693B61134B1B68002B02D1F9
:1013CC00114B124A1A60104B1A687B6813443A6925
:1013DC009A4207D201F05CFC03460C221A604FF0D3
:1013EC00FF3309E0084B1B68FB60074B1A687B68EE
:1013FC001344054A1360FB6818461837BD4680BD78
:10140C0000280020000400000801002080010020BA
:10141C0080B400AF00BFBD4680BC704780B500AF44
:10142C00002204210E4800F04AFC002208210C483E
:10143C0000F045FC00221021094800F040FC00227D
:10144C002021074800F03BFC00224021044800F01A
:10145C0036FC00228021024800F031FC00BF80BD28
:10146C000008014080B582B000AF78607A681346FE
:10147C005B001344042202FA03F39BB201221946C7
:10148C00114800F01CFC7A6813465B0013440133CE
:10149C00042202FA03F39BB2002219460A4800F018
:1014AC000EFC7A6813465B0013440233042202FAE2
:1014BC0003F39BB200221946034800F000FC00BF66
:1014CC000837BD4680BD00BF0008014080B582B022
:1014DC0000AF78607A6813465B001344042202FA6A
:1014EC0003F39BB200221946114800F0E8FB7A681E
:1014FC0013465B0013440133042202FA03F39BB23C
:10150C00002219460A4800F0DAFB7A6813465B00A1
:10151C0013440233042202FA03F39BB2012219464C
:10152C00034800F0CCFB00BF0837BD4680BD00BFB0
:10153C000008014080B582B000AF78607A6813462D
:10154C005B001344042202FA03F39BB200221946F7
:10155C00114800F0B4FB7A6813465B001344013366
:10156C00042202FA03F39BB2012219460A4800F046
:10157C00A6FB7A6813465B0013440233042202FA7A
:10158C0003F39BB200221946034800F098FB00BFFE
:10159C000837BD4680BD00BF0008014080B500AFD4
:1015AC0004210E4800F0A3FB002208210B4800F098
:1015BC0086FB00221021094800F081FB20210748FE
:1015CC0000F095FB00224021044800F078FB00223B
:1015DC008021024800F073FB00BF80BD0008014071
:1015EC0080B500AF002204210D4800F068FB0821F3
:1015FC000B4800F07CFB00221021094800F05FFB37
:10160C0000222021064800F05AFB4021044800F03B
:10161C006EFB00228021024800F051FB00BF80BD10
:10162C000008014080B582B000AF78600022042130
:10163C000E4800F044FB002208210C4800F03FFB50
:10164C0010210A4800F053FB00222021074800F02B
:10165C0036FB00224021054800F031FB8021034875
:10166C0000F045FB00BF0837BD4680BD00080140B7
:10167C00FFF7CEFE0B480C490C4A002302E0D4586D
:10168C00C4500433C4188C42F9D3094A094C0023C2
:10169C0001E013600432A242FBD301F0FFFAFFF722
:1016AC0041FB704700000020C4000020EC2E000815
:1016BC00C40000207C010020FEE7000080B500AFD4
:1016CC00084B1B68074A43F010031360032000F01B
:1016DC0023F90F2000F008F8FFF7DCFD0023184673
:1016EC0080BD00BF0020024080B582B000AF7860A2
:1016FC00124B1A68124B1B7819464FF47A73B3FBD2
:10170C00F1F3B2FBF3F3184600F03BF90346002B60
:10171C0001D001230EE07B680F2B0AD800227968D8
:10172C004FF0FF3000F003F9064A7B68136000238A
:10173C0000E0012318460837BD4680BD5400002048
:10174C005C0000205800002080B400AF054B1B78D3
:10175C001A46054B1B681344034A136000BFBD4671
:10176C0080BC70475C0000206801002080B400AF92
:10177C00024B1B681846BD4680BC704768010020B0
:10178C0080B485B000AF78607B6803F00703FB6022
:10179C000C4BDB68BB60BA684FF6FF031340BB60B1
:1017AC00FB681A02BB68134343F0BF6343F4003376
:1017BC00BB60044ABB68D36000BF1437BD4680BC15
:1017CC00704700BF00ED00E080B400AF044BDB6855
:1017DC001B0A03F007031846BD4680BC704700BFC8
:1017EC0000ED00E080B483B000AF0346FB7197F9C5
:1017FC000730002B0BDBFB7903F01F02064997F92E
:10180C0007305B09012000FA02F241F8232000BFE7
:10181C000C37BD4680BC704700E100E080B483B05B
:10182C0000AF03463960FB7197F90730002B0ADBD8
:10183C003B68DAB20C4997F907301201D2B20B446B
:10184C0083F800230AE03B68DAB20849FB7903F01D
:10185C000F03043B1201D2B20B441A7600BF0C37B3
:10186C00BD4680BC704700BF00E100E000ED00E029
:10187C0080B489B000AFF860B9607A60FB6803F09F
:10188C000703FB61FB69C3F10703042B28BF042387
:10189C00BB61FB690433062B02D9FB69033B00E0F7
:1018AC0000237B614FF0FF32BB6902FA03F3DA438A
:1018BC00BB681A407B699A404FF0FF317B6901FA93
:1018CC0003F3D9437B680B40134318462437BD46BA
:1018DC0080BC704780B582B000AF78607B68013BFC
:1018EC00B3F1807F01D301230FE00A4A7B68013BEF
:1018FC0053600F214FF0FF30FFF790FF054B002294
:10190C009A60044B07221A60002318460837BD461C
:10191C0080BD00BF10E000E080B582B000AF786001
:10192C007868FFF72DFF00BF0837BD4680BD80B536
:10193C0086B000AF0346B9607A60FB7300237B610D
:10194C00FFF742FF78617A68B9687869FFF790FF12
:10195C00024697F90F3011461846FFF75FFF00BF9C
:10196C001837BD4680BD80B582B000AF0346FB7111
:10197C0097F907301846FFF735FF00BF0837BD460B
:10198C0080BD80B582B000AF78607868FFF7A2FFA9
:10199C00034618460837BD4680BD000080B48BB0A6
:1019AC0000AF7860396000237B6200233B6248E122
:1019BC0001227B6A02FA03F3FB613B681B68FA693C
:1019CC001340BB61BA69FB699A4240F037813B68AE
:1019DC005B68A34A93425ED0A14A934275D8A14A50
:1019EC00934258D09F4A93426FD89F4A934252D009
:1019FC009D4A934269D89D4A93424CD09B4A93424C
:101A0C0063D89B4A934246D0994A93425DD8122B95
:101A1C002AD8122B59D801A252F823F0A31A000885
:101A2C007D1A00088F1A0008D11A0008D71A00086E
:101A3C00D71A0008D71A0008D71A0008D71A0008B6
:101A4C00D71A0008D71A0008D71A0008D71A0008A6
:101A5C00D71A0008D71A0008D71A0008D71A000896
:101A6C00851A0008991A0008824A934213D02CE078
:101A7C003B68DB683B6229E03B68DB6804333B6214
:101A8C0024E03B68DB6808333B621FE03B68DB68A3
:101A9C000C333B621AE03B689B68002B02D1042399
:101AAC003B6213E03B689B68012B05D108233B622A
:101ABC007B68FA691A6109E008233B627B68FA6962
:101ACC005A6103E000233B6200E000BFBB69FF2BBF
:101ADC0001D87B6801E07B6804337B61BB69FF2B19
:101AEC0002D87B6A9B0002E07B6A083B9B003B614F
:101AFC007B691A680F213B6901FA03F3DB431A4037
:101B0C00396A3B6901FA03F31A437B691A603B6833
:101B1C005B6803F08053002B00F09080564B9B6960
:101B2C00554A43F001039361534B9B6903F0010346
:101B3C00BB60BB68514A7B6A9B08023352F8233066
:101B4C00FB607B6A03F003039B000F2202FA03F392
:101B5C00DB43FA681340FB607B68494A93420DD023
:101B6C007B68484A934207D07B68474A934201D12D
:101B7C00022304E0032302E0012300E000237A6A3D
:101B8C0002F0030292009340FA681343FB603B4956
:101B9C007B6A9B080233FA6841F823203B685B6838
:101BAC0003F48013002B06D0384B9A683749BB6975
:101BBC0013438B6006E0354B9A68BB69DB433349B2
:101BCC0013408B603B685B6803F40013002B06D05A
:101BDC002E4BDA682D49BB691343CB6006E02B4BC7
:101BEC00DA68BB69DB4329491340CB603B685B680F
:101BFC0003F40033002B06D0244B5A682349BB69ED
:101C0C0013434B6006E0214B5A68BB69DB431F4909
:101C1C0013404B603B685B6803F48033002B06D0A9
:101C2C001A4B1A681949BB6913430B6006E0174B32
:101C3C001A68BB69DB43154913400B607B6A01339F
:101C4C007B623B681A687B6A22FA03F3002B7FF4F1
:101C5C00AFAE00BF00BF2C37BD4680BC704700BF85
:101C6C000000321000003110000022100000211082
:101C7C000000121000001110001002400000014082
:101C8C0000080140000C014000100140000401401C
:101C9C0080B485B000AF78600B467B807B689A6817
:101CAC007B881340002B02D00123FB7301E000233F
:101CBC00FB73FB7B18461437BD4680BC704780B461
:101CCC0083B000AF78600B467B8013467B707B78CB
:101CDC00002B03D07A887B681A6103E07B881A0496
:101CEC007B681A6100BF0C37BD4680BC704780B45E
:101CFC0085B000AF78600B467B807B68DB68FB604F
:101D0C007A88FB6813401A04FB68D9437B880B4024
:101D1C001A437B681A6100BF1437BD4680BC7047FC
:101D2C0080B586B000AF78607B68002B01D10123B1
:101D3C006CE27B681B6803F00103002B00F08780CA
:101D4C00924B5B6803F00C03042B0CD08F4B5B683D
:101D5C0003F00C03082B12D18C4B5B6803F480331B
:101D6C00B3F5803F0BD1894B1B6803F40033002B78
:101D7C006CD07B685B68002B68D1012346E27B68E2
:101D8C005B68B3F5803F06D1804B1B687F4A43F4F8
:101D9C00803313602EE07B685B68002B0CD17B4B8F
:101DAC001B687A4A23F480331360784B1B68774A9C
:101DBC0023F4802313601DE07B685B68B3F5A02FD0
:101DCC000CD1724B1B68714A43F4802313606F4B28
:101DDC001B686E4A43F4803313600BE06B4B1B683B
:101DEC006A4A23F480331360684B1B68674A23F4F8
:101DFC00802313607B685B68002B13D0FFF7B6FC65
:101E0C00386108E0FFF7B2FC02463B69D31A642B39
:101E1C0001D90323FAE15D4B1B6803F40033002B5B
:101E2C00F0D014E0FFF7A2FC386108E0FFF79EFC4D
:101E3C0002463B69D31A642B01D90323E6E1534BC9
:101E4C001B6803F40033002BF0D100E000BF7B686B
:101E5C001B6803F00203002B63D04C4B5B6803F050
:101E6C000C03002B0BD0494B5B6803F00C03082BC5
:101E7C001CD1464B5B6803F48033002B16D1434BCB
:101E8C001B6803F00203002B05D07B681B69012B38
:101E9C0001D00123BAE13D4B1B6823F0F8027B68AB
:101EAC005B69DB00394913430B603AE07B681B69C3
:101EBC00002B20D0364B01221A60FFF757FC3861FB
:101ECC0008E0FFF753FC02463B69D31A022B01D9F9
:101EDC0003239BE12D4B1B6803F00203002BF0D076
:101EEC002A4B1B6823F0F8027B685B69DB002749EF
:101EFC0013430B6015E0264B00221A60FFF736FCEB
:101F0C00386108E0FFF732FC02463B69D31A022B1A
:101F1C0001D903237AE11D4B1B6803F00203002B4C
:101F2C00F0D17B681B6803F00803002B3AD07B6868
:101F3C009B69002B19D0174B01221A60FFF716FC76
:101F4C00386108E0FFF712FC02463B69D31A022BFA
:101F5C0001D903235AE10D4B5B6A03F00203002BFA
:101F6C00F0D0012000F09AFA1CE00A4B00221A6013
:101F7C00FFF7FCFB38610FE0FFF7F8FB02463B690B
:101F8C00D31A022B08D9032340E100BF00100240F2
:101F9C0000004242800442429E4B5B6A03F0020303
:101FAC00002BE9D17B681B6803F00403002B00F0C5
:101FBC00A6800023FB75974BDB6903F08053002B45
:101FCC000DD1944BDB69934A43F08053D361914B11
:101FDC00DB6903F08053BB60BB680123FB758E4B40
:101FEC001B6803F48073002B18D18B4B1B688A4A37
:101FFC0043F480731360FFF7B9FB386108E0FFF717
:10200C00B5FB02463B69D31A642B01D90323FDE0CF
:10201C00814B1B6803F48073002BF0D07B68DB686A
:10202C00012B06D17B4B1B6A7A4A43F001031362E6
:10203C002DE07B68DB68002B0CD1764B1B6A754A54
:10204C0023F001031362734B1B6A724A23F00403DF
:10205C0013621CE07B68DB68052B0CD16D4B1B6A93
:10206C006C4A43F0040313626A4B1B6A694A43F0DF
:10207C00010313620BE0674B1B6A664A23F00103F2
:10208C001362644B1B6A634A23F0040313627B687C
:10209C00DB68002B15D0FFF769FB38610AE0FFF70E
:1020AC0065FB02463B69D31A41F28832934201D94F
:1020BC000323ABE0574B1B6A03F00203002BEED05B
:1020CC0014E0FFF753FB38610AE0FFF74FFB0246C1
:1020DC003B69D31A41F28832934201D9032395E02C
:1020EC004C4B1B6A03F00203002BEED1FB7D012B42
:1020FC0005D1484BDB69474A23F08053D3617B6899
:10210C00DB69002B00F08180424B5B6803F00C0311
:10211C00082B61D07B68DB69022B46D13F4B002238
:10212C001A60FFF723FB386108E0FFF71FFB02463C
:10213C003B69D31A022B01D9032367E0354B1B688B
:10214C0003F00073002BF0D17B681B6AB3F5803F62
:10215C0008D1304B5B6823F400327B689B682D49B7
:10216C0013434B602B4B5B6823F474127B68196A26
:10217C007B685B6A0B43274913434B60274B012257
:10218C001A60FFF7F3FA386108E0FFF7EFFA02463E
:10219C003B69D31A022B01D9032337E01D4B1B6873
:1021AC0003F00073002BF0D02FE01C4B00221A60C0
:1021BC00FFF7DCFA386108E0FFF7D8FA02463B6912
:1021CC00D31A022B01D9032320E0124B1B6803F016
:1021DC000073002BF0D118E07B68DB69012B01D177
:1021EC00012313E00B4B5B68FB60FB6803F480324C
:1021FC007B681B6A9A4206D1FB6803F470127B68F9
:10220C005B6A9A4201D0012300E00023184618377C
:10221C00BD4680BD0010024000700040600042428C
:10222C0080B584B000AF786039607B68002B01D139
:10223C000123D0E06A4B1B6803F007033A689A420B
:10224C0010D9674B1B6823F0070265493B681343A1
:10225C000B60634B1B6803F007033A689A4201D08A
:10226C000123B8E07B681B6803F00203002B20D02D
:10227C007B681B6803F00403002B05D0594B5B688B
:10228C00584A43F4E06353607B681B6803F008030F
:10229C00002B05D0534B5B68524A43F46053536098
:1022AC00504B5B6823F0F0027B689B684D491343ED
:1022BC004B607B681B6803F00103002B40D07B68EC
:1022CC005B68012B07D1474B1B6803F40033002BD1
:1022DC0015D101237FE07B685B68022B07D1414B52
:1022EC001B6803F00073002B09D1012373E03D4BF5
:1022FC001B6803F00203002B01D101236BE0394B67
:10230C005B6823F003027B685B68364913434B60C0
:10231C00FFF72CFAF8600AE0FFF728FA0246FB6890
:10232C00D31A41F28832934201D9032353E02D4B47
:10233C005B6803F00C027B685B689B009A42EBD1F4
:10234C00274B1B6803F007033A689A4210D2244BC0
:10235C001B6823F0070222493B6813430B60204B98
:10236C001B6803F007033A689A4201D0012332E05C
:10237C007B681B6803F00403002B08D0194B5B68C7
:10238C0023F4E0627B68DB68164913434B607B687F
:10239C001B6803F00803002B09D0124B5B6823F475
:1023AC0060527B681B69DB000E4913434B6000F0E5
:1023BC0021F802460B4B5B681B0903F00F030A491B
:1023CC00CB5C22FA03F3094A1360094B1B681846CD
:1023DC00FFF78AF9002318461037BD4680BD00BFB1
:1023EC000020024000100240C02E000854000020C3
:1023FC005800002080B487B000AF0023FB6000239E
:10240C00BB6000237B6100237B6000233B611E4B80
:10241C005B68FB60FB6803F00C03042B02D0082BF9
:10242C0003D027E0194B3B6127E0FB689B0C03F0C2
:10243C000F03174AD35C7B60FB6803F48033002BDB
:10244C0010D0114B5B685B0C03F00103114AD35C99
:10245C00BB607B680D4A02FB03F2BB68B2FBF3F373
:10246C007B6104E07B680C4A02FB03F37B617B69B4
:10247C003B6102E0054B3B6100BF3B6918461C37D2
:10248C00BD4680BC704700BF0010024000127A00AD
:10249C00D02E0008E02E000800093D0080B485B065
:1024AC0000AF78600A4B1B680A4AA2FB03235B0A45
:1024BC007A6802FB03F3FB6000BFFB685A1EFA60EC
:1024CC00002BF9D100BF00BF1437BD4680BC70474C
:1024DC0054000020D34D621080B582B000AF7860FC
:1024EC007B68002B01D1012341E07B6893F83D30E0
:1024FC00DBB2002B06D17B68002283F83C20786885
:10250C00FEF7FAFE7B68022283F83D207B681A688E
:10251C007B6804331946104600F056FA7B6801229A
:10252C0083F846207B68012283F83E207B680122D9
:10253C0083F83F207B68012283F840207B680122CE
:10254C0083F841207B68012283F842207B680122BA
:10255C0083F843207B68012283F844207B680122A6
:10256C0083F845207B68012283F83D200023184620
:10257C000837BD4680BD000080B485B000AF7860E0
:10258C007B6893F83D30DBB2012B01D0012335E0A1
:10259C007B68022283F83D207B681B68DA687B68C5
:1025AC001B6842F00102DA607B681B68164A934292
:1025BC0009D07B681B68B3F1804F04D07B681B6823
:1025CC00124A934211D17B681B689B6803F0070386
:1025DC00FB60FB68062B10D07B681B681A687B6855
:1025EC001B6842F001021A6007E07B681B681A68DE
:1025FC007B681B6842F001021A60002318461437EE
:10260C00BD4680BC704700BF002C01400004004058
:10261C0080B584B000AF78607B681B68DB68FB60BA
:10262C007B681B681B69BB60BB6803F00203002B53
:10263C0020D0FB6803F00203002B1BD07B681B68C7
:10264C006FF002021A617B6801221A777B681B68A3
:10265C009B6903F00303002B03D0786800F098F912
:10266C0005E0786800F08BF9786800F09AF97B68DF
:10267C0000221A77BB6803F00403002B20D0FB6800
:10268C0003F00403002B1BD07B681B686FF0040263
:10269C001A617B6802221A777B681B689B6903F4BA
:1026AC004073002B03D0786800F072F905E078686D
:1026BC0000F065F9786800F074F97B6800221A77ED
:1026CC00BB6803F00803002B20D0FB6803F0080361
:1026DC00002B1BD07B681B686FF008021A617B68AB
:1026EC0004221A777B681B68DB6903F00303002B59
:1026FC0003D0786800F04CF905E0786800F03FF9F9
:10270C00786800F04EF97B6800221A77BB6803F0FA
:10271C001003002B20D0FB6803F01003002B1BD000
:10272C007B681B686FF010021A617B6808221A77AD
:10273C007B681B68DB6903F44073002B03D078685B
:10274C0000F026F905E0786800F019F9786800F0D7
:10275C0028F97B6800221A77BB6803F00103002B71
:10276C000CD0FB6803F00103002B07D07B681B68BF
:10277C006FF001021A617868FEF704FCBB6803F085
:10278C008003002B0CD0FB6803F08003002B07D0D8
:10279C007B681B686FF080021A61786800F06FFA32
:1027AC00BB6803F04003002B0CD0FB6803F0400324
:1027BC00002B07D07B681B686FF040021A617868A9
:1027CC0000F0F8F8BB6803F02003002B0CD0FB687A
:1027DC0003F02003002B07D07B681B686FF02002EE
:1027EC001A61786800F042FA00BF1037BD4680BD10
:1027FC0080B584B000AF786039600023FB737B68D0
:10280C0093F83C30012B01D10223B4E07B68012208
:10281C0083F83C207B68022283F83D207B681B6890
:10282C009B68BB60BB6823F07703BB60BB6823F479
:10283C007F43BB607B681B68BA689A603B681B6807
:10284C00B3F5005F3ED0B3F5005F00F28780B3F5BF
:10285C00805F00F08680B3F5805F7FD8702B1AD034
:10286C00702B7BD8602B50D0602B77D8502B3CD062
:10287C00502B73D8402B58D0402B6FD8302B64D0B2
:10288C00302B6BD8202B60D0202B67D8002B5CD042
:10289C00102B5AD062E07B6818683B6899683B68DB
:1028AC005A683B68DB6800F06AF97B681B689B68B8
:1028BC00BB60BB6843F07703BB607B681B68BA687E
:1028CC009A604FE07B6818683B6899683B685A6867
:1028DC003B68DB6800F053F97B681B689A687B687F
:1028EC001B6842F480429A603CE07B6818683B6845
:1028FC0059683B68DB681A4600F0CAF87B681B68AD
:10290C005021184600F021F92CE07B6818683B68D0
:10291C0059683B68DB681A4600F0E8F87B681B686E
:10292C006021184600F011F91CE07B6818683B68C0
:10293C0059683B68DB681A4600F0AAF87B681B688C
:10294C004021184600F001F90CE07B681A683B68DE
:10295C001B681946104600F0F8F803E00123FB73DE
:10296C0000E000BF7B68012283F83D207B680022D9
:10297C0083F83C20FB7B18461037BD4680BD80B4E5
:10298C0083B000AF786000BF0C37BD4680BC704789
:10299C0080B483B000AF786000BF0C37BD4680BCFC
:1029AC00704780B483B000AF786000BF0C37BD4671
:1029BC0080BC704780B483B000AF786000BF0C3728
:1029CC00BD4680BC7047000080B485B000AF786015
:1029DC0039607B681B68FB607B682B4A934207D08D
:1029EC007B68B3F1804F03D07B68284A934208D1AF
:1029FC00FB6823F07003FB603B685B68FA68134369
:102A0C00FB607B68204A934207D07B68B3F1804F10
:102A1C0003D07B681D4A934208D1FB6823F44073B2
:102A2C00FB603B68DB68FA681343FB60FB6823F0D0
:102A3C0080023B685B691343FB607B68FA681A6031
:102A4C003B689A687B68DA623B681A687B689A62B2
:102A5C007B680D4A934203D13B681A697B681A6301
:102A6C007B6801225A617B681B6903F00103002B10
:102A7C0005D07B681B6923F001027B681A6100BFDB
:102A8C001437BD4680BC7047002C01400004004048
:102A9C0080B487B000AFF860B9607A60FB681B6ADD
:102AAC007B61FB681B6A23F00102FB681A62FB68FE
:102ABC009B693B613B6923F0F0033B617B681B0125
:102ACC003A6913433B617B6923F00A037B617A69A2
:102ADC00BB6813437B61FB683A699A61FB687A694E
:102AEC001A6200BF1C37BD4680BC704780B487B0EB
:102AFC0000AFF860B9607A60FB681B6A7B61FB68A9
:102B0C001B6A23F01002FB681A62FB689B693B612D
:102B1C003B6923F470433B617B681B033A691343A5
:102B2C003B617B6923F0A0037B61BB681B017A6965
:102B3C0013437B61FB683A699A61FB687A691A6294
:102B4C0000BF1C37BD4680BC704780B485B000AF59
:102B5C00786039607B689B68FB60FB6823F07003CE
:102B6C00FB603A68FB68134343F00703FB607B6828
:102B7C00FA689A6000BF1437BD4680BC704780B4B9
:102B8C0087B000AFF860B9607A603B60FB689B6807
:102B9C007B617B6923F47F437B613B681A027B6812
:102BAC001A43BB6813437A6913437B61FB687A69E8
:102BBC009A6000BF1C37BD4680BC704780B485B09E
:102BCC0000AF786039607B6893F83C30012B01D101
:102BDC00022341E07B68012283F83C207B680222BF
:102BEC0083F83D207B681B685B68FB607B681B6817
:102BFC009B68BB60FB6823F07003FB603B681B6841
:102C0C00FA681343FB607B681B68FA685A607B6840
:102C1C001B68144A934209D07B681B68B3F1804F40
:102C2C0004D07B681B68104A93420CD1BB6823F01C
:102C3C008003BB603B685B68BA681343BB607B680E
:102C4C001B68BA689A607B68012283F83D207B6818
:102C5C00002283F83C20002318461437BD4680BC64
:102C6C00704700BF002C01400004004080B483B0CA
:102C7C0000AF786000BF0C37BD4680BC704780B495
:102C8C0083B000AF786000BF0C37BD4680BC704786
:102C9C00014B1868704700BF6000002070B500261B
:102CAC000C4D0D4C641BA410A64209D100F0F6F893
:102CBC0000260A4D0A4C641BA410A64205D170BD17
:102CCC0055F8043B98470136EEE755F8043B984716
:102CDC000136F2E7E42E0008E42E0008E42E00088A
:102CEC00E82E0008024B0146186800F05FB800BFE0
:102CFC0060000020024B0146186800F00BB800BFC2
:102D0C006000002003460244934200D1704703F850
:102D1C00011BF9E738B50546002943D051F8043CAE
:102D2C000C1F002BB8BFE41800F0AAF81E4A136859
:102D3C00104633B9636014602846BDE8384000F093
:102D4C00A5B8A3420AD921686218934201BF1A6838
:102D5C005B685218226063600460EDE71A465B689A
:102D6C000BB1A342FAD911685018A0420BD12068BC
:102D7C000144501883421160DED118685B6801442D
:102D8C0011605360D8E702D90C232B60D4E720687C
:102D9C0021188B4201BF19685B68091821606360B8
:102DAC005460C9E738BD00BF0C010020F8B5CD1C3C
:102DBC0025F0030508350C2D38BF0C25002D0646D3
:102DCC0001DBA94203D90C2333600020F8BD00F0CD
:102DDC0057F821490A6814469CB9204F3B6823B91F
:102DEC002146304600F03CF838602946304600F069
:102DFC0037F8431C23D10C233046336000F046F8DF
:102E0C00E3E723685B1B17D40B2B03D923601C440B
:102E1C00256004E06368A2420CBF0B60536030462F
:102E2C0000F034F804F10B00231D20F00700C21A47
:102E3C00CCD01B1AA350C9E722466468CCE7C41C4B
:102E4C0024F00304A042E3D0211A304600F008F825
:102E5C000130DDD1CFE700BF0C01002010010020B4
:102E6C0038B50023054D044608462B60FEF79AFA48
:102E7C00431C02D12B6803B1236038BD6C010020C8
:102E8C00014800F009B800BF74010020014800F0AF
:102E9C0004B800BF7401002070477047F8B500BF3C
:102EAC00F8BC08BC9E467047F8B500BFF8BC08BC1F
:042EBC009E46704777
:102EC00000000000000000000102030406070809DA
:102ED00002030405060708090A0B0C0D0E0F10105B
:042EE00001020000EB
:042EE40031010008B0
:042EE8000D010008D0
:102EEC0001000000010000000100000001000000D2
:102EFC00C8000000010000000100000001000000FB
:102F0C0001000000C80000000100000001000000EA
:102F1C000100000001000000C80000008813000040
:102F2C00B80B0000D007000088130000B80B00009D
:102F3C00D007000000127A00100000000100000011
:102F4C0064000020000000000000000000000000F1
:102F5C000000000000000000000000000000000065
:102F6C000000000000000000000000000000000055
:102F7C000000000000000000000000000000000045
:102F8C000000000000000000000000000000000035
:102F9C000000000000000000000000000000000025
:042FAC000000000021
:040000050800167D5C
:00000001FF
