:020000040800F2
:100000000028002025130008611000086710000870
:100010006D1000087310000879100008000000003F
:100020000000000000000000000000007F10000839
:100030008B1000080000000097100008A3100008B3
:100040006D1300086D1300086D1300086D13000890
:100050006D1300086D1300086D1300086D13000880
:100060006D1300086D1300086D1300086D13000870
:100070006D1300086D1300086D1300086D13000860
:100080006D1300086D1300086D1300086D13000850
:100090006D1300086D1300086D1300086D13000840
:1000A0006D1300086D1300086D1300086D13000830
:1000B000B11000086D130008000000006D13000867
:1000C0006D13000800000000000000006D13000820
:1000D000000000006D1300086D1300080000000010
:1000E0006D1300086D1300086D1300080000000078
:1000F0000000000000000000000000000000000000
:0C01000000000000000000005FF808F1A3
:10010C0010B5054C237833B9044B13B10448AFF345
:10011C0000800123237010BD60000020000000004F
:10012C009C29000808B5034B1BB103490348AFF3E6
:10013C00008008BD00000000640000209C2900081D
:10014C0080B483B000AF786039607B685A003B683C
:10015C000F4981FB03018910DB17CB1A0D4941F8BC
:10016C0022307B685B00581C3968094B83FB0123E8
:10017C009A10CB17D21A13469B0013445B00CA1A71
:10018C00044B43F8202000BF0C37BD4680BC7047A1
:10019C00676666667C00002080B582B000AF786030
:1001AC007B68032B6AD801A252F823F0C90100081E
:1001BC00F9010008290200085902000800228021D8
:1001CC00344801F0D0FB01224FF48071314801F02A
:1001DC00CAFB01224FF400712E4801F0C4FB01222E
:1001EC004FF480612B4801F0BEFB48E001228021D6
:1001FC00284801F0B8FB00224FF48071254801F02B
:10020C00B2FB01224FF40071224801F0ACFB012239
:10021C004FF480611F4801F0A6FB30E001228021E1
:10022C001C4801F0A0FB01224FF48071194801F029
:10023C009AFB00224FF40071164801F094FB012246
:10024C004FF48061134801F08EFB18E001228021ED
:10025C00104801F088FB01224FF480710D4801F029
:10026C0082FB01224FF400710A4801F07CFB002252
:10027C004FF48061074801F076FB00E000BF064AAE
:10028C007B6852F82330184600F008F800BF083796
:10029C00BD4680BD000C01407C00002080B582B0C2
:1002AC0000AF78607B68092B00F2808101A252F8C4
:1002BC0023F000BFE90200083103000879030008AD
:1002CC00C10300080904000851040008990400083F
:1002DC00E10400082905000871050008002201212D
:1002EC00B54801F040FB00220221B34801F03BFB72
:1002FC0000220421B04801F036FB00220821AE4850
:10030C0001F031FB00221021AB4801F02CFB002244
:10031C002021A94801F027FB01224021A64801F029
:10032C0022FB44E101220121A34801F01CFB002225
:10033C000221A14801F017FB002204219E4801F084
:10034C0012FB012208219C4801F00DFB0122102117
:10035C00994801F008FB01222021974801F003FB8A
:10036C0001224021944801F0FEFA20E100220121F3
:10037C00914801F0F8FA002202218F4801F0F3FABB
:10038C00012204218C4801F0EEFA002208218A484F
:10039C0001F0E9FA00221021874801F0E4FA012269
:1003AC002021854801F0DFFA00224021824801F02B
:1003BC00DAFAFCE0002201217F4801F0D4FA002295
:1003CC0002217D4801F0CFFA002204217A4801F085
:1003DC00CAFA00220821784801F0C5FA012210213E
:1003EC00754801F0C0FA01222021734801F0BBFAD4
:1003FC0000224021704801F0B6FAD8E00122012118
:10040C006D4801F0B0FA002202216B4801F0ABFA02
:10041C0000220421684801F0A6FA0122082166484E
:10042C0001F0A1FA01221021634801F09CFA00228C
:10043C002021614801F097FA002240215E4801F02A
:10044C0092FAB4E0002201215B4801F08CFA0122FF
:10045C000221594801F087FA00220421564801F084
:10046C0082FA00220821544801F07DFA0122102161
:10047C00514801F078FA002220214F4801F073FA1C
:10048C00002240214C4801F06EFA90E0002201213C
:10049C00494801F068FA01220221474801F063FA49
:1004AC0000220421444801F05EFA0022082142484F
:1004BC0001F059FA002210213F4801F054FA0022B1
:1004CC0020213D4801F04FFA002240213A4801F02A
:1004DC004AFA6CE000220121374801F044FA00226C
:1004EC000221354801F03FFA00220421324801F084
:1004FC003AFA01220821304801F035FA0122102184
:10050C002D4801F030FA012220212B4801F02BFA62
:10051C0001224021284801F026FA48E0002201215E
:10052C00254801F020FA00220221234801F01BFA91
:10053C0000220421204801F016FA002208211E484E
:10054C0001F011FA002210211B4801F00CFA0022D4
:10055C002021194801F007FA00224021164801F029
:10056C0002FA24E000220121134801F0FCF90022D8
:10057C000221114801F0F7F9002204210E4801F084
:10058C00F2F9002208210C4801F0EDF901221021AA
:10059C00094801F0E8F900222021074801F0E3F9AD
:1005AC0000224021044801F0DEF900E000BF00BF4A
:1005BC000837BD4680BD00BF000C014080B400AFC1
:1005CC00064B1B68012B04D1044B00221A6001233B
:1005DC0000E000231846BD4680BC70478C0000200C
:1005EC0080B400AF064B1B68012B04D1044B0022D6
:1005FC001A60012300E000231846BD4680BC7047FA
:10060C009000002080B400AF064B1B68012B04D176
:10061C00044B00221A60012300E000231846BD465B
:10062C0080BC70479400002080B500AF5D4B5B68C8
:10063C005C4A13605B4B9B685A4A53604FF4807161
:10064C00594801F079F903461A46564B9A60554BB6
:10065C001A68544B5B689A4226D1524B5A68514BDC
:10066C009B689A4220D14F4BDA684E4B9B689A425A
:10067C000ED04C4B9B684B4AD3604A4B9B68002B6B
:10068C0012D14A4B01221A60494BC8221A600BE066
:10069C00474B1B68013B464A1360454B1B68002BBC
:1006AC0002DC404B0122DA60424B5B68414A13602A
:1006BC00404B9B683F4A53604FF400713A4801F03D
:1006CC003BF903461A463B4B9A603A4B1A68394B36
:1006DC005B689A4226D1374B5A68364B9B689A42D4
:1006EC0020D1344BDA68334B9B689A420ED0314B95
:1006FC009B68304AD3602F4B9B68002B12D12E4B3A
:10070C0001221A602D4BC8221A600BE02B4B1B6880
:10071C00013B2A4A1360294B1B68002B02DC254B3A
:10072C000122DA60264B5B68254A1360244B9B68D8
:10073C00234A53604FF480611B4801F0FDF80346D7
:10074C001A461F4B9A601E4B1A681D4B5B689A42E7
:10075C0026D11B4B5A681A4B9B689A4220D1184BD6
:10076C00DA68174B9B689A420ED0154B9B68144A5B
:10077C00D360134B9B68002B12D1124B01221A60D1
:10078C00114BC8221A600BE00F4B1B68013B0E4A41
:10079C0013600D4B1B68002B02DC094B0122DA6045
:1007AC0000BF80BD00000020000801408C0000202C
:1007BC0010000020140000209000002024000020D5
:1007CC0028000020940000203800002080B582B062
:1007DC0000AF00237B60ADE05B4A7B6852F82330AE
:1007EC00032B00F29D8001A252F823F009080008A7
:1007FC0067080008A9080008EB0800087B68002BB4
:10080C0004D1514A7B68012142F823107B68012BEB
:10081C0004D14D4A7B68022142F823104A4A7B6876
:10082C0052F82330013B494A52F823301946786874
:10083C0000F06AFB444A7B6852F82330013B434A80
:10084C0052F82330424A82FB03129211DB17D31A5F
:10085C0019467868FFF774FC69E0786800F056FC7C
:10086C003C4A7B6852F82330012B5BD1364A7B68BB
:10087C00022142F82310354B5B681946786800F06A
:10088C0043FB324B5B68324A82FB03129211DB173B
:10089C00D31A19467868FFF753FC43E0786800F0E8
:1008AC0069FC2C4A7B6852F82330012B3CD1264A38
:1008BC007B68032142F82310244B9B681946786807
:1008CC0000F022FB214B9B68214A82FB0312921100
:1008DC00DB17D31A19467868FFF732FC24E07868E6
:1008EC0000F07CFC1B4A7B6852F82330012B1DD195
:1008FC00154A7B68012142F82310144B1B681946DA
:10090C00786800F001FB114B1B68114A82FB031243
:10091C009211DB17D31A19467868FFF711FC05E022
:10092C0000BF04E000BF02E000BF00E000BF7B6836
:10093C0001337B607B68012B7FF74EAF00BF00BF9C
:10094C000837BD4680BD00BF9C0000204800002039
:10095C00D34D6210A400002080B500AF1A4B1B6869
:10096C000D2B1CD00D2B25DC0B2B02D00C2B0BD004
:10097C0020E0164B1B68012B1ED100F063FCFA2102
:10098C00002000F0C1FA17E0104B1B68012B15D1A9
:10099C0000F09CFCFA21002000F0B6FA0EE00B4BA4
:1009AC001B68012B0CD100F06FFCFA21002000F029
:1009BC00ABFA05E000BF04E000BF02E000BF00E0BE
:1009CC0000BF00BF80BD00BF9C000020A400002021
:1009DC0080B584B000AFB34B9B68012B12D1B24BE6
:1009EC001B685A1CB0490A601846FFF7D5FBAE4B82
:1009FC001B68032B02DDAC4B00221A60FA2102208B
:100A0C0000F082FAA94B1B68092B27DCA54BDB688D
:100A1C00012B23D10023FB6018E0FB685B00A44A88
:100A2C0052F8232013469B0013445B001946FB68C5
:100A3C005B0001339E4A52F823300B44013B1946AC
:100A4C00F868FFF77DFBFB680133FB60FB68012B4B
:100A5C00E3DD4FF47A71032000F056FA934B1B68D8
:100A6C000A2B70DDFFF7BCFD0346002B52D08F4BD9
:100A7C001B680D2B36D00D2B4EDC0B2B02D00C2B08
:100A8C0018D049E08B4B1B688B4A934205DC894B91
:100A9C001B6803F57A73874A1360864B1B68874A79
:100AAC0082FB03129211DB17D31A19460020FFF7B1
:100ABC0047FB32E07F4B5B687F4A934205DC7D4B02
:100ACC005B6803F57A737B4A53607A4B5B687B4AAD
:100ADC0082FB03129211DB17D31A19460020FFF781
:100AEC002FFB1AE0734B9B68734A934205DC714BE6
:100AFC009B6803F57A736F4A93606E4B9B686F4AE1
:100B0C0082FB03129211DB17D31A19460020FFF750
:100B1C0017FB02E000BF00E000BFFFF773FD0346C8
:100B2C00002B10D00023BB600AE0624ABB6852F86D
:100B3C0023206349BB6841F82320BB680133BB60A9
:100B4C00BB68022BF1DDFFF739FD0346002B00F0EB
:100B5C00BA80564B1B680A2B71DD544B1B680D2B4E
:100B6C003DD00D2B00F3AE800B2B02D00C2B1BD0E9
:100B7C00A8E04E4B0C221A604C4B0C225A604D4B89
:100B8C005B684E4A82FB03129211DB17D31A19468B
:100B9C000020FFF7D5FA03210120FFF7D1FAFA2143
:100BAC00002000F0B1F98EE0404B0D221A603F4B53
:100BBC000D225A603F4B9B68404A82FB03129211F4
:100BCC00DB17D31A19460020FFF7BAFA04210120CB
:100BDC00FFF7B6FAFA21002000F096F973E0334BD8
:100BEC0001221A60314B02225A60354B1B68334A82
:100BFC0082FB03129211DB17D31A19460020FFF760
:100C0C009FFA2F4B5B682D4A82FB03129211DB1764
:100C1C00D31A19460120FFF793FA294B1B68194682
:100C2C00002000F071F9264B5B681946012000F09A
:100C3C006BF94FF47A71032000F066F943E01B4B1B
:100C4C001B68092B3FDC00237B600AE01C4A7B6895
:100C5C0052F8232017497B6841F823207B68013325
:100C6C007B607B68022BF1DD104B0B221A600F4B63
:100C7C000B225A6000F026FA0E4B1B680F4A82FBBF
:100C8C0003129211DB17D31A19460020FFF758FAFA
:100C9C0002210120FFF754FAFA21002000F034F968
:100CAC0011E000BFA4000020980000209C00002050
:100CBC007C0000203C000020B7820100D34D621064
:100CCC004800002000BF00BF1037BD4680BD00BFEC
:100CDC0080B500AF00F046FB00F01AF800F0A0F869
:100CEC0000F052F8094801F09BFAFA21022000F0BA
:100CFC000BF94FF47A71032000F006F9FFF766FD4B
:100D0C00FFF72AFEFFF764FEF8E700BFC4000020DF
:100D1C0080B590B000AF07F11803282200211846C7
:100D2C0001F02EFE3B1D00221A605A609A60DA60B8
:100D3C001A610223BB610123BB621023FB620023F7
:100D4C007B6307F11803184600F03EFE0346002BA8
:100D5C0001D000F0D3F80F237B600023BB6000238D
:100D6C00FB6000233B6100237B613B1D0021184687
:100D7C0001F0AAF80346002B01D000F0BFF800BF29
:100D8C004037BD4680BD000080B586B000AF07F18E
:100D9C00080300221A605A609A60DA603B4600220F
:100DAC001A605A601D4B4FF080421A601B4B41F683
:100DBC003F725A60194B00229A60184B0922DA6074
:100DCC00164B00221A61154B00229A61134801F050
:100DDC00D7F90346002B01D000F090F84FF4805364
:100DEC00BB6007F1080319460C4801F055FB03469C
:100DFC00002B01D000F082F800233B6000237B60C5
:100E0C003B461946054801F02DFD0346002B01D049
:100E1C0000F074F800BF1837BD4680BDC400002038
:100E2C0080B586B000AF07F1080300221A605A6043
:100E3C009A60DA60284B9B69274A43F0040393615C
:100E4C00254B9B6903F004037B607B68224B9B69F9
:100E5C00214A43F0080393611F4B9B6903F008037D
:100E6C003B603B680022FC211C4800F07CFD00220A
:100E7C0040F2FF711A4800F076FDFC23BB600123A1
:100E8C00FB6000233B6102237B6107F108031946D9
:100E9C00124800F0D7FB40F2FF73BB600123FB60EC
:100EAC0000233B6102237B6107F1080319460C48C0
:100EBC0000F0C8FB4FF4E063BB600023FB60012330
:100ECC003B6107F108031946044800F0BBFB00BF67
:100EDC001837BD4680BD00BF00100240000801401D
:100EEC00000C014080B582B000AF786000F02CF8A7
:100EFC00FFF79AFB00BF0837BD4680BD80B400AF3A
:100F0C0072B600BFFEE7000080B483B000AF78601B
:100F1C0039600A4A7B68002142F823103B68084A72
:100F2C0082FB03129210DB17D21A06497B6841F838
:100F3C00232000BF0C37BD4680BC7047A4000020A6
:100F4C0067666666B400002080B483B000AF0023EF
:100F5C007B601CE0124A7B6852F82330002B13DDB7
:100F6C000F4A7B6852F823305A1E0D497B6841F8B2
:100F7C0023200B4A7B6852F82330002B04DC094AEF
:100F8C007B68012142F823107B6801337B607B680E
:100F9C00032BDFDD00BF00BF0C37BD4680BC7047A4
:100FAC00B4000020A400002080B485B000AF154B25
:100FBC009B69144A43F001039361124B9B6903F044
:100FCC000103BB60BB680F4BDB690E4A43F08053D7
:100FDC00D3610C4BDB6903F080537B607B680A4B5D
:100FEC005B68FB60FB6823F0E063FB60FB6843F02D
:100FFC008063FB60044AFB68536000BF1437BD4636
:10100C0080BC7047001002400000014080B584B0E5
:10101C0000AF78607B681B68B3F1804F13D10C4B29
:10102C00DB690B4A43F00103D361094BDB6903F025
:10103C000103FB60FB68002200211C2000F0CBFAAE
:10104C001C2000F0E4FA00BF1037BD4680BD00BF85
:10105C000010024080B400AFFEE780B400AFFEE7A2
:10106C0080B400AFFEE780B400AFFEE780B400AF01
:10107C00FEE780B400AF00BFBD4680BC704780B4B3
:10108C0000AF00BFBD4680BC704780B400AF00BF4E
:10109C00BD4680BC704780B500AF00F0A9F900BF19
:1010AC0080BD000080B500AF024801F005F900BF1B
:1010BC0080BD00BFC400002080B400AF00BFBD469F
:1010CC0080BC704780B500AF002204210E4800F0B0
:1010DC004AFC002208210C4800F045FC002210219B
:1010EC00094800F040FC00222021074800F03BFC9E
:1010FC0000224021044800F036FC002280210248E6
:10110C0000F031FC00BF80BD0008014080B582B00A
:10111C0000AF78607A6813465B001344042202FA2D
:10112C0003F39BB201221946114800F01CFC7A68AB
:10113C0013465B0013440133042202FA03F39BB2FF
:10114C00002219460A4800F00EFC7A6813465B0030
:10115C0013440233042202FA03F39BB20022194611
:10116C00034800F000FC00BF0837BD4680BD00BF3F
:10117C000008014080B582B000AF78607A681346F1
:10118C005B001344042202FA03F39BB200221946BB
:10119C00114800F0E8FB7A6813465B0013440133F6
:1011AC00042202FA03F39BB2002219460A4800F00B
:1011BC00DAFB7A6813465B0013440233042202FA0A
:1011CC0003F39BB201221946034800F0CCFB00BF8D
:1011DC000837BD4680BD00BF0008014080B582B015
:1011EC0000AF78607A6813465B001344042202FA5D
:1011FC0003F39BB200221946114800F0B4FB7A6845
:10120C0013465B0013440133042202FA03F39BB22E
:10121C00012219460A4800F0A6FB7A6813465B00C7
:10122C0013440233042202FA03F39BB20022194640
:10123C00034800F098FB00BF0837BD4680BD00BFD7
:10124C000008014080B500AF04210E4800F0A3FB5C
:10125C00002208210B4800F086FB002210210948CF
:10126C0000F081FB2021074800F095FB0022402173
:10127C00044800F078FB00228021024800F073FB48
:10128C0000BF80BD0008014080B500AF00220421E2
:10129C000D4800F068FB08210B4800F07CFB002295
:1012AC001021094800F05FFB00222021064800F0C5
:1012BC005AFB4021044800F06EFB002280210248BA
:1012CC0000F051FB00BF80BD0008014080B582B02A
:1012DC0000AF7860002204210E4800F044FB00228D
:1012EC0008210C4800F03FFB10210A4800F053FB8A
:1012FC0000222021074800F036FB0022402105483F
:10130C0000F031FB8021034800F045FB00BF08379B
:10131C00BD4680BD00080140FFF7CEFE0B480C49CE
:10132C000C4A002302E0D458C4500433C4188C4235
:10133C00F9D3094A094C002301E013600432A2429C
:10134C00FBD301F0F9FAFFF7C3FC70470000002053
:10135C0060000020E029000860000020100100203F
:10136C00FEE7000080B500AF084B1B68074A43F04E
:10137C0010031360032000F023F90F2000F008F88D
:10138C00FFF712FE0023184680BD00BF002002406C
:10139C0080B582B000AF7860124B1A68124B1B7884
:1013AC0019464FF47A73B3FBF1F3B2FBF3F318461F
:1013BC0000F03BF90346002B01D001230EE07B68C3
:1013CC000F2B0AD8002279684FF0FF3000F003F998
:1013DC00064A7B681360002300E001231846083797
:1013EC00BD4680BD540000205C0000205800002049
:1013FC0080B400AF054B1B781A46054B1B68134491
:10140C00034A136000BFBD4680BC70475C000020DF
:10141C000C01002080B400AF024B1B681846BD467F
:10142C0080BC70470C01002080B485B000AF7860A0
:10143C007B6803F00703FB600C4BDB68BB60BA688E
:10144C004FF6FF031340BB60FB681A02BB681343E3
:10145C0043F0BF6343F40033BB60044ABB68D36002
:10146C0000BF1437BD4680BC704700BF00ED00E0E4
:10147C0080B400AF044BDB681B0A03F0070318466B
:10148C00BD4680BC704700BF00ED00E080B483B067
:10149C0000AF0346FB7197F90730002B0BDBFB7990
:1014AC0003F01F02064997F907305B09012000FA87
:1014BC0002F241F8232000BF0C37BD4680BC7047B8
:1014CC0000E100E080B483B000AF03463960FB71EB
:1014DC0097F90730002B0ADB3B68DAB20C4997F915
:1014EC0007301201D2B20B4483F800230AE03B68A8
:1014FC00DAB20849FB7903F00F03043B1201D2B2B4
:10150C000B441A7600BF0C37BD4680BC704700BF39
:10151C0000E100E000ED00E080B489B000AFF860BD
:10152C00B9607A60FB6803F00703FB61FB69C3F1E8
:10153C000703042B28BF0423BB61FB690433062B70
:10154C0002D9FB69033B00E000237B614FF0FF32C3
:10155C00BB6902FA03F3DA43BB681A407B699A4011
:10156C004FF0FF317B6901FA03F3D9437B680B40E1
:10157C00134318462437BD4680BC704780B582B0F3
:10158C0000AF78607B68013BB3F1807F01D301230E
:10159C000FE00A4A7B68013B53600F214FF0FF308C
:1015AC00FFF790FF054B00229A60044B07221A604C
:1015BC00002318460837BD4680BD00BF10E000E090
:1015CC0080B582B000AF78607868FFF72DFF00BF60
:1015DC000837BD4680BD80B586B000AF0346B96004
:1015EC007A60FB7300237B61FFF742FF78617A68B6
:1015FC00B9687869FFF790FF024697F90F301146EA
:10160C001846FFF75FFF00BF1837BD4680BD80B599
:10161C0082B000AF0346FB7197F907301846FFF70D
:10162C0035FF00BF0837BD4680BD80B582B000AF26
:10163C0078607868FFF7A2FF034618460837BD4666
:10164C0080BD000080B48BB000AF7860396000239F
:10165C007B6200233B6248E101227B6A02FA03F3BE
:10166C00FB613B681B68FA691340BB61BA69FB6993
:10167C009A4240F037813B685B68A34A93425ED044
:10168C00A14A934275D8A14A934258D09F4A93429B
:10169C006FD89F4A934252D09D4A934269D89D4A33
:1016AC0093424CD09B4A934263D89B4A934246D078
:1016BC00994A93425DD8122B2AD8122B59D801A2E1
:1016CC0052F823F04B1700082517000837170008AD
:1016DC00791700087F1700087F1700087F1700088C
:1016EC007F1700087F1700087F1700087F17000876
:1016FC007F1700087F1700087F1700087F17000866
:10170C007F1700087F1700082D17000841170008E5
:10171C00824A934213D02CE03B68DB683B6229E0A1
:10172C003B68DB6804333B6224E03B68DB680833CE
:10173C003B621FE03B68DB680C333B621AE03B68A2
:10174C009B68002B02D104233B6213E03B689B682F
:10175C00012B05D108233B627B68FA691A6109E009
:10176C0008233B627B68FA695A6103E000233B6201
:10177C0000E000BFBB69FF2B01D87B6801E07B68F0
:10178C0004337B61BB69FF2B02D87B6A9B0002E0B0
:10179C007B6A083B9B003B617B691A680F213B69A4
:1017AC0001FA03F3DB431A40396A3B6901FA03F38C
:1017BC001A437B691A603B685B6803F08053002B0B
:1017CC0000F09080564B9B69554A43F0010393619E
:1017DC00534B9B6903F00103BB60BB68514A7B6AA6
:1017EC009B08023352F82330FB607B6A03F003033F
:1017FC009B000F2202FA03F3DB43FA681340FB60F1
:10180C007B68494A93420DD07B68484A934207D083
:10181C007B68474A934201D1022304E0032302E090
:10182C00012300E000237A6A02F003029200934045
:10183C00FA681343FB603B497B6A9B080233FA68E6
:10184C0041F823203B685B6803F48013002B06D01F
:10185C00384B9A683749BB6913438B6006E0354BAC
:10186C009A68BB69DB43334913408B603B685B6808
:10187C0003F40013002B06D02E4BDA682D49BB69FC
:10188C001343CB6006E02B4BDA68BB69DB43294979
:10189C001340CB603B685B6803F40033002B06D02D
:1018AC00244B5A682349BB6913434B6006E0214B18
:1018BC005A68BB69DB431F4913404B603B685B684C
:1018CC0003F48033002B06D01A4B1A681949BB69F4
:1018DC0013430B6006E0174B1A68BB69DB431549D1
:1018EC0013400B607B6A01337B623B681A687B6A2E
:1018FC0022FA03F3002B7FF4AFAE00BF00BF2C37EE
:10190C00BD4680BC704700BF000032100000311093
:10191C000000221000002110000012100000111015
:10192C00001002400000014000080140000C014082
:10193C00001001400004014080B485B000AF786015
:10194C000B467B807B689A687B881340002B02D007
:10195C000123FB7301E00023FB73FB7B1846143758
:10196C00BD4680BC704780B483B000AF78600B4636
:10197C007B8013467B707B78002B03D07A887B6846
:10198C001A6103E07B881A047B681A6100BF0C376C
:10199C00BD4680BC704780B485B000AF78600B4604
:1019AC007B807B68DB68FB607A88FB6813401A04D9
:1019BC00FB68D9437B880B401A437B681A6100BFD4
:1019CC001437BD4680BC704780B586B000AF7860D8
:1019DC007B68002B01D101236CE27B681B6803F050
:1019EC000103002B00F08780924B5B6803F00C0323
:1019FC00042B0CD08F4B5B6803F00C03082B12D11B
:101A0C008C4B5B6803F48033B3F5803F0BD1894B6F
:101A1C001B6803F40033002B6CD07B685B68002BD5
:101A2C0068D1012346E27B685B68B3F5803F06D141
:101A3C00804B1B687F4A43F4803313602EE07B6835
:101A4C005B68002B0CD17B4B1B687A4A23F48033E8
:101A5C001360784B1B68774A23F4802313601DE0D6
:101A6C007B685B68B3F5A02F0CD1724B1B68714A75
:101A7C0043F4802313606F4B1B686E4A43F480332E
:101A8C0013600BE06B4B1B686A4A23F480331360C2
:101A9C00684B1B68674A23F4802313607B685B6880
:101AAC00002B13D0FFF7B6FC386108E0FFF7B2FC4F
:101ABC0002463B69D31A642B01D90323FAE15D4B2F
:101ACC001B6803F40033002BF0D014E0FFF7A2FCEA
:101ADC00386108E0FFF79EFC02463B69D31A642B81
:101AEC0001D90323E6E1534B1B6803F40033002BAD
:101AFC00F0D100E000BF7B681B6803F00203002BF1
:101B0C0063D04C4B5B6803F00C03002B0BD0494BA0
:101B1C005B6803F00C03082B1CD1464B5B6803F489
:101B2C008033002B16D1434B1B6803F00203002BB0
:101B3C0005D07B681B69012B01D00123BAE13D4B19
:101B4C001B6823F0F8027B685B69DB00394913439F
:101B5C000B603AE07B681B69002B20D0364B0122CE
:101B6C001A60FFF757FC386108E0FFF753FC024698
:101B7C003B69D31A022B01D903239BE12D4B1B6824
:101B8C0003F00203002BF0D02A4B1B6823F0F80261
:101B9C007B685B69DB00274913430B6015E0264B20
:101BAC0000221A60FFF736FC386108E0FFF732FCC0
:101BBC0002463B69D31A022B01D903237AE11D4B50
:101BCC001B6803F00203002BF0D17B681B6803F049
:101BDC000803002B3AD07B689B69002B19D0174B5C
:101BEC0001221A60FFF716FC386108E0FFF712FCBF
:101BFC0002463B69D31A022B01D903235AE10D4B40
:101C0C005B6A03F00203002BF0D0012000F09AFA7B
:101C1C001CE00A4B00221A60FFF7FCFB38610FE056
:101C2C00FFF7F8FB02463B69D31A022B08D90323B2
:101C3C0040E100BF001002400000424280044242DA
:101C4C009E4B5B6A03F00203002BE9D17B681B6897
:101C5C0003F00403002B00F0A6800023FB75974BC8
:101C6C00DB6903F08053002B0DD1944BDB69934A55
:101C7C0043F08053D361914BDB6903F08053BB601D
:101C8C00BB680123FB758E4B1B6803F48073002B20
:101C9C0018D18B4B1B688A4A43F480731360FFF78F
:101CAC00B9FB386108E0FFF7B5FB02463B69D31A74
:101CBC00642B01D90323FDE0814B1B6803F4807373
:101CCC00002BF0D07B68DB68012B06D17B4B1B6AA9
:101CDC007A4A43F0010313622DE07B68DB68002B2A
:101CEC000CD1764B1B6A754A23F001031362734BBC
:101CFC001B6A724A23F0040313621CE07B68DB68E6
:101D0C00052B0CD16D4B1B6A6C4A43F00403136218
:101D1C006A4B1B6A694A43F0010313620BE0674B81
:101D2C001B6A664A23F001031362644B1B6A634A05
:101D3C0023F0040313627B68DB68002B15D0FFF7DC
:101D4C0069FB38610AE0FFF765FB02463B69D31A71
:101D5C0041F28832934201D90323ABE0574B1B6A03
:101D6C0003F00203002BEED014E0FFF753FB3861B5
:101D7C000AE0FFF74FFB02463B69D31A41F2883267
:101D8C00934201D9032395E04C4B1B6A03F00203E9
:101D9C00002BEED1FB7D012B05D1484BDB69474A6B
:101DAC0023F08053D3617B68DB69002B00F08180CA
:101DBC00424B5B6803F00C03082B61D07B68DB693A
:101DCC00022B46D13F4B00221A60FFF723FB3861F0
:101DDC0008E0FFF71FFB02463B69D31A022B01D91F
:101DEC00032367E0354B1B6803F00073002BF0D125
:101DFC007B681B6AB3F5803F08D1304B5B6823F4DA
:101E0C0000327B689B682D4913434B602B4B5B68FE
:101E1C0023F474127B68196A7B685B6A0B4327494D
:101E2C0013434B60274B01221A60FFF7F3FA38611A
:101E3C0008E0FFF7EFFA02463B69D31A022B01D9EF
:101E4C00032337E01D4B1B6803F00073002BF0D00D
:101E5C002FE01C4B00221A60FFF7DCFA386108E017
:101E6C00FFF7D8FA02463B69D31A022B01D9032398
:101E7C0020E0124B1B6803F00073002BF0D118E02C
:101E8C007B68DB69012B01D1012313E00B4B5B68F1
:101E9C00FB60FB6803F480327B681B6A9A4206D1B4
:101EAC00FB6803F470127B685B6A9A4201D00123D1
:101EBC0000E0002318461837BD4680BD00100240D4
:101ECC00007000406000424280B584B000AF786082
:101EDC0039607B68002B01D10123D0E06A4B1B6871
:101EEC0003F007033A689A4210D9674B1B6823F03A
:101EFC00070265493B6813430B60634B1B6803F097
:101F0C0007033A689A4201D00123B8E07B681B684A
:101F1C0003F00203002B20D07B681B6803F0040342
:101F2C00002B05D0594B5B68584A43F4E06353606F
:101F3C007B681B6803F00803002B05D0534B5B68D0
:101F4C00524A43F460535360504B5B6823F0F002E9
:101F5C007B689B684D4913434B607B681B6803F09F
:101F6C000103002B40D07B685B68012B07D1474BEA
:101F7C001B6803F40033002B15D101237FE07B6831
:101F8C005B68022B07D1414B1B6803F00073002BDD
:101F9C0009D1012373E03D4B1B6803F00203002BB6
:101FAC0001D101236BE0394B5B6823F003027B68A2
:101FBC005B68364913434B60FFF72CFAF8600AE074
:101FCC00FFF728FA0246FB68D31A41F28832934293
:101FDC0001D9032353E02D4B5B6803F00C027B68A3
:101FEC005B689B009A42EBD1274B1B6803F00703FD
:101FFC003A689A4210D2244B1B6823F007022249FC
:10200C003B6813430B60204B1B6803F007033A68D3
:10201C009A4201D0012332E07B681B6803F0040371
:10202C00002B08D0194B5B6823F4E0627B68DB68FB
:10203C00164913434B607B681B6803F00803002BA5
:10204C0009D0124B5B6823F460527B681B69DB0080
:10205C000E4913434B6000F021F802460B4B5B68B2
:10206C001B0903F00F030A49CB5C22FA03F3094A5C
:10207C001360094B1B681846FFF78AF900231846B2
:10208C001037BD4680BD00BF00200240001002404A
:10209C00B4290008540000205800002080B487B0F8
:1020AC0000AF0023FB600023BB6000237B61002397
:1020BC007B6000233B611E4B5B68FB60FB6803F09D
:1020CC000C03042B02D0082B03D027E0194B3B61E7
:1020DC0027E0FB689B0C03F00F03174AD35C7B6073
:1020EC00FB6803F48033002B10D0114B5B685B0C46
:1020FC0003F00103114AD35CBB607B680D4A02FB01
:10210C0003F2BB68B2FBF3F37B6104E07B680C4A1F
:10211C0002FB03F37B617B693B6102E0054B3B6196
:10212C0000BF3B6918461C37BD4680BC704700BFDA
:10213C000010024000127A00C4290008D4290008BB
:10214C0000093D0080B485B000AF78600A4B1B6875
:10215C000A4AA2FB03235B0A7A6802FB03F3FB60C7
:10216C0000BFFB685A1EFA60002BF9D100BF00BFFC
:10217C001437BD4680BC704754000020D34D62100C
:10218C0080B582B000AF78607B68002B01D1012351
:10219C0041E07B6893F83D30DBB2002B06D17B68C5
:1021AC00002283F83C207868FEF730FF7B6802221F
:1021BC0083F83D207B681A687B6804331946104607
:1021CC0000F056FA7B68012283F846207B680122D6
:1021DC0083F83E207B68012283F83F207B68012234
:1021EC0083F840207B68012283F841207B68012220
:1021FC0083F842207B68012283F843207B6801220C
:10220C0083F844207B68012283F845207B680122F7
:10221C0083F83D20002318460837BD4680BD0000DA
:10222C0080B485B000AF78607B6893F83D30DBB24A
:10223C00012B01D0012335E07B68022283F83D207D
:10224C007B681B68DA687B681B6842F00102DA6005
:10225C007B681B68164A934209D07B681B68B3F1F4
:10226C00804F04D07B681B68124A934211D17B6863
:10227C001B689B6803F00703FB60FB68062B10D000
:10228C007B681B681A687B681B6842F001021A6045
:10229C0007E07B681B681A687B681B6842F00102C8
:1022AC001A60002318461437BD4680BC704700BF27
:1022BC00002C01400004004080B584B000AF786071
:1022CC007B681B68DB68FB607B681B681B69BB60F9
:1022DC00BB6803F00203002B20D0FB6803F0020361
:1022EC00002B1BD07B681B686FF002021A617B68A5
:1022FC0001221A777B681B689B6903F00303002B90
:10230C0003D0786800F098F905E0786800F08BF954
:10231C00786800F09AF97B6800221A77BB6803F0A2
:10232C000403002B20D0FB6803F00403002B1BD00C
:10233C007B681B686FF004021A617B6802221A77B3
:10234C007B681B689B6903F44073002B03D078688F
:10235C0000F072F905E0786800F065F9786800F033
:10236C0074F97B6800221A77BB6803F00803002B12
:10237C0020D0FB6803F00803002B1BD07B681B6884
:10238C006FF008021A617B6804221A777B681B685D
:10239C00DB6903F00303002B03D0786800F04CF9E1
:1023AC0005E0786800F03FF9786800F04EF97B683A
:1023BC0000221A77BB6803F01003002B20D0FB68B7
:1023CC0003F01003002B1BD07B681B686FF010020E
:1023DC001A617B6808221A777B681B68DB6903F437
:1023EC004073002B03D0786800F026F905E078687C
:1023FC0000F019F9786800F028F97B6800221A7748
:10240C00BB6803F00103002B0CD0FB6803F0010345
:10241C00002B07D07B681B686FF001021A6178688B
:10242C00FEF760FDBB6803F08003002B0CD0FB684B
:10243C0003F08003002B07D07B681B686FF08002D1
:10244C001A61786800F06FFABB6803F04003002B48
:10245C000CD0FB6803F04003002B07D07B681B6893
:10246C006FF040021A61786800F0F8F8BB6803F06E
:10247C002003002B0CD0FB6803F02003002B07D0AB
:10248C007B681B686FF020021A61786800F042FAD2
:10249C0000BF1037BD4680BD80B584B000AF7860FA
:1024AC0039600023FB737B6893F83C30012B01D11E
:1024BC000223B4E07B68012283F83C207B68022273
:1024CC0083F83D207B681B689B68BB60BB6823F06E
:1024DC007703BB60BB6823F47F43BB607B681B68DE
:1024EC00BA689A603B681B68B3F5005F3ED0B3F5E1
:1024FC00005F00F28780B3F5805F00F08680B3F553
:10250C00805F7FD8702B1AD0702B7BD8602B50D06B
:10251C00602B77D8502B3CD0502B73D8402B58D0F5
:10252C00402B6FD8302B64D0302B6BD8202B60D045
:10253C00202B67D8002B5CD0102B5AD062E07B6824
:10254C0018683B6899683B685A683B68DB6800F020
:10255C006AF97B681B689B68BB60BB6843F07703B8
:10256C00BB607B681B68BA689A604FE07B68186830
:10257C003B6899683B685A683B68DB6800F053F924
:10258C007B681B689A687B681B6842F480429A607F
:10259C003CE07B6818683B6859683B68DB681A4606
:1025AC0000F0CAF87B681B685021184600F021F92E
:1025BC002CE07B6818683B6859683B68DB681A46F6
:1025CC0000F0E8F87B681B686021184600F011F9F0
:1025DC001CE07B6818683B6859683B68DB681A46E6
:1025EC0000F0AAF87B681B684021184600F001F93E
:1025FC000CE07B681A683B681B681946104600F0B3
:10260C00F8F803E00123FB7300E000BF7B680122B4
:10261C0083F83D207B68002283F83C20FB7B184626
:10262C001037BD4680BD80B483B000AF786000BF6A
:10263C000C37BD4680BC704780B483B000AF786067
:10264C0000BF0C37BD4680BC704780B483B000AF70
:10265C00786000BF0C37BD4680BC704780B483B037
:10266C0000AF786000BF0C37BD4680BC70470000DF
:10267C0080B485B000AF786039607B681B68FB6004
:10268C007B682B4A934207D07B68B3F1804F03D011
:10269C007B68284A934208D1FB6823F07003FB60E7
:1026AC003B685B68FA681343FB607B68204A934283
:1026BC0007D07B68B3F1804F03D07B681D4A9342EF
:1026CC0008D1FB6823F44073FB603B68DB68FA6855
:1026DC001343FB60FB6823F080023B685B69134388
:1026EC00FB607B68FA681A603B689A687B68DA6200
:1026FC003B681A687B689A627B680D4A934203D1E7
:10270C003B681A697B681A637B6801225A617B6893
:10271C001B6903F00103002B05D07B681B6923F0B8
:10272C0001027B681A6100BF1437BD4680BC70473C
:10273C00002C01400004004080B487B000AFF8606A
:10274C00B9607A60FB681B6A7B61FB681B6A23F0CB
:10275C000102FB681A62FB689B693B613B6923F0D1
:10276C00F0033B617B681B013A6913433B617B6956
:10277C0023F00A037B617A69BB6813437B61FB68B6
:10278C003A699A61FB687A691A6200BF1C37BD46C8
:10279C0080BC704780B487B000AFF860B9607A60D5
:1027AC00FB681B6A7B61FB681B6A23F01002FB68E9
:1027BC001A62FB689B693B613B6923F470433B6184
:1027CC007B681B033A6913433B617B6923F0A003CD
:1027DC007B61BB681B017A6913437B61FB683A69B7
:1027EC009A61FB687A691A6200BF1C37BD4680BCCF
:1027FC00704780B485B000AF786039607B689B68A7
:10280C00FB60FB6823F07003FB603A68FB681343C2
:10281C0043F00703FB607B68FA689A6000BF1437CB
:10282C00BD4680BC704780B487B000AFF860B9601B
:10283C007A603B60FB689B687B617B6923F47F4318
:10284C007B613B681A027B681A43BB6813437A6945
:10285C0013437B61FB687A699A6000BF1C37BD46E5
:10286C0080BC704780B485B000AF786039607B68FD
:10287C0093F83C30012B01D1022341E07B6801220B
:10288C0083F83C207B68022283F83D207B681B6820
:10289C005B68FB607B681B689B68BB60FB6823F014
:1028AC007003FB603B681B68FA681343FB607B6832
:1028BC001B68FA685A607B681B68144A934209D0FB
:1028CC007B681B68B3F1804F04D07B681B68104A8F
:1028DC0093420CD1BB6823F08003BB603B685B6800
:1028EC00BA681343BB607B681B68BA689A607B68E4
:1028FC00012283F83D207B68002283F83C200023D2
:10290C0018461437BD4680BC704700BF002C0140F0
:10291C000004004080B483B000AF786000BF0C3777
:10292C00BD4680BC704780B483B000AF786000BFF8
:10293C000C37BD4680BC704770B500260C4D0D4C55
:10294C00641BA410A64209D100F022F800260A4DFF
:10295C000A4C641BA410A64205D170BD55F8043B6B
:10296C0098470136EEE755F8043B98470136F2E7F5
:10297C00D8290008D8290008D8290008DC29000823
:10298C0003460244934200D1704703F8011BF9E758
:10299C00F8B500BFF8BC08BC9E467047F8B500BF40
:0829AC00F8BC08BC9E46704710
:1029B40000000000000000000102030406070809EB
:1029C40002030405060708090A0B0C0D0E0F10106C
:0429D40001020000FC
:0429D80031010008C1
:0429DC000D010008E1
:1029E00001000000010000000100000001000000E3
:1029F000C80000000100000001000000010000000C
:102A000001000000C80000000100000001000000FB
:102A10000100000001000000C8000000F4010000F7
:102A20002C010000C800000088130000B80B000053
:102A3000D007000000127A00100000000100000022
:0400000508001325B7
:00000001FF
