:020000040800F2
:100000000050002019180008C5130008CB13000881
:10001000D1130008D7130008DD130008000000000A
:10002000000000000000000000000000E3130008D2
:10003000EF13000800000000FB130008071400087D
:1000400061180008611800086118000861180008AC
:10005000611800086118000861180008611800089C
:10006000611800086118000861180008611800088C
:10007000611800086118000861180008611800087C
:1000800015140008291400086118000861180008F8
:10009000611800086118000861180008611800085C
:1000A000611800086118000861180008611800084C
:1000B0003D14000861180008611800085114000878
:1000C000651400086118000861180008611800082C
:1000D000611800086118000861180008611800081C
:1000E0007914000861180008611800080000000079
:1000F0000000000000000000000000000000000000
:0C01000000000000000000005FF808F1A3
:10010C0010B5054C237833B9044B13B10448AFF345
:10011C0000800123237010BDC400002000000000EB
:10012C003C61000808B5034B1BB103490348AFF30E
:10013C00008008BD00000000C80000203C610008E1
:10014C0080B400AF064B1B68012B04D1044B00227A
:10015C001A60012300E000231846BD4680BC70479E
:10016C00E000002080B400AF064B1B68012B04D1CB
:10017C00044B00221A60012300E000231846BD4600
:10018C0080BC7047E400002080B400AF064B1B68B5
:10019C00012B04D1044B00221A60012300E0002340
:1001AC001846BD4680BC7047E800002080B500AF03
:1001BC005C4B5B685B4A13605A4B9B68594A5360B3
:1001CC000221594802F046F803461A46554B9A60EC
:1001DC00544B1A68534B5B689A4226D1514B5A6860
:1001EC00504B9B689A4220D14E4BDA684D4B9B6822
:1001FC009A420ED04B4B9B684A4AD360494B9B6842
:10020C00002B12D1494B01221A60494BC8221A60AB
:10021C000BE0474B1B68013B454A1360444B1B6882
:10022C00002B02DC3F4B0122DA60424B5B68414AF7
:10023C001360404B9B683F4A536010213A4802F0D0
:10024C0009F803461A463B4B9A603A4B1A68394BED
:10025C005B689A4226D1374B5A68364B9B689A4258
:10026C0020D1344BDA68334B9B689A420ED0314B19
:10027C009B68304AD3602F4B9B68002B12D12E4BBE
:10028C0001221A602D4BC8221A600BE02B4B1B6805
:10029C00013B2A4A1360294B1B68002B02DC254BBF
:1002AC000122DA60264B5B68254A1360244B9B685D
:1002BC00234A53600121234801F0CCFF03461A4620
:1002CC001F4B9A601E4B1A681D4B5B689A4226D1D5
:1002DC001B4B5A681A4B9B689A4220D1184BDA6810
:1002EC00174B9B689A420ED0154B9B68144AD360EF
:1002FC00134B9B68002B12D1134B01221A60134B2A
:10030C00C8221A600BE0114B1B68013B0F4A1360AB
:10031C000E4B1B68002B02DC094B0122DA6000BF7C
:10032C0080BD00BF0000002000080140E00000205C
:10033C001000002014000020E40000202400002005
:10034C0028000020000C0140E800002038000020AC
:10035C0080B500AF3D4B1B68032B73D801A252F83C
:10036C0023F000BF81030008B5030008E90300086F
:10037C001D040008354B01221A60002001F070F9B1
:10038C00334B1B68334A82FB03129211DB17D31ACF
:10039C001946012000F016FB2D4B1B680022194654
:1003AC002D4800F05BFD4EE0284B02221A60002025
:1003BC0001F0D6F8264B5B68264A82FB0312921199
:1003CC00DB17D31A1946012000F0FCFA204B5B68AE
:1003DC0000221946204800F041FD34E01B4B03225B
:1003EC001A60002001F0FCF8194B9B68194A82FB3B
:1003FC0003129211DB17D31A1946012000F0E2FA0E
:10040C00134B9B6800221946134800F027FD1AE095
:10041C000E4B01221A60002001F022F90C4B1B68D4
:10042C000C4A82FB03129211DB17D31A19460120D6
:10043C0000F0C8FA064B1B6800221946064800F06B
:10044C000DFD00E000BF00BF80BD00BFEC00002030
:10045C0048000020D34D62105D03000880B500AF4A
:10046C003D4B5B68032B73D801A252F823F000BFFD
:10047C008D040008C1040008F504000829050008D3
:10048C00354B02225A60012001F06AF8334B5B684D
:10049C00334A82FB03129211DB17D31A194602203E
:1004AC0000F090FA2D4B5B68002219462D4800F0A5
:1004BC00D5FC4EE0284B02225A60012001F050F886
:1004CC00264B5B68264A82FB03129211DB17D31A68
:1004DC001946022000F076FA204B5B680022194680
:1004EC00204800F0BBFC34E01B4B03225A60012077
:1004FC0001F076F8194B9B68194A82FB0312921192
:10050C00DB17D31A1946022000F05CFA134B9B68D8
:10051C0000221946134800F0A1FC1AE00E4B0122F0
:10052C005A60012001F09CF80C4B1B680C4A82FBB2
:10053C0003129211DB17D31A1946022000F042FA6B
:10054C00064B1B6800221946064800F087FC00E0A9
:10055C0000BF00BF80BD00BFEC00002048000020A1
:10056C00D34D62106904000880B500AF0B4B1B68BB
:10057C000D2B0CD00D2B0DDC0B2B02D00C2B03D028
:10058C0008E001F0DFF806E001F0AAF803E001F062
:10059C0007F900E000BF00BF80BD00BFEC000020E9
:1005AC0080B582B000AF874B1B680A2B70DDFFF75C
:1005BC00D9FD0346002B52D0824B1B680D2B36D035
:1005CC000D2B4EDC0B2B02D00C2B18D049E07E4BA4
:1005DC001B687E4A934205DC7B4B1B6803F57A73E0
:1005EC00794A1360784B1B68794A82FB031292118B
:1005FC00DB17D31A1946012000F0E4F932E0724BF4
:10060C005B68724A934205DC6F4B5B6803F57A7347
:10061C006D4A53606C4B5B686D4A82FB03129211FE
:10062C00DB17D31A1946012000F0CCF91AE0664BFF
:10063C009B68664A934205DC634B9B6803F57A73AF
:10064C00614A9360634B9B68614A82FB031292116F
:10065C00DB17D31A1946012000F0B4F902E000BFF1
:10066C0000E000BFFFF790FD0346002B10D00023E5
:10067C007B600AE0544A7B6852F8232055497B681A
:10068C0041F823207B6801337B607B68022BF1DD12
:10069C00FFF756FD0346002B00F08F80494B1B687B
:1006AC000A2B4DDD474B1B680D2B35D00D2B00F362
:1006BC0083800B2B02D00C2B17D07DE0414B0C22EE
:1006CC001A60404B0C225A603F4B5B68404A82FBDD
:1006DC0003129211DB17D31A1946012000F072F99C
:1006EC000321022000F06EF967E0364B0D221A60F0
:1006FC00344B0D225A60374B9B68354A82FB0312F0
:10070C009211DB17D31A1946012000F05BF9042172
:10071C00022000F057F950E02A4B00221A60294BB6
:10072C0000225A602C4800F08FFCFFF711FEFFF7F7
:10073C0095FE4FF47A720021284800F08FFB3CE0C4
:10074C00204B1B68092B38DC00233B600AE0214A54
:10075C003B6852F823201C493B6841F823203B6836
:10076C0001333B603B68022BF1DD1D4800F06CFC53
:10077C001C4800F069FC194800F066FC114B0B2278
:10078C001A60104B0B225A60124B1B68104A82FBEA
:10079C0003129211DB17D31A1946012000F012F93B
:1007AC000221022000F00EF900F0A4FEFA22002132
:1007BC00094800F053FB00E000BF00BF0837BD46FE
:1007CC0080BD00BFEC0000203C000020B78201007F
:1007DC00D34D62104800002075050008F909000887
:1007EC005D0300086904000880B586B002AF0346BB
:1007FC00FB71FB7923F00F03FB73FB791B01BB73BC
:10080C00FB7B43F00C03DBB23B72FB7B43F0080336
:10081C00DBB27B72BB7B43F00C03DBB2BB72BB7BEA
:10082C0043F00803DBB2FB7207F108026423009368
:10083C0004234221034801F0CFFE00BF1037BD4610
:10084C0080BD00BF6C01002080B586B002AF0346AE
:10085C00FB71FB7923F00F03FB73FB791B01BB735B
:10086C00FB7B43F00D03DBB23B72FB7B43F00903D4
:10087C00DBB27B72BB7B43F00D03DBB2BB72BB7B89
:10088C0043F00903DBB2FB7207F108026423009307
:10089C0004234221034801F09FFE00BF1037BD46E0
:1008AC0080BD00BF6C01002080B500AF3320FFF786
:1008BC009BFF3220FFF798FF322001F02FF8282001
:1008CC00FFF792FF322001F029F80120FFF78CFF8F
:1008DC00322001F023F80620FFF786FF322001F0CA
:1008EC001DF80C20FFF780FF322001F017F80220D2
:1008FC00FFF77AFF322001F011F88020FFF774FF28
:10090C0000BF80BD80B582B000AF786006E07B6828
:10091C005A1C7A601B781846FFF796FF7B681B7889
:10092C00002BF4D100BF00BF0837BD4680BD80B599
:10093C0084B000AF786039607B68012B08D17B688C
:10094C00DAB23B68DBB21344DBB27F33FB7308E0F3
:10095C003B68DBB24033DBB25BB263F07F035BB26C
:10096C00FB73FB7B1846FFF73FFF00BF1037BD46FC
:10097C0080BD000080B500AF0E4B5B681A460E4977
:10098C000E4805F051F800210220FFF7D0FF0B486C
:10099C00FFF7B8FF074B1B681A460749084805F0D4
:1009AC0043F800210120FFF7C2FF0548FFF7AAFF1B
:1009BC0000BF80BDF4000020546100081801002025
:1009CC000801002080B582B000AF786039607B6888
:1009DC00013B05493A6841F82320FFF7CBFF00BFE4
:1009EC000837BD4680BD00BFF400002080B500AFC5
:1009FC00064B1B68013B054A1360044B5B68013BCB
:100A0C00024A5360FFF7B6FF00BF80BDF400002020
:100A1C0080B500AF00F020FF00F040F800F04AF97C
:100A2C0000F0F8F800F020F900F07AF800F0A6F8E1
:100A3C00144804F081FA00F0FFF9FFF735FF0022AB
:100A4C004FF47A71104800F009FA00224FF47A71D1
:100A5C000E4800F003FA4FF47A724FF47A710C4896
:100A6C0000F0FCF90A224FF47A710A4800F0F6F90A
:100A7C000A224FF47A71084800F0F0F900F09AFA63
:100A8C00FCE700BF040200205D03000869040008B5
:100A9C00F9090008AD050008B901000880B590B04F
:100AAC0000AF07F1180328220021184604F0FEFEBF
:100ABC003B1D00221A605A609A60DA601A610223A8
:100ACC00BB610123BB621023FB6202237B63002307
:100ADC00BB634FF46013FB6307F11803184603F074
:100AEC00CDFD0346002B01D000F0A0F90F237B6055
:100AFC000223BB60A023FB604FF480633B610023A7
:100B0C007B613B1D0221184604F038F80346002B8C
:100B1C0001D000F08BF900BF4037BD4680BD00000E
:100B2C0080B500AF124B134A1A60114B124A5A602F
:100B3C000F4B00229A600E4B0022DA600C4B4FF4E4
:100B4C0080421A610A4B00225A61094B00229A61B9
:100B5C00074B0022DA61064B00221A62044801F0AE
:100B6C00E3FB0346002B01D000F060F900BF80BD11
:100B7C006C01002000540040A086010080B586B0B6
:100B8C0000AF07F1080300221A605A609A60DA601D
:100B9C003B4600221A605A601D4B4FF080421A608F
:100BAC001B4B41F63F725A60194B00229A60184B4E
:100BBC000922DA60164B00221A61154B00229A6149
:100BCC00134804F069F90346002B01D000F02EF90C
:100BDC004FF48053BB6007F1080319460C4804F02E
:100BEC00EDFA0346002B01D000F020F900233B6006
:100BFC0000237B603B461946054804F0CFFC0346B6
:100C0C00002B01D000F012F900BF1837BD4680BD93
:100C1C000402002080B500AF114B124A1A60104B31
:100C2C004FF4E1325A600E4B00229A600C4B0022BA
:100C3C00DA600B4B00221A61094B0C225A61084BEB
:100C4C0000229A61064B0022DA61054804F016FD79
:100C5C000346002B01D000F0E9F800BF80BD00BFB7
:100C6C004C0200200044004080B582B000AF104B15
:100C7C005B690F4A43F0010353610D4B5B6903F051
:100C8C0001037B607B6800220021102000F041FFF3
:100C9C00102000F05AFF00220021112000F039FF33
:100CAC00112000F052FF00BF0837BD4680BD00BFC9
:100CBC000010024080B588B000AF07F1100300228D
:100CCC001A605A609A60DA604E4B9B694D4A43F049
:100CDC00100393614B4B9B6903F01003FB60FB68A3
:100CEC00484B9B69474A43F020039361454B9B69F2
:100CFC0003F02003BB60BB68424B9B69414A43F045
:100D0C00040393613F4B9B6903F004037B607B6896
:100D1C003C4B9B693B4A43F008039361394B9B69FD
:100D2C0003F008033B603B6800224FF448713648DF
:100D3C0001F0A7FA00224FF48F61344801F0A1FAB8
:100D4C0000228021324801F09CFA4FF400533B61A1
:100D5C00304B7B610023BB6107F1100319462C4813
:100D6C0001F0F4F812233B6100237B610123BB618A
:100D7C0007F110031946244801F0E8F84FF44873C2
:100D8C003B6101237B610023BB610223FB6107F103
:100D9C00100319461C4801F0D9F801233B610023CC
:100DAC007B610123BB6107F110031946174801F061
:100DBC00CDF84FF48F633B6101237B610023BB6152
:100DCC000223FB6107F110031946104801F0BEF82D
:100DDC0080233B6101237B610023BB610223FB6108
:100DEC0007F1100319460A4801F0B0F8002200215F
:100DFC00282000F08EFE282000F0A7FE00BF203730
:100E0C00BD4680BD0010024000080140000C0140AE
:100E1C00001001400000111080B582B000AF786066
:100E2C0000F0B6F800BF0837BD4680BD80B400AFF7
:100E3C0072B600BFFEE7000080B400AF064B002284
:100E4C005A60054B00229A60034B00221A6000BFC7
:100E5C00BD4680BC704700BF9402002080B586B0B0
:100E6C0000AFF860B9607A60142004F00FFD0346FF
:100E7C003B613B69002B00F082803B69FA681A6089
:100E8C00BB68414AA2FB0323DA083B695A607B68C2
:100E9C003D4AA2FB0323DA083B699A603B690022B6
:100EAC001A613B690022DA60384B5B68002B0BD16E
:100EBC00364A3B695360354A3B699360334B1B6838
:100ECC000133324A13605BE0304B5B687B6109E0B5
:100EDC003B695A687B695B68D21A3B695A607B69CB
:100EEC001B697B617B69002B05D03B695A687B6968
:100EFC005B689A42ECD2254B5B687A699A4214D1B2
:100F0C00224B5A683B691A61204B5B683A69DA607C
:100F1C001E4B5B6859683B695A681C4B5B688A1AA4
:100F2C005A601A4A3B69536023E07B69002B0BD152
:100F3C00164B9A683B69DA60144B9B683A691A61E4
:100F4C00124A3B69936014E03B697A691A617B69C8
:100F5C00DA683B69DA607B69DB683A691A617B693C
:100F6C003A69DA607B695A683B695B68D21A7B69BB
:100F7C005A60064B1B680133044A136000E000BF43
:100F8C001837BD4680BD00BFCDCCCCCC9402002020
:100F9C0080B400AF064B5B68002B04D0044B5B683D
:100FAC005A68013A5A6000BFBD4680BC704700BF0A
:100FBC009402002080B582B000AF224B5B68002BFE
:100FCC003BD0204B5B685B68002B37D11D4B5B68BB
:100FDC001B6898471B4B5B687B601A4B5B681B69F3
:100FEC00184A5360174B5B68002B04D0154B5B6899
:100FFC000022DA6002E0134B00229A60114B1B684E
:10100C00013B104A13607B689B68002B11D07B68F6
:10101C0018687B689A6813469B0013445B0019465A
:10102C007B689A6813469B0013445B001A46FFF7D3
:10103C0015FF786804F032FC00E000BF0837BD46AD
:10104C0080BD00BF9402002080B584B000AF7860F2
:10105C00344B5B68002B60D0324B5B68FB6058E014
:10106C00FB681B687A689A4250D1FB68BB60FB68CE
:10107C001B69FB602B4B5B68BA689A421AD1294BEF
:10108C005B681B69274A5360264B5B68002B0DD0AD
:10109C00244B5B680022DA60224B5B685968BB68A2
:1010AC005A68204B5B680A445A6026E01D4B0022AC
:1010BC009A6022E01B4B9B68BA689A420AD1194B82
:1010CC009B68DB6800221A61164B9B68DB68154A2B
:1010DC00936012E0BB68DB68BA6812691A61BB687E
:1010EC001B69BA68D268DA60BB685968BB681B694F
:1010FC005A68BB681B690A445A60B86804F0CEFB96
:10110C00084B1B68013B074A136002E0FB681B6934
:10111C00FB60FB68002BA3D100E000BF1037BD467D
:10112C0080BD00BF9402002080B485B000AF154B89
:10113C009B69144A43F001039361124B9B6903F0C2
:10114C000103BB60BB680F4BDB690E4A43F0805355
:10115C00D3610C4BDB6903F080537B607B680A4BDB
:10116C005B68FB60FB6823F0E063FB60FB6843F0AB
:10117C000073FB60044AFB68536000BF1437BD4624
:10118C0080BC7047001002400000014080B58AB05E
:10119C0000AF786007F1140300221A605A609A605D
:1011AC00DA607B681B684B4A934240F08F804A4B55
:1011BC009B69494A43F008039361474B9B6903F0D1
:1011CC0008033B613B694FF440737B611223BB61A5
:1011DC0003233B6207F114031946404800F0B6FEA6
:1011EC003F4B5B687B627B6A43F0E0637B627B6AAC
:1011FC0043F002037B623A4A7B6A5360364BDB69ED
:10120C00354A43F40013D361334BDB6903F4001309
:10121C00FB60FB68334B344A1A60324B10225A6025
:10122C00304B00229A602F4B8022DA602D4B00222B
:10123C001A612C4B00225A612A4B00229A61294BCD
:10124C000022DA61274800F09BFC0346002B01D0FA
:10125C00FFF7ECFD7B68234A5A63224A7B68536292
:10126C00224B234A1A60214B00225A601F4B00224A
:10127C009A601E4B8022DA601C4B00221A611B4BB9
:10128C0000225A61194B00229A61184B0022DA6134
:10129C00164800F075FC0346002B01D0FFF7C6FD85
:1012AC007B68124A9A63114A7B68536200220021C0
:1012BC001F2000F02EFC1F2000F047FC0022002114
:1012CC00202000F026FC202000F03FFC00BF283737
:1012DC00BD4680BD0054004000100240000C01408F
:1012EC0000000140280100206C000240C0010020D9
:1012FC008000024080B584B000AF78607B681B68CA
:10130C00B3F1804F13D10C4BDB690B4A43F0010353
:10131C00D361094BDB6903F00103FB60FB6800221E
:10132C0000211C2000F0F5FB1C2000F00EFC00BF7F
:10133C001037BD4680BD00BF0010024080B588B09C
:10134C0000AF786007F1100300221A605A609A60AF
:10135C00DA607B681B68154A934223D1144BDB6916
:10136C00134A43F40033D361114BDB6903F40033AC
:10137C00FB60FB680E4B9B690D4A43F004039361C1
:10138C000B4B9B6903F00403BB60BB680C233B61F4
:10139C0002237B610223FB6107F110031946054808
:1013AC0000F0D4FD00BF2037BD4680BD0044004096
:1013BC00001002400008014080B400AFFEE780B48A
:1013CC0000AFFEE780B400AFFEE780B400AFFEE7ED
:1013DC0080B400AFFEE780B400AF00BFBD4680BC58
:1013EC00704780B400AF00BFBD4680BC704780B46E
:1013FC0000AF00BFBD4680BC704780B500AF00F0A9
:10140C0071FA00BF80BD000080B500AF024800F04B
:10141C0089FC00BF80BD00BF2801002080B500AF53
:10142C00024800F07FFC00BF80BD00BFC00100205F
:10143C0080B500AF024803F0D1FD00BF80BD00BFF6
:10144C000402002080B500AF024801F0C3F900BFD0
:10145C0080BD00BF6C01002080B500AF024801F0D8
:10146C002AFB00BF80BD00BF6C01002080B500AF1F
:10147C004FF4005000F036FF00BF80BD80B586B041
:10148C0000AF7860144A154BD31A7B617B693B61C2
:10149C00134B1B68002B02D1114B124A1A60104BD4
:1014AC001A687B6813443A699A4207D204F0C4F96B
:1014BC0003460C221A604FF0FF3309E0084B1B68FF
:1014CC00FB60074B1A687B681344054A1360FB6882
:1014DC0018461837BD4680BD00500020000400009F
:1014EC00FC000020B802002080B400AF00BFBD4655
:1014FC0080BC704780B500AF00220821154800F071
:10150C00C0FE00222021134800F0BBFE0022102157
:10151C00104800F0B6FE00224FF480610D4800F038
:10152C00B0FE00224FF480710B4800F0AAFE00229E
:10153C004FF40071084800F0A4FE002280210748F7
:10154C0000F09FFE00224021024800F09AFE00BFEE
:10155C0080BD00BF000C014000080140001001409C
:10156C0080B582B000AF78607B68002B14D101226B
:10157C000821184800F085FE00222021154800F0B3
:10158C0080FE01221021134800F07BFE00224FF454
:10159C008061104800F075FE7B68012B15D101228B
:1015AC004FF480710C4800F06CFE00224FF4007177
:1015BC00094800F066FE01228021084800F061FE17
:1015CC0000224021034800F05CFE00BF0837BD46F6
:1015DC0080BD00BF000C014000080140001001401C
:1015EC0080B582B000AF78607B68002B14D10022EC
:1015FC000821184800F045FE01222021154800F072
:10160C0040FE00221021134800F03BFE01224FF453
:10161C008061104800F035FE7B68012B15D100224B
:10162C004FF480710C4800F02CFE01224FF4007135
:10163C00094800F026FE00228021084800F021FE17
:10164C0001224021034800F01CFE00BF0837BD46B4
:10165C0080BD00BF000C014000080140001001409B
:10166C0080B582B000AF78607B68002B14D101226A
:10167C000821184800F005FE01222021154800F031
:10168C0000FE01221021134800F0FBFD01224FF453
:10169C008061104800F0F5FD7B68012B15D101220B
:1016AC004FF480710C4800F0ECFD01224FF40071F6
:1016BC00094800F0E6FD01228021084800F0E1FD18
:1016CC0001224021034800F0DCFD00BF0837BD4675
:1016DC0080BD00BF000C014000080140001001401B
:1016EC0080B500AF0821144800F0E3FD0022202152
:1016FC00114800F0C6FD10210F4800F0DAFD002261
:10170C004FF480610C4800F0BCFD4FF480710B4825
:10171C0000F0CFFD00224FF40071084800F0B1FD3D
:10172C008021074800F0C5FD00224021024800F04E
:10173C00A8FD00BF80BD00BF000C014000080140A7
:10174C000010014080B500AF0821124800F0B1FD37
:10175C002021104800F0ADFD10210E4800F0A9FD2D
:10176C004FF480610B4800F0A4FD4FF480710A48DF
:10177C0000F09FFD4FF40071074800F09AFD8021A6
:10178C00064800F096FD4021024800F092FD00BF93
:10179C0080BD00BF000C014000080140001001405A
:1017AC0080B582B000AF786000220821144800F0A8
:1017BC0068FD2021124800F07CFD00221021104809
:1017CC0000F05FFD4FF480610D4800F072FD0022C7
:1017DC004FF480710B4800F054FD4FF40071094830
:1017EC0000F067FD00228021074800F04AFD4021EF
:1017FC00034800F05EFD00BF0837BD4680BD00BF4A
:10180C00000C01400008014000100140FFF76CFE85
:10181C000B480C490C4A002302E0D458C450043342
:10182C00C4188C42F9D3094A094C002301E0136017
:10183C000432A242FBD304F005F8FFF7E9F8704735
:10184C0000000020C4000020C0610008C40000207B
:10185C00B4020020FEE7000080B500AF084B1B6807
:10186C00074A43F010031360032000F047F90020EF
:10187C0000F008F8FFF758FC0023184680BD00BFA5
:10188C000020024080B582B000AF7860124B1A681D
:10189C00124B1B7819464FF47A73B3FBF1F3B2FB7E
:1018AC00F3F3184600F05FF90346002B01D0012337
:1018BC000EE07B680F2B0AD8002279684FF0FF30BE
:1018CC0000F027F9064A7B681360002300E001232F
:1018DC0018460837BD4680BD540000205C0000202F
:1018EC005800002080B400AF054B1B781A46054BFE
:1018FC001B681344034A136000BFBD4680BC70478D
:10190C005C000020A002002080B400AF024B1B68DA
:10191C001846BD4680BC7047A002002080B584B03C
:10192C0000AF7860FFF7F0FFB8607B68FB60FB6886
:10193C00B3F1FF3F05D00A4B1B781A46FB681344E2
:10194C00FB6000BFFFF7E0FF0246BB68D31AFA68E2
:10195C009A42F7D800BF00BF1037BD4680BD00BF0C
:10196C005C00002080B485B000AF78607B6803F029
:10197C000703FB600C4BDB68BB60BA684FF6FF03D8
:10198C001340BB60FB681A02BB68134343F0BF6390
:10199C0043F40033BB60044ABB68D36000BF143708
:1019AC00BD4680BC704700BF00ED00E080B400AFC6
:1019BC00044BDB681B0A03F007031846BD4680BCCA
:1019CC00704700BF00ED00E080B483B000AF034669
:1019DC00FB7197F90730002B0BDBFB7903F01F022F
:1019EC00064997F907305B09012000FA02F241F829
:1019FC00232000BF0C37BD4680BC704700E100E0DF
:101A0C0080B483B000AF03463960FB7197F907309F
:101A1C00002B0ADB3B68DAB20C4997F9073012014C
:101A2C00D2B20B4483F800230AE03B68DAB20849CF
:101A3C00FB7903F00F03043B1201D2B20B441A766C
:101A4C0000BF0C37BD4680BC704700BF00E100E012
:101A5C0000ED00E080B489B000AFF860B9607A6046
:101A6C00FB6803F00703FB61FB69C3F10703042B5D
:101A7C0028BF0423BB61FB690433062B02D9FB6925
:101A8C00033B00E000237B614FF0FF32BB6902FA9D
:101A9C0003F3DA43BB681A407B699A404FF0FF317D
:101AAC007B6901FA03F3D9437B680B401343184657
:101ABC002437BD4680BC704780B582B000AF7860DB
:101ACC007B68013BB3F1807F01D301230FE00A4A0D
:101ADC007B68013B53600F214FF0FF30FFF790FF05
:101AEC00054B00229A60044B07221A60002318460B
:101AFC000837BD4680BD00BF10E000E080B582B065
:101B0C0000AF78607868FFF72DFF00BF0837BD463F
:101B1C0080BD80B586B000AF0346B9607A60FB73B8
:101B2C0000237B61FFF742FF78617A68B9687869B6
:101B3C00FFF790FF024697F90F3011461846FFF752
:101B4C005FFF00BF1837BD4680BD80B582B000AFC7
:101B5C000346FB7197F907301846FFF735FF00BFB6
:101B6C000837BD4680BD80B582B000AF786078681C
:101B7C00FFF7A2FF034618460837BD4680BD00009C
:101B8C0080B485B000AF78600023FB607B68002BCD
:101B9C0001D1012343E07B681B681A46224B134496
:101BAC00224AA2FB03231B099A007B681A647B68F8
:101BBC001F4ADA637B68022283F821207B681B684A
:101BCC001B68FB60FB6823F47F5323F03003FB603E
:101BDC007B685A687B689B681A437B68DB681A438E
:101BEC007B681B691A437B685B691A437B689B693A
:101BFC001A437B68DB691343FA681343FB607B6809
:101C0C001B68FA681A607B6800229A637B68012261
:101C1C0083F821207B68002283F8202000231846BB
:101C2C001437BD4680BC7047F8FFFDBFCDCCCCCC83
:101C3C000000024080B584B000AF78600023FB73D5
:101C4C007B6893F82130DBB2022B05D07B68042231
:101C5C009A630123FB7351E07B681B681A687B68ED
:101C6C001B6822F00E021A607B681B681A687B687E
:101C7C001B6822F001021A607B681B68224A93429F
:101C8C0029D07B681B68214A934222D07B681B6851
:101C9C001F4A93421AD07B681B681E4A934212D08B
:101CAC007B681B681C4A93420AD07B681B681B4AE2
:101CBC00934202D14FF480130EE04FF080730BE08F
:101CCC004FF4803308E04FF4805305E04FF48073F9
:101CDC0002E0102300E00123114A53607B680122CB
:101CEC0083F821207B68002283F820207B685B6BC3
:101CFC00002B03D07B685B6B78689847FB7B18469E
:101D0C001037BD4680BD00BF080002401C000240D9
:101D1C003000024044000240580002406C00024077
:101D2C000000024080B584B000AF78607B68DB6B4C
:101D3C001B68FB607B681B681B68BB607B681B6C4B
:101D4C0004229A40FB681340002B4FD0BB6803F071
:101D5C000403002B4AD07B681B681B6803F020032C
:101D6C00002B07D17B681B681A687B681B6822F004
:101D7C0004021A607B681B68664A934229D07B6810
:101D8C001B68654A934222D07B681B68634A934266
:101D9C001AD07B681B68624A934212D07B681B681E
:101DAC00604A93420AD07B681B685F4A934202D117
:101DBC004FF480030EE04FF080630BE04FF4802370
:101DCC0008E04FF4804305E04FF4806302E04023C9
:101DDC0000E00423554A53607B68DB6A002B00F05B
:101DEC0094807B68DB6A786898478EE07B681B6C14
:101DFC0002229A40FB681340002B56D0BB6803F0BC
:101E0C000203002B51D07B681B681B6803F0200376
:101E1C00002B0BD17B681B681A687B681B6822F04F
:101E2C000A021A607B68012283F821207B681B68F8
:101E3C00384A934229D07B681B68374A934222D098
:101E4C007B681B68354A93421AD07B681B68344AFE
:101E5C00934212D07B681B68324A93420AD07B684B
:101E6C001B68314A934202D14FF400130EE04FF03D
:101E7C0000730BE04FF4003308E04FF4005305E01F
:101E8C004FF4007302E0202300E00223274A536042
:101E9C007B68002283F820207B689B6A002B34D05F
:101EAC007B689B6A786898472FE07B681B6C0822DC
:101EBC009A40FB681340002B28D0BB6803F0080342
:101ECC00002B23D07B681B681A687B681B6822F088
:101EDC000E021A607B681A6C7B68DB6B012101FABD
:101EEC0002F25A607B6801229A637B68012283F8B4
:101EFC0021207B68002283F820207B681B6B002B41
:101F0C0004D07B681B6B7868984700BF00BF103704
:101F1C00BD4680BD080002401C000240300002405B
:101F2C0044000240580002406C0002400000024095
:101F3C0080B483B000AF78607B6893F82130DBB25B
:101F4C0018460C37BD4680BC7047000080B48BB07F
:101F5C0000AF7860396000237B6200233B6269E14B
:101F6C0001227B6A02FA03F3FB613B681B68FA6986
:101F7C001340BB61BA69FB699A4240F058813B68D7
:101F8C005B689A4A93425ED0984A934275D8984AB5
:101F9C00934258D0964A93426FD8964A934252D065
:101FAC00944A934269D8944A93424CD0924A9342B1
:101FBC0063D8924A934246D0904A93425DD8122BF2
:101FCC002AD8122B59D801A252F823F0532000081A
:101FDC002D2000083F2000088120000887200008E1
:101FEC008720000887200008872000088720000829
:101FFC008720000887200008872000088720000819
:10200C008720000887200008872000088720000808
:10201C003520000849200008794A934213D02CE05F
:10202C003B68DB683B6229E03B68DB6804333B625E
:10203C0024E03B68DB6808333B621FE03B68DB68ED
:10204C000C333B621AE03B689B68002B02D10423E3
:10205C003B6213E03B689B68012B05D108233B6274
:10206C007B68FA691A6109E008233B627B68FA69AC
:10207C005A6103E000233B6200E000BFBB69FF2B09
:10208C0001D87B6801E07B6804337B61BB69FF2B63
:10209C0002D87B6A9B0002E07B6A083B9B003B6199
:1020AC007B691A680F213B6901FA03F3DB431A4081
:1020BC00396A3B6901FA03F31A437B691A603B687E
:1020CC005B6803F08053002B00F0B1804D4B9B6993
:1020DC004C4A43F0010393614A4B9B6903F00103A3
:1020EC00BB60BB68484A7B6A9B08023352F82330BA
:1020FC00FB607B6A03F003039B000F2202FA03F3DD
:10210C00DB43FA681340FB607B68404A934213D070
:10211C007B683F4A93420DD07B683E4A934207D07E
:10212C007B683D4A934201D1032306E0042304E07B
:10213C00022302E0012300E000237A6A02F003028A
:10214C0092009340FA681343FB602F497B6A9B080B
:10215C000233FA6841F823203B685B6803F4801370
:10216C00002B06D02D4B9A682C49BB6913438B600E
:10217C0006E02A4B9A68BB69DB43284913408B6005
:10218C003B685B6803F40013002B06D0234BDA6822
:10219C002249BB691343CB6006E0204BDA68BB696C
:1021AC00DB431E491340CB603B685B6803F4003390
:1021BC00002B06D0194B5A681849BB6913434B6066
:1021CC0006E0164B5A68BB69DB43144913404B605D
:1021DC003B685B6803F48033002B21D00F4B1A68EB
:1021EC000E49BB6913430B6021E000BF00003210A5
:1021FC00000031100000221000002110000012100D
:10220C0000001110001002400000014000080140C5
:10221C00000C01400010014000140140000401407A
:10222C000B4B1A68BB69DB43094913400B607B6A93
:10223C0001337B623B681A687B6A22FA03F3002B3A
:10224C007FF48EAE00BF00BF2C37BD4680BC7047FC
:10225C000004014080B485B000AF78600B467B80F1
:10226C007B689A687B881340002B02D00123FB7398
:10227C0001E00023FB73FB7B18461437BD4680BC82
:10228C00704780B483B000AF78600B467B801346F8
:10229C007B707B78002B03D07A887B681A6103E013
:1022AC007B881A047B681A6100BF0C37BD4680BC62
:1022BC00704780B485B000AF78600B467B807B683C
:1022CC00DB68FB607A88FB6813401A04FB68D9430F
:1022DC007B880B401A437B681A6100BF1437BD46DC
:1022EC0080BC704780B582B000AF0346FB80084BC2
:1022FC005A69FB881340002B06D0054AFB885361B2
:10230C00FB88184600F006F800BF0837BD4680BDB4
:10231C000004014080B483B000AF0346FB8000BFD3
:10232C000C37BD4680BC704780B584B000AF786078
:10233C007B68002B01D101232BE17B6893F83D30A6
:10234C00DBB2002B06D17B68002283F83C20786836
:10235C00FEF71CFF7B68242283F83D207B681B68FA
:10236C001A687B681B6822F001021A607B681B6884
:10237C001A687B681B6842F400421A607B681B6811
:10238C001A687B681B6822F400421A6002F03EFD5A
:10239C00F8607B685B68814A934207D8FB68804A87
:1023AC00934294BF01230023DBB206E0FB687D4A15
:1023BC00934294BF01230023DBB2002B01D00123F5
:1023CC00E7E0FB68784AA2FB03239B0CBB607B68AD
:1023DC001B685B6823F03F017B681B68BA680A4383
:1023EC005A607B681B681B6A23F03F017B685B6843
:1023FC006A4A934202D8BB68013309E0BB684FF4C8
:10240C00967202FB03F3694AA2FB03239B09013377
:10241C007A6812680B4313627B681B68DB6923F4D0
:10242C004F4222F0FF027B685B685C498B4219D8F3
:10243C00FB68591E7B685B685B00B1FBF3F3591CAE
:10244C0040F6FC730B40002B0AD0FB68591E7B68CE
:10245C005B685B00B1FBF3F30133C3F30B0351E097
:10246C0004234FE07B689B68002B11D1FB68581E3E
:10247C007B6859680B465B000B44B0FBF3F30133EC
:10248C00C3F30B03002B0CBF01230023DBB212E0C0
:10249C00FB68581E7B6859680B469B000B449900DF
:1024AC000B44B0FBF3F30133C3F30B03002B0CBF52
:1024BC0001230023DBB2002B01D0012322E07B6837
:1024CC009B68002B0ED1FB68581E7B6859680B4625
:1024DC005B000B44B0FBF3F30133C3F30B0343F486
:1024EC0000430FE0FB68581E7B6859680B469B0045
:1024FC000B4499000B44B0FBF3F30133C3F30B0310
:10250C0043F44043796809681343CB617B681B68CB
:10251C001B6823F0C0017B68DA697B681B6A1A436D
:10252C007B681B680A431A607B681B689B6823F4F2
:10253C00034323F0FF037A6811697A68D268114368
:10254C007A6812680B4393607B681B68DB6823F026
:10255C00FF017B685A697B689B691A437B681B681F
:10256C000A43DA607B681B681A687B681B6842F058
:10257C0001021A607B6800221A647B68202283F8AF
:10258C003D207B6800221A637B68002283F83E2082
:10259C00002318461037BD4680BD00BFA086010041
:1025AC007F841E00FF083D0083DE1B43D34D621069
:1025BC0080B483B000AF78607B681B685B6903F004
:1025CC008003802B03D17B681B6800221A6100BF3B
:1025DC000C37BD4680BC704780B588B002AFF86040
:1025EC007A601A460B467B8113463B81FFF78CF9C8
:1025FC007861FB6893F83D30DBB2202B40F0E08033
:10260C007B690093192301227049F86801F012FECE
:10261C000346002B01D00223D3E0FB6893F83C3037
:10262C00012B01D10223CCE0FB68012283F83C2072
:10263C00FB681B681B6803F00103012B07D0FB68C8
:10264C001B681A68FB681B6842F001021A60FB6881
:10265C001B681A68FB681B6822F400621A60FB682E
:10266C00212283F83D20FB68102283F83E20FB6872
:10267C0000221A64FB687A685A62FB683A895A85A8
:10268C00FB685B8D9AB2FB681A85FB68504ADA626C
:10269C0079897B693A6AF86801F0A2FC0346002B41
:1026AC0001D001238DE000233B61FB681B685B6953
:1026BC003B61FB681B689B693B613B6966E07A691F
:1026CC00396AF86801F0D0FE0346002B0DD0FB6888
:1026DC001B6C042B07D1FB681B681A68FB681B6812
:1026EC0042F400721A6001236BE0FB685B6A1A7893
:1026FC00FB681B681A61FB685B6A5A1CFB685A62B0
:10270C00FB685B8D9BB2013B9AB2FB685A85FB68F8
:10271C001B8D013B9AB2FB681A85FB681B685B69D1
:10272C0003F00403042B1BD1FB681B8D002B17D06B
:10273C00FB685B6A1A78FB681B681A61FB685B6A4A
:10274C005A1CFB685A62FB685B8D9BB2013B9AB2C8
:10275C00FB685A85FB681B8D013B9AB2FB681A8596
:10276C007A69396AF86801F0C7FE0346002B0DD070
:10277C00FB681B6C042B07D1FB681B681A68FB6891
:10278C001B6842F400721A6001231AE0FB681B8D6F
:10279C00002B94D1FB681B681A68FB681B6842F419
:1027AC0000721A60FB68202283F83D20FB6800222F
:1027BC0083F83E20FB68002283F83C20002300E0D5
:1027CC00022318461837BD4680BD00BF020010001A
:1027DC000000FFFF80B588B000AF78600023BB61BC
:1027EC007B681B685B687B617B68DB6A3B617B6831
:1027FC0093F83E30FB737B6893F83D30BB73FB7BE7
:10280C00102B03D0FB7B402B40F0C1807B681B68F6
:10281C009B69BB617B681B685B69FB61FB6903F0AF
:10282C000103002B0DD13B69B3F52A0F03D03B6993
:10283C00B3F12A4F01D1012300E00023012B00F05A
:10284C003281FB6903F00103002B0CD07B695B0A1E
:10285C0003F00103002B06D0786801F0F5FE7868D0
:10286C0000F099FD92E0FB69DB0803F00103002BFB
:10287C0009D07B695B0A03F00103002B03D0786855
:10288C0000F00EFE82E0FB695B0803F00103002BF5
:10289C0009D07B695B0A03F00103002B03D0786835
:1028AC0000F027FE72E0BB699B0803F00103002BCC
:1028BC003BD07B681B685B6803F40063B3F5006F67
:1028CC0000F0F380FB69DB0903F00103002B0FD050
:1028DC007B699B0A03F00103002B09D0FB699B0861
:1028EC0003F00103002B03D1786800F0F1F94DE0FF
:1028FC00FB699B0803F00103002B00F0D6807B6979
:10290C005B0A03F00103002B00F0CF80BB7B212B73
:10291C0003D1786800F078FAC7E0FB7B402B40F0DD
:10292C00C480786800F0E6FABFE07B681B685B68DF
:10293C0003F40063B3F5006F00F0B780FB699B09EB
:10294C0003F00103002B0FD07B699B0A03F00103FA
:10295C00002B09D0FB699B0803F00103002B03D16A
:10296C00786800F05FFB11E0FB699B0803F0010342
:10297C00002B00F09A807B695B0A03F00103002BAB
:10298C0000F09380786800F015FC8EE08DE07B6899
:10299C001B6C002B04D07B681B685B69FB6107E038
:1029AC007B681B689B69BB617B681B685B69FB610F
:1029BC00FB695B0803F00103002B12D07B695B0AF7
:1029CC0003F00103002B0CD07B681B6C002B03D095
:1029DC007B681B689B69BB61B969786800F0E0FF94
:1029EC0066E0FB691B0903F00103002B09D07B692E
:1029FC005B0A03F00103002B03D0786801F01AF88E
:102A0C0056E0BB7B212B02D0BB7B292B25D1FB694C
:102A1C00DB0903F00103002B0FD07B699B0A03F049
:102A2C000103002B09D0FB699B0803F00103002B69
:102A3C0003D1786800F0F8FE39E0FB699B0803F0DD
:102A4C000103002B33D07B695B0A03F00103002BDD
:102A5C002DD0786800F025FF29E0FB699B0903F075
:102A6C000103002B0FD07B699B0A03F00103002BA1
:102A7C0009D0FB699B0803F00103002B03D1786894
:102A8C0000F02FFF14E0FB699B0803F00103002BFF
:102A9C000ED07B695B0A03F00103002B08D0786829
:102AAC0000F05DFF04E000BF02E000BF00E000BFEB
:102ABC002037BD4680BD80B58AB000AF78607B689A
:102ACC001B685B693B627B681B685B68FB6100236E
:102ADC007B627B6893F83E30FB763B6A1B0A03F003
:102AEC000103002B16D0FB691B0A03F00103002B1A
:102AFC0010D07B6A43F001037B627B681B686FF428
:102B0C0080725A617B681B681A687B681B6842F488
:102B1C0000421A603B6A5B0A03F00103002B0ED0E3
:102B2C00FB691B0A03F00103002B08D07B6A43F0FE
:102B3C0002037B627B681B686FF400725A613B6A0C
:102B4C009B0A03F00103002B3FD0FB691B0A03F027
:102B5C000103002B39D0FB7EBB767B685B8D9BB26F
:102B6C007B617B6893F83D30FB747B681B6BFB606F
:102B7C00BB7E202B12D17B69002B0FD1FB7C212B30
:102B8C0008D0FB7C292B05D0FB7C282B06D1FB68BD
:102B9C00212B03D1786801F07DF816E07B681B6867
:102BAC006FF480625A617B6A43F004037B62FB7EA4
:102BBC00102B02D0FB7E402B07D17B681B681A6858
:102BCC007B681B6842F400721A603B6ADB0A03F0F4
:102BDC000103002B0ED0FB691B0A03F00103002B31
:102BEC0008D07B6A43F008037B627B681B686FF438
:102BFC0000625A617B6A002B08D07B681A6C7B6A76
:102C0C001A437B681A64786801F0B8F800BF28375B
:102C1C00BD4680BD80B483B000AF786000BF0C3778
:102C2C00BD4680BC704780B483B000AF786000BFF5
:102C3C000C37BD4680BC704780B483B000AF786061
:102C4C0000BF0C37BD4680BC704780B483B000AF6A
:102C5C00786000BF0C37BD4680BC704780B483B031
:102C6C0000AF78600B46FB7013463B8000BF0C37FF
:102C7C00BD4680BC704780B483B000AF786000BFA5
:102C8C000C37BD4680BC704780B483B000AF786011
:102C9C0000BF0C37BD4680BC704780B483B000AF1A
:102CAC00786000BF0C37BD4680BC704780B483B0E1
:102CBC0000AF786000BF0C37BD4680BC704780B455
:102CCC0083B000AF786000BF0C37BD4680BC704746
:102CDC0080B584B000AF78607B6893F83D30FB73AF
:102CEC007B6893F83E30BB737B68DB6ABB607B68A8
:102CFC001B8D002B50D1FB7B212B4DD1BB68082B9E
:102D0C001DD0BB68202B1AD0BB6813F5803F16D0A2
:102D1C007B681B685A687B681B6822F4E0625A6007
:102D2C007B6811221A637B68002283F83E207B6843
:102D3C00202283F83D207868FFF76CFF60E07B6809
:102D4C001B685A687B681B6822F4E0625A607B68D7
:102D5C001B681A687B681B6842F400721A607B68F7
:102D6C0000221A637B68202283F83D207B6893F84D
:102D7C003E30DBB2402B07D17B68002283F83E202B
:102D8C007868FFF781FF3BE07B68002283F83E20E8
:102D9C007868FFF73FFF33E0FB7B212B05D0BB7B33
:102DAC00402B2DD1FB7B222B2AD17B685B8D9BB2D8
:102DBC00002B08D17B681B685A687B681B6822F45F
:102DCC0080625A601CE07B6893F83E30DBB2402B8B
:102DDC0003D1786800F08EF812E07B685B6A1A7891
:102DEC007B681B681A617B685B6A5A1C7B685A6239
:102DFC007B685B8D9BB2013B9AB27B685A85FFE77F
:102E0C0000BF1037BD4680BD80B584B000AF786080
:102E1C007B68DB6AFB607B6893F83D30DBB2212B6F
:102E2C0064D17B685B8D9BB2002B12D07B685B6A94
:102E3C001A787B681B681A617B685B6A5A1C7B6812
:102E4C005A627B685B8D9BB2013B9AB27B685A8558
:102E5C004CE0FB68082B1DD0FB68202B1AD0FB68BC
:102E6C0013F5803F16D07B681B685A687B681B681B
:102E7C0022F4E0625A607B6811221A637B6800229C
:102E8C0083F83E207B68202283F83D207868FFF78A
:102E9C00C1FE2BE07B681B685A687B681B6822F4B8
:102EAC00E0625A607B681B681A687B681B6842F496
:102EBC0000721A607B6800221A637B68202283F8F8
:102ECC003D207B6893F83E30DBB2402B07D17B680A
:102EDC00002283F83E207868FFF7D6FE06E07B6878
:102EEC00002283F83E207868FFF794FE00BF10376D
:102EFC00BD4680BD80B584B000AF78607B6893F828
:102F0C003D30FB737B681B6D002B1DD17B68DB6C2C
:102F1C00012B0BD17B689B6CDAB27B681B681A6146
:102F2C007B681B6D9A1C7B681A6577E07B689B6CD1
:102F3C009BB21B12DAB27B681B681A617B681B6D33
:102F4C005A1C7B681A6569E07B681B6D012B0BD1E1
:102F5C007B689B6CDAB27B681B681A617B681B6DA3
:102F6C005A1C7B681A6559E07B681B6D022B52D189
:102F7C00FB7B222B0DD17B681B681A687B681B6856
:102F8C0042F480721A607B681B6D5A1C7B681A6550
:102F9C0044E07B685B8D9BB2002B15D0FB7B212B17
:102FAC0012D17B685B6A1A787B681B681A617B6834
:102FBC005B6A5A1C7B685A627B685B8D9BB2013BD7
:102FCC009AB27B685A8529E07B685B8D9BB2002B9B
:102FDC0024D1FB7B212B21D17B681B685A687B6831
:102FEC001B6822F4E0625A607B681B681A687B6875
:102FFC001B6842F400721A607B6800221A637B68BB
:10300C00202283F83D207B68002283F83E207868DC
:10301C00FFF73AFE02E07868FFF7CAFA00BF1037F4
:10302C00BD4680BD80B584B000AF78607B6893F8F6
:10303C003D30DBB2222B40F0B9807B68DB6AFB6051
:10304C007B685B8D9BB2BB60BB68032B21D97B6813
:10305C001B681A697B685B6AD2B21A707B685B6A00
:10306C005A1C7B685A627B685B8D9BB2013B9AB29F
:10307C007B685A857B685B8D9BB2032B40F09680F6
:10308C007B681B685A687B681B6822F480625A60F4
:10309C008CE07B68DB6A022B7FD0BB68012B02D0F3
:1030AC00BB68002B79D1786801F06EFA0346002BCF
:1030BC004CD17B681B681A687B681B6822F48062A1
:1030CC001A607B681B685A687B681B6822F4E06294
:1030DC005A607B681B681A697B685B6AD2B21A708B
:1030EC007B685B6A5A1C7B685A627B685B8D9BB2FF
:1030FC00013B9AB27B685A857B68202283F83D207D
:10310C007B6893F83E30DBB2402B0AD17B680022FF
:10311C0083F83E207B6800221A637868FFF7BDFDB8
:10312C0044E07B68002283F83E20FB68082B02D029
:10313C00FB68202B03D17B6800221A6302E07B68BA
:10314C0012221A637868FFF76EFD2FE07B681B680C
:10315C005A687B681B6822F4E0625A607B681B68C3
:10316C001A697B685B6AD2B21A707B685B6A5A1CFC
:10317C007B685A627B685B8D9BB2013B9AB27B6821
:10318C005A857B68202283F83D207B68002283F8D7
:10319C003E207868FFF78AFD08E07B681B685A6858
:1031AC007B681B6822F480625A60FFE700BF10370F
:1031BC00BD4680BD80B584B000AF78607B68DB6AAB
:1031CC00FB607B685B8D9BB2042B1BD17B681B68FF
:1031DC005A687B681B6822F480625A607B681B68A3
:1031EC001A697B685B6AD2B21A707B685B6A5A1C7C
:1031FC007B685A627B685B8D9BB2013B9AB27B68A1
:10320C005A85C4E07B685B8D9BB2032B29D17B680C
:10321C001B685A687B681B6822F480625A60FB68E2
:10322C00042B0AD0FB68022B07D07B681B681A683A
:10323C007B681B6822F480621A607B681B681A69C1
:10324C007B685B6AD2B21A707B685B6A5A1C7B68BB
:10325C005A627B685B8D9BB2013B9AB27B685A8544
:10326C0095E07B685B8D9BB2022B7DD1FB68012BBB
:10327C0002D0FB68102B08D17B681B681A687B682E
:10328C001B6822F480621A6016E0FB68042B02D0E3
:10329C00FB68022B08D17B681B681A687B681B686B
:1032AC0042F480621A6007E07B681B681A687B68CE
:1032BC001B6842F400721A607B681B681A697B6891
:1032CC005B6AD2B21A707B685B6A5A1C7B685A6262
:1032DC007B685B8D9BB2013B9AB27B685A857B689D
:1032EC001B681A697B685B6AD2B21A707B685B6A6E
:1032FC005A1C7B685A627B685B8D9BB2013B9AB20D
:10330C007B685A857B681B685A687B681B6822F44B
:10331C0040725A607B68202283F83D207B6893F8CA
:10332C003E30DBB2402B0AD17B68002283F83E2072
:10333C007B6800221A637868FFF7AFFC27E07B6894
:10334C00002283F83E20FB68082B02D0FB68202B60
:10335C0003D17B6800221A6302E07B6812221A6395
:10336C007868FFF760FC12E07B681B681A697B6861
:10337C005B6AD2B21A707B685B6A5A1C7B685A62B1
:10338C007B685B8D9BB2013B9AB27B685A8500BF10
:10339C001037BD4680BD80B483B000AF78607B68C9
:1033AC0093F83E30DBB2402B17D17B681B6D002BA2
:1033BC0009D17B685B6CDBB21A467B681B6802F038
:1033CC00FE021A6167E07B685B6CDBB243F00103C1
:1033DC00DAB27B681B681A615DE07B681B69B3F528
:1033EC00804F33D17B6893F83D30DBB2212B09D170
:1033FC007B685B6CDBB21A467B681B6802F0FE02D2
:10340C001A6108E07B685B6CDBB243F00103DAB253
:10341C007B681B681A617B685B6B002B04D07B6834
:10342C005B6B9B6A002B08D17B689B6B002B32D0AB
:10343C007B689B6B9B6A002B2DD07B681B685A6842
:10344C007B681B6842F400625A6024E07B681B6D49
:10345C00002B0ED17B685B6C9BB2DB11DBB203F0F3
:10346C000603DBB263F00F03DAB27B681B681A61E8
:10347C0011E07B681B6D012B0DD17B685B6C9BB2E3
:10348C00DB11DBB203F00603DBB263F00E03DAB23E
:10349C007B681B681A6100BF0C37BD4680BC704747
:1034AC0080B483B000AF78607B685B6CDAB27B6809
:1034BC001B681A617B685B6B002B04D07B685B6BB1
:1034CC009B6A002B08D17B689B6B002B0CD07B6814
:1034DC009B6B9B6A002B07D07B681B685A687B68C8
:1034EC001B6842F400625A6000BF0C37BD4680BCBA
:1034FC00704780B491B000AF78607B6893F83E3031
:10350C0087F83F307B68DB6ABB637B681B6B7B6334
:10351C007B6893F83D30DBB2222B40F074817B68E2
:10352C001B6D002B0FD197F83F30402B0BD1002394
:10353C003B637B681B685B693B637B681B689B69AF
:10354C003B633B6B6BE17B681B6D002B1DD17B6878
:10355C001B69B3F5404F18D10023FB627B681B68D5
:10356C005B69FB627B681B689B69FB62FB6A7B681F
:10357C001B681A687B681B6842F480721A607B684F
:10358C001B6D5A1C7B681A6549E17B685B8D9BB28D
:10359C00002B13D10023BB627B681B685B69BB6289
:1035AC007B681B689B69BB62BB6A7B681B681A687B
:1035BC007B681B6842F400721A6020E17B685B8DAB
:1035CC009BB2012B40F08A80BB6B13F5803F37D147
:1035DC007B681B681A687B681B6822F480621A601F
:1035EC007B681B685B6803F40063B3F5006F13D151
:1035FC007B681B681A687B681B6822F480621A60FF
:10360C0000237B627B681B685B697B627B681B6841
:10361C009B697B627B6AF2E000233B627B681B68E0
:10362C005B693B627B681B689B693B623B6A7B689E
:10363C001B681A687B681B6842F400721A60DEE033
:10364C00BB6B082B2ED0BB6B202B2BD07B6B122B88
:10365C0002D1BB6B012B25D1BB6B042B0ED0BB6BEA
:10366C00022B0BD0BB6B102B08D07B681B681A6825
:10367C007B681B6822F480621A6007E07B681B6819
:10368C001A687B681B6842F480621A600023FB6135
:10369C007B681B685B69FB617B681B689B69FB61D2
:1036AC00FB69ACE07B681B681A687B681B6822F4BA
:1036BC0080621A600023BB617B681B685B69BB611D
:1036CC007B681B689B69BB61BB697B681B681A685C
:1036DC007B681B6842F400721A6090E07B685B8D1B
:1036EC009BB2022B58D1BB6B042B21D0BB6B022B92
:1036FC001ED0BB6B102B1BD07B681B681A687B68B9
:10370C001B6842F400621A6000237B617B681B68B3
:10371C005B697B617B681B689B697B617B697B68F0
:10372C001B681A687B681B6822F480621A6012E0BE
:10373C007B681B681A687B681B6842F480621A609D
:10374C0000233B617B681B685B693B617B681B6882
:10375C009B693B613B697B681B685B6803F4006396
:10376C00B3F5006F4BD1BB6B13F5803F0BD0BB6B2C
:10377C00012B08D0BB6B082B05D0BB6B102B02D0D8
:10378C00BB6B202B3BD17B681B685A687B681B6822
:10379C0042F480525A6032E07B681B681A687B687E
:1037AC001B6842F480621A607B681B685B6803F4D8
:1037BC000063B3F5006F17D1BB6B13F5803F0BD0D3
:1037CC00BB6B012B08D0BB6B082B05D0BB6B102B34
:1037DC0002D0BB6B202B07D17B681B685A687B68B7
:1037EC001B6842F480525A600023FB607B681B68A4
:1037FC005B69FB607B681B689B69FB60FB687B6893
:10380C0000221A650BE00023BB607B681B685B69B8
:10381C00BB607B681B689B69BB60BB68FFE700BF34
:10382C004437BD4680BC704780B584B000AF78602B
:10383C007B6893F83D30FB737B685B8D9BB2002BF0
:10384C002BD07B685B6A1A787B681B681A617B6873
:10385C005B6A5A1C7B685A627B685B8D9BB2013B2E
:10386C009AB27B685A857B685B8D9BB2002B14D116
:10387C00FB7B292B11D17B681B685A687B681B6802
:10388C0022F480625A607B6821221A637B682822AA
:10389C0083F83D207868FFF7CFF900BF1037BD469D
:1038AC0080BD80B483B000AF78607B685B8D9BB2C9
:1038BC00002B11D07B685B6A1A787B681B681A61D5
:1038CC007B685B6A5A1C7B685A627B685B8D9BB217
:1038DC00013B9AB27B685A8500BF0C37BD4680BC51
:1038EC00704780B584B000AF78607B6893F83D304A
:1038FC00FB737B685B8D9BB2002B2CD07B681B68A9
:10390C001A697B685B6AD2B21A707B685B6A5A1C54
:10391C007B685A627B685B8D9BB2013B9AB27B6879
:10392C005A857B685B8D9BB2002B14D1FB7B2A2BB9
:10393C0011D17B681B685A687B681B6822F4806213
:10394C005A607B6822221A637B68282283F83D2008
:10395C007868FFF77AF900BF1037BD4680BD80B498
:10396C0083B000AF78607B685B8D9BB2002B12D06C
:10397C007B681B681A697B685B6AD2B21A707B68B9
:10398C005B6A5A1C7B685A627B685B8D9BB2013BFD
:10399C009AB27B685A8500BF0C37BD4680BC704715
:1039AC0080B584B000AF786039600023FB737B680E
:1039BC0093F83D30DBB203F02803282B27D17B682A
:1039CC001B685A687B681B6822F480625A603B68EB
:1039DC009B0803F00103002B01D10123FB733B680F
:1039EC00DB0903F00103002B03D17B68DB68BB818F
:1039FC0002E07B689B69BB817B68002283F83C20DA
:103A0C00BA89FB7B19467868FFF728F90EE000238A
:103A1C00BB607B681B685B69BB607B681B689B69D0
:103A2C00BB60BB687B68002283F83C2000BF10376A
:103A3C00BD4680BD80B584B000AF78607B6893F8DC
:103A4C003D30FB737B681B685A687B681B6822F4EB
:103A5C00E0625A600023BB607B681B685B69BB60DB
:103A6C007B681B681A687B681B6842F001021A604D
:103A7C00BB687B681B681A687B681B6822F48062D1
:103A8C001A607B681B685B6803F40063B3F5006F16
:103A9C0072D1FB7B222B02D0FB7B2A2B35D17B688E
:103AAC009B6B1B685B689AB27B685A857B685B8DE5
:103ABC009BB2002B05D07B681B6C43F004027B6827
:103ACC001A647B681B685A687B681B6822F4006266
:103ADC005A607B689B6B1846FEF72AFA0346012B4B
:103AEC0049D07B689B6B694A5A637B689B6B184611
:103AFC00FEF7A0F80346002B3DD07B689B6B5B6BFD
:103B0C007A68926B1046984735E07B685B6B1B6854
:103B1C005B689AB27B685A857B685B8D9BB2002B85
:103B2C0005D07B681B6C43F004027B681A647B68CD
:103B3C001B685A687B681B6822F400625A607B68B9
:103B4C005B6B1846FEF7F4F90346012B14D07B6827
:103B5C005B6B4E4A5A637B685B6B1846FEF76AF8E0
:103B6C000346002B08D07B685B6B5B6B7A68526BEF
:103B7C001046984700E000BF7B685B8D9BB2002B22
:103B8C003ED07B681B685B6903F00403042B12D1E5
:103B9C007B681B681A697B685B6AD2B21A707B6897
:103BAC005B6A5A1C7B685A627B685B8D9BB2013BDB
:103BBC009AB27B685A857B681B685B6903F040038B
:103BCC00402B12D17B681B681A697B685B6AD2B286
:103BDC001A707B685B6A5A1C7B685A627B685B8DC7
:103BEC009BB2013B9AB27B685A857B685B8D9BB21A
:103BFC00002B05D07B681B6C43F004027B681A64B5
:103C0C007B681B6C002B03D0786800F0B7F839E0A8
:103C1C00FB7B2A2B09D17B6800221A637B68282244
:103C2C0083F83D207868FFF710F87B6893F83D30F7
:103C3C00DBB2282B11D17B68154ADA627B68002233
:103C4C001A637B68202283F83D207B68002283F86E
:103C5C003E207868FFF70FF814E07B681B6B222B73
:103C6C0002D0FB7B222B0DD17B6800221A637B6870
:103C7C00202283F83D207B68002283F83E20786860
:103C8C00FEF7E3FF00BF1037BD4680BDF1400008D2
:103C9C000000FFFF80B584B000AF78607B6893F8BC
:103CAC003D30FB737B68DB6ABB60BB68082B02D0C2
:103CBC00BB68202B29D1FB7B282B26D17B682E4A75
:103CCC00DA627B681B685A687B681B6822F4E062C6
:103CDC005A607B681B686FF480625A617B681B6852
:103CEC001A687B681B6822F480621A607B68002269
:103CFC001A637B68202283F83D207B68002283F8BE
:103D0C003E207868FEF7B7FF31E0FB7B212B29D1F1
:103D1C007B68194ADA627B6821221A637B6820224D
:103D2C0083F83D207B68002283F83E207B681B686B
:103D3C005A687B681B6822F4E0625A607B681B68D7
:103D4C006FF480625A617B681B681A687B681B6819
:103D5C0022F480621A607868FEF72AFC7868FEF715
:103D6C006BFF04E07B681B686FF480625A6100BFD4
:103D7C001037BD4680BD00BF0000FFFF80B584B08A
:103D8C0000AF78607B6893F83D30FB737B6893F8E9
:103D9C003E30BB73BB7B102B02D0BB7B402B0AD1BC
:103DAC00FB7B222B07D17B681B681A687B681B681E
:103DBC0022F400621A60FB7B03F02803282B07D146
:103DCC007B6800221A637B68282283F83D2015E06B
:103DDC007B681B685B6803F40063B3F5006F0AD063
:103DEC00FB7B602B07D07B68202283F83D207B680F
:103DFC00002283F83E207B6800221A637B681B68D4
:103E0C005B6803F40063B3F5006F62D17B681B68D9
:103E1C005A687B681B6822F400625A607B685B6B93
:103E2C0093F82130DBB2012B20D07B685B6B6A4AA4
:103E3C005A637B685B6B1846FDF7FCFE0346002B50
:103E4C0000F089807B681B681A687B681B6822F00D
:103E5C0001021A607B68202283F83D207B685B6B33
:103E6C005B6B7A68526B1046984774E07B689B6B6F
:103E7C00594A5A637B689B6B1846FDF7DBFE034679
:103E8C00002B68D07B681B685B6903F04003402BF8
:103E9C000BD17B681B681A697B685B6AD2B21A709B
:103EAC007B685B6A5A1C7B685A627B681B681A6861
:103EBC007B681B6822F001021A607B68202283F861
:103ECC003D207B689B6B5B6B7A68926B10469847C6
:103EDC0041E07B6893F83D30DBB2602B25D17B68E9
:103EEC00202283F83D207B6800221A647B681B68C3
:103EFC005B6903F04003402B0BD17B681B681A698C
:103F0C007B685B6AD2B21A707B685B6A5A1C7B68EE
:103F1C005A627B681B681A687B681B6822F0010276
:103F2C001A607868FEF7CBFE15E07B681B685B694E
:103F3C0003F04003402B0BD17B681B681A697B682C
:103F4C005B6AD2B21A707B685B6A5A1C7B685A62D5
:103F5C007868FEF7ABFE7B681B6CBB60BB6803F03C
:103F6C000103002B0ED1BB6803F00203002B09D117
:103F7C00BB6803F00403002B04D1BB6803F00803F7
:103F8C00002B07D07B681B685A687B681B6822F47F
:103F9C00E0625A607B6893F83D30FB737B681B6C66
:103FAC0003F00403042B13D1FB7B282B10D17B686B
:103FBC000A4ADA627B6800221A637B68202283F843
:103FCC003D207B68002283F83E207868FEF753FE84
:103FDC0000BF1037BD4680BDF14000080000FFFF58
:103FEC0080B588B002AFF8607A603B600B467B818D
:103FFC00FB68DB6A7B617B69082B06D07B69012B34
:10400C0003D07B6913F5803F08D1FB681B681A68E5
:10401C00FB681B6842F480721A600BE0FB681B6B38
:10402C00122B07D1FB681B681A68FB681B6842F4EB
:10403C0080721A603B6800937B6800224FF001117C
:10404C00F86800F0F7F80346002B0DD0FB681B68EE
:10405C001B6803F48073B3F5807F03D1FB684FF4C6
:10406C0000721A64032335E0FB681B69B3F5804FBB
:10407C0008D17B89DBB21A46FB681B6802F0FE0292
:10408C001A611BE07B89DB11DBB203F00603DBB2A8
:10409C0063F00F03DAB2FB681B681A613B687A683D
:1040AC000E49F86800F040F90346002B01D00123BB
:1040BC0010E07B89DAB2FB681B681A613B687A688E
:1040CC000749F86800F030F90346002B01D00123B2
:1040DC0000E0002318461837BD4680BD08000100DB
:1040EC000200010080B586B000AF78600023FB6051
:1040FC007B685B6A7B617B6993F83D30FB744B4B4F
:10410C001B68DB084A4AA2FB03231A0A13469B00CE
:10411C001344DA00D31AFB60FB68002B06D17B69D1
:10412C001B6C43F020027B691A640AE0FB68013BBC
:10413C00FB607B691B681B6803F40073B3F5007F9D
:10414C00EAD07B695B6B002B03D07B695B6B002235
:10415C009A627B699B6B002B03D07B699B6B002263
:10416C009A627B691B681A687B691B6822F48062FF
:10417C001A607B6900225A857B695B6B002B03D02C
:10418C007B695B6B00225A637B699B6B002B03D0B2
:10419C007B699B6B00225A637B691B681A687B697D
:1041AC001B6822F001021A607B6993F83D30DBB288
:1041BC00602B0ED17B69202283F83D207B69002285
:1041CC0083F83E207B6900221A647869FEF777FD3C
:1041DC0027E0FB7C03F02803282B17D17B691B6895
:1041EC001A687B691B6842F001021A607B691B68C4
:1041FC001A687B691B6842F480621A607B69002232
:10420C001A637B69282283F83D2007E07B69202212
:10421C0083F83D207B69002283F83E207869FEF705
:10422C0045FD00BF1837BD4680BD00BF54000020BF
:10423C0089B5F81480B584B000AFF860B9603B6004
:10424C001346FB7148E03B68B3F1FF3F44D0FDF7E8
:10425C005BFB0246BB69D31A3A689A4202D33B68AD
:10426C00002B39D1BB681B0CDBB2012B0DD1FB68C9
:10427C001B685B69DA43BB6813409BB2002B0CBF15
:10428C0001230023DBB21A460CE0FB681B689B6918
:10429C00DA43BB6813409BB2002B0CBF01230023F5
:1042AC00DBB21A46FB799A4216D1FB6800221A63DC
:1042BC00FB68202283F83D20FB68002283F83E2017
:1042CC00FB681B6C43F02002FB681A64FB6800223D
:1042DC0083F83C20012323E0BB681B0CDBB2012BD1
:1042EC000DD1FB681B685B69DA43BB6813409BB25A
:1042FC00002B0CBF01230023DBB21A460CE0FB6839
:10430C001B689B69DA43BB6813409BB2002B0CBF44
:10431C0001230023DBB21A46FB799A4293D0002387
:10432C0018461037BD4680BD80B584B000AFF8602C
:10433C00B9607A603B6071E0FB681B685B6903F4F1
:10434C008063B3F5806F23D1FB681B681A68FB6828
:10435C001B6842F400721A60FB681B686FF4806281
:10436C005A61FB6800221A63FB68202283F83D2007
:10437C00FB68002283F83E20FB681B6C43F00402B0
:10438C00FB681A64FB68002283F83C20012367E079
:10439C007B68B3F1FF3F41D0FDF7B6FA02463B68AC
:1043AC00D31A7A689A4202D37B68002B36D1BB6849
:1043BC001B0CDBB2012B0CD1FB681B685B69DA436D
:1043CC00BB6813409BB2002B14BF01230023DBB24C
:1043DC000BE0FB681B689B69DA43BB6813409BB21C
:1043EC00002B14BF01230023DBB2002B16D0FB687B
:1043FC0000221A63FB68202283F83D20FB68002210
:10440C0083F83E20FB681B6C43F02002FB681A64A7
:10441C00FB68002283F83C20012321E0BB681B0CC5
:10442C00DBB2012B0CD1FB681B685B69DA43BB6800
:10443C0013409BB2002B14BF01230023DBB20BE013
:10444C00FB681B689B69DA43BB6813409BB2002B6B
:10445C0014BF01230023DBB2002B7FF46DAF0023CC
:10446C0018461037BD4680BD80B584B000AFF860EB
:10447C00B9607A6034E0F86800F0B8F80346002BB5
:10448C0001D0012334E0BB68B3F1FF3F28D0FDF726
:10449C003BFA02467B68D31ABA689A4202D3BB68CD
:1044AC00002B1DD1FB681B685B6903F08003802B1C
:1044BC0016D0FB6800221A63FB68202283F83D208B
:1044CC00FB68002283F83E20FB681B6C43F0200243
:1044DC00FB681A64FB68002283F83C20012307E088
:1044EC00FB681B685B6903F08003802BC3D100233E
:1044FC0018461037BD4680BD80B584B000AFF8605B
:10450C00B9607A6034E0F86800F070F80346002B6C
:10451C0001D0012334E0BB68B3F1FF3F28D0FDF795
:10452C00F3F902467B68D31ABA689A4202D3BB6885
:10453C00002B1DD1FB681B685B6903F00403042B83
:10454C0016D0FB6800221A63FB68202283F83D20FA
:10455C00FB68002283F83E20FB681B6C43F02002B2
:10456C00FB681A64FB68002283F83C20012307E0F7
:10457C00FB681B685B6903F00403042BC3D10023A5
:10458C0018461037BD4680BD80B485B000AF78604A
:10459C000023FB60134B1B68DB08134AA2FB0323AD
:1045AC001A0A13469B001344FB60FB68013BFB603B
:1045BC00FB68002B07D17B681B6C43F020027B68E7
:1045CC001A64012308E07B681B681B6803F4007302
:1045DC00B3F5007FE9D0002318461437BD4680BCE4
:1045EC00704700BF5400002089B5F81480B483B024
:1045FC0000AF78607B681B685B6903F48063B3F57C
:10460C00806F1BD17B681B686FF480625A617B687A
:10461C0000221A637B68202283F83D207B680022ED
:10462C0083F83E207B681B6C43F004027B681A64A1
:10463C007B68002283F83C20012300E0002318460D
:10464C000C37BD4680BC704780B483B000AF786037
:10465C007B68DB6AB3F52A0F03D17B680122DA622F
:10466C0007E07B68DB6AB3F12A4F02D17B68082232
:10467C00DA6200BF0C37BD4680BC704780B586B08F
:10468C0000AF78607B68002B01D101236CE27B6862
:10469C001B6803F00103002B00F08780924B5B68D2
:1046AC0003F00C03042B0CD08F4B5B6803F00C0352
:1046BC00082B12D18C4B5B6803F48033B3F5803F2D
:1046CC000BD1894B1B6803F40033002B6CD07B6837
:1046DC005B68002B68D1012346E27B685B68B3F50D
:1046EC00803F06D1804B1B687F4A43F480331360B4
:1046FC002EE07B685B68002B0CD17B4B1B687A4AE5
:10470C0023F480331360784B1B68774A23F480239F
:10471C0013601DE07B685B68B3F5A02F0CD1724B66
:10472C001B68714A43F4802313606F4B1B686E4AFD
:10473C0043F4803313600BE06B4B1B686A4A23F421
:10474C0080331360684B1B68674A23F48023136023
:10475C007B685B68002B13D0FDF7D6F8386108E056
:10476C00FDF7D2F802463B69D31A642B01D9032317
:10477C00FAE15D4B1B6803F40033002BF0D014E01E
:10478C00FDF7C2F8386108E0FDF7BEF802463B6958
:10479C00D31A642B01D90323E6E1534B1B6803F4B2
:1047AC000033002BF0D100E000BF7B681B6803F0E6
:1047BC000203002B63D04C4B5B6803F00C03002B03
:1047CC000BD0494B5B6803F00C03082B1CD1464BF8
:1047DC005B6803F48033002B16D1434B1B6803F04A
:1047EC000203002B05D07B681B69012B01D0012330
:1047FC00BAE13D4B1B6823F0F8027B685B69DB0078
:10480C00394913430B603AE07B681B69002B20D0BD
:10481C00364B01221A60FDF777F8386108E0FDF796
:10482C0073F802463B69D31A022B01D903239BE18F
:10483C002D4B1B6803F00203002BF0D02A4B1B6896
:10484C0023F0F8027B685B69DB00274913430B609C
:10485C0015E0264B00221A60FDF756F8386108E087
:10486C00FDF752F802463B69D31A022B01D90323F8
:10487C007AE11D4B1B6803F00203002BF0D17B681F
:10488C001B6803F00803002B3AD07B689B69002B54
:10489C0019D0174B01221A60FDF736F8386108E081
:1048AC00FDF732F802463B69D31A022B01D90323D8
:1048BC005AE10D4B5B6A03F00203002BF0D0012090
:1048CC0000F0CCFA1CE00A4B00221A60FDF71CF831
:1048DC0038610FE0FDF718F802463B69D31A022B3A
:1048EC0008D9032340E100BF0010024000004242FF
:1048FC00800442429E4B5B6A03F00203002BE9D119
:10490C007B681B6803F00403002B00F0A6800023D7
:10491C00FB75974BDB6903F08053002B0DD1944B47
:10492C00DB69934A43F08053D361914BDB6903F00D
:10493C008053BB60BB680123FB758E4B1B6803F473
:10494C008073002B18D18B4B1B688A4A43F48073FD
:10495C001360FCF7D9FF386108E0FCF7D5FF02467D
:10496C003B69D31A642B01D90323FDE0814B1B68EF
:10497C0003F48073002BF0D07B68DB68012B06D12D
:10498C007B4B1B6A7A4A43F0010313622DE07B6870
:10499C00DB68002B0CD1764B1B6A754A23F00103A4
:1049AC001362734B1B6A724A23F0040313621CE0FC
:1049BC007B68DB68052B0CD16D4B1B6A6C4A43F092
:1049CC00040313626A4B1B6A694A43F001031362C6
:1049DC000BE0674B1B6A664A23F001031362644BBE
:1049EC001B6A634A23F0040313627B68DB68002BA9
:1049FC0015D0FCF789FF38610AE0FCF785FF024609
:104A0C003B69D31A41F28832934201D90323ABE0BC
:104A1C00574B1B6A03F00203002BEED014E0FCF79B
:104A2C0073FF38610AE0FCF76FFF02463B69D31A4B
:104A3C0041F28832934201D9032395E04C4B1B6A17
:104A4C0003F00203002BEED1FB7D012B05D1484B6B
:104A5C00DB69474A23F08053D3617B68DB69002B09
:104A6C0000F08180424B5B6803F00C03082B61D093
:104A7C007B68DB69022B46D13F4B00221A60FCF7A6
:104A8C0043FF386108E0FCF73FFF02463B69D31A4D
:104A9C00022B01D9032367E0354B1B6803F000732D
:104AAC00002BF0D17B681B6AB3F5803F08D1304BEB
:104ABC005B6823F400327B689B682D4913434B6081
:104ACC002B4B5B6823F474127B68196A7B685B6AF6
:104ADC000B43274913434B60274B01221A60FCF709
:104AEC0013FF386108E0FCF70FFF02463B69D31A4D
:104AFC00022B01D9032337E01D4B1B6803F0007315
:104B0C00002BF0D02FE01C4B00221A60FCF7FCFEAF
:104B1C00386108E0FCF7F8FE02463B69D31A022B19
:104B2C0001D9032320E0124B1B6803F00073002B08
:104B3C00F0D118E07B68DB69012B01D1012313E074
:104B4C000B4B5B68FB60FB6803F480327B681B6A71
:104B5C009A4206D1FB6803F470127B685B6A9A4236
:104B6C0001D0012300E0002318461837BD4680BD54
:104B7C0000100240007000406000424280B584B0DA
:104B8C0000AF786039607B68002B01D10123D0E045
:104B9C006A4B1B6803F007033A689A4210D9674BBB
:104BAC001B6823F0070265493B6813430B60634B9A
:104BBC001B6803F007033A689A4201D00123B8E05E
:104BCC007B681B6803F00203002B20D07B681B68FA
:104BDC0003F00403002B05D0594B5B68584A43F48F
:104BEC00E06353607B681B6803F00803002B05D05F
:104BFC00534B5B68524A43F460535360504B5B68B1
:104C0C0023F0F0027B689B684D4913434B607B6833
:104C1C001B6803F00103002B40D07B685B68012B01
:104C2C0007D1474B1B6803F40033002B15D101232C
:104C3C007FE07B685B68022B07D1414B1B6803F05C
:104C4C000073002B09D1012373E03D4B1B6803F06B
:104C5C000203002B01D101236BE0394B5B6823F07D
:104C6C0003027B685B68364913434B60FCF74CFED0
:104C7C00F8600AE0FCF748FE0246FB68D31A41F2E2
:104C8C008832934201D9032353E02D4B5B6803F028
:104C9C000C027B685B689B009A42EBD1274B1B682C
:104CAC0003F007033A689A4210D2244B1B6823F096
:104CBC00070222493B6813430B60204B1B6803F02F
:104CCC0007033A689A4201D0012332E07B681B68E3
:104CDC0003F00403002B08D0194B5B6823F4E0624B
:104CEC007B68DB68164913434B607B681B6803F0D9
:104CFC000803002B09D0124B5B6823F460527B68CD
:104D0C001B69DB000E4913434B6000F021F802468F
:104D1C000B4B5B681B0903F00F030A49CB5C22FAAF
:104D2C0003F3094A1360094B1B681846FCF7AAFDEC
:104D3C00002318461037BD4680BD00BF002002403E
:104D4C000010024058610008540000205800002058
:104D5C0080B487B000AF0023FB600023BB6000234E
:104D6C007B6100237B6000233B611E4B5B68FB6017
:104D7C00FB6803F00C03042B02D0082B03D027E0B4
:104D8C00194B3B6127E0FB689B0C03F00F03174AA0
:104D9C00D35C7B60FB6803F48033002B10D0114B89
:104DAC005B685B0C03F00103114AD35CBB607B684E
:104DBC000D4A02FB03F2BB68B2FBF3F37B6104E028
:104DCC007B680C4A02FB03F37B617B693B6102E06D
:104DDC00054B3B6100BF3B6918461C37BD4680BC88
:104DEC00704700BF0010024000127A00706100088A
:104DFC008061000800093D0080B400AF024B1B68C5
:104E0C001846BD4680BC70475400002080B500AFEA
:104E1C00FFF7F2FF0246054B5B681B0A03F0070322
:104E2C000349CB5C22FA03F3184680BD0010024004
:104E3C006861000880B500AFFFF7DEFF0246054B46
:104E4C005B68DB0A03F007030349CB5C22FA03F32C
:104E5C00184680BD001002406861000880B485B01F
:104E6C0000AF78600A4B1B680A4AA2FB03235B0A5B
:104E7C007A6802FB03F3FB6000BFFB685A1EFA6002
:104E8C00002BF9D100BF00BF1437BD4680BC704762
:104E9C0054000020D34D621080B582B000AF786012
:104EAC007B68002B01D1012341E07B6893F83D30F6
:104EBC00DBB2002B06D17B68002283F83C2078689B
:104ECC00FCF718FA7B68022283F83D207B681A688D
:104EDC007B6804331946104600F05CFA7B680122AB
:104EEC0083F846207B68012283F83E207B680122F0
:104EFC0083F83F207B68012283F840207B680122E5
:104F0C0083F841207B68012283F842207B680122D0
:104F1C0083F843207B68012283F844207B680122BC
:104F2C0083F845207B68012283F83D200023184636
:104F3C000837BD4680BD000080B485B000AF7860F6
:104F4C007B6893F83D30DBB2012B01D001233AE0B2
:104F5C007B68022283F83D207B681B68DA687B68DB
:104F6C001B6842F00102DA607B681B68184A9342A6
:104F7C000ED07B681B68B3F1804F09D07B681B682F
:104F8C00144A934204D07B681B68134A934211D194
:104F9C007B681B689B6803F00703FB60FB68062BB0
:104FAC0010D07B681B681A687B681B6842F0010292
:104FBC001A6007E07B681B681A687B681B6842F004
:104FCC0001021A60002318461437BD4680BC704796
:104FDC00002C0140000400400008004080B584B063
:104FEC0000AF78607B681B68DB68FB607B681B68C4
:104FFC001B69BB60BB6803F00203002B20D0FB686D
:10500C0003F00203002B1BD07B681B686FF00202BD
:10501C001A617B6801221A777B681B689B6903F015
:10502C000303002B03D0786800F098F905E078684A
:10503C0000F08BF9786800F09AF97B6800221A77F7
:10504C00BB6803F00403002B20D0FB6803F00403BF
:10505C00002B1BD07B681B686FF004021A617B6805
:10506C0002221A777B681B689B6903F44073002B40
:10507C0003D0786800F072F905E0786800F065F903
:10508C00786800F074F97B6800221A77BB6803F02B
:10509C000803002B20D0FB6803F00803002B1BD067
:1050AC007B681B686FF008021A617B6804221A7710
:1050BC007B681B68DB6903F00303002B03D0786863
:1050CC0000F04CF905E0786800F03FF9786800F0E2
:1050DC004EF97B6800221A77BB6803F01003002B93
:1050EC0020D0FB6803F01003002B1BD07B681B68DF
:1050FC006FF010021A617B6808221A777B681B68B4
:10510C00DB6903F44073002B03D0786800F026F9B8
:10511C0005E0786800F019F9786800F028F97B68E8
:10512C0000221A77BB6803F00103002B0CD0FB683C
:10513C0003F00103002B07D07B681B686FF00102A2
:10514C001A617868FBF768FEBB6803F08003002BDC
:10515C000CD0FB6803F08003002B07D07B681B6826
:10516C006FF080021A61786800F07FFABB6803F078
:10517C004003002B0CD0FB6803F04003002B07D03E
:10518C007B681B686FF040021A61786800F0F8F8D1
:10519C00BB6803F02003002B0CD0FB6803F020034A
:1051AC00002B07D07B681B686FF020021A617868AF
:1051BC0000F052FA00BF1037BD4680BD80B584B0F8
:1051CC0000AF786039600023FB737B6893F83C3048
:1051DC00012B01D10223B4E07B68012283F83C202F
:1051EC007B68022283F83D207B681B689B68BB6050
:1051FC00BB6823F07703BB60BB6823F47F43BB60C1
:10520C007B681B68BA689A603B681B68B3F5005FE3
:10521C003ED0B3F5005F00F28780B3F5805F00F0FD
:10522C008680B3F5805F7FD8702B1AD0702B7BD81B
:10523C00602B50D0602B77D8502B3CD0502B73D890
:10524C00402B58D0402B6FD8302B64D0302B6BD8E0
:10525C00202B60D0202B67D8002B5CD0102B5AD081
:10526C0062E07B6818683B6899683B685A683B68E1
:10527C00DB6800F074F97B681B689B68BB60BB68DB
:10528C0043F07703BB607B681B68BA689A604FE099
:10529C007B6818683B6899683B685A683B68DB68B0
:1052AC0000F05DF97B681B689A687B681B6842F4A8
:1052BC0080429A603CE07B6818683B6859683B68A0
:1052CC00DB681A4600F0D4F87B681B68502118463E
:1052DC0000F02BF92CE07B6818683B6859683B6838
:1052EC00DB681A4600F0F2F87B681B6860211846F0
:1052FC0000F01BF91CE07B6818683B6859683B6838
:10530C00DB681A4600F0B4F87B681B68402118462D
:10531C0000F00BF90CE07B681A683B681B681946B7
:10532C00104600F002F903E00123FB7300E000BF1C
:10533C007B68012283F83D207B68002283F83C20A7
:10534C00FB7B18461037BD4680BD80B483B000AFE0
:10535C00786000BF0C37BD4680BC704780B483B00A
:10536C0000AF786000BF0C37BD4680BC704780B47E
:10537C0083B000AF786000BF0C37BD4680BC70476F
:10538C0080B483B000AF786000BF0C37BD4680BCE2
:10539C007047000080B485B000AF786039607B68DE
:1053AC001B68FB607B682F4A93420BD07B68B3F180
:1053BC00804F07D07B682C4A934203D07B682B4AE2
:1053CC00934208D1FB6823F07003FB603B685B6879
:1053DC00FA681343FB607B68224A93420BD07B68CC
:1053EC00B3F1804F07D07B681F4A934203D07B6890
:1053FC001E4A934208D1FB6823F44073FB603B6860
:10540C00DB68FA681343FB60FB6823F080023B689F
:10541C005B691343FB607B68FA681A603B689A68A7
:10542C007B68DA623B681A687B689A627B680D4A13
:10543C00934203D13B681A697B681A637B6801222B
:10544C005A617B681B6903F00103002B05D07B6854
:10545C001B6923F001027B681A6100BF1437BD463B
:10546C0080BC7047002C0140000400400008004044
:10547C0080B487B000AFF860B9607A60FB681B6AD3
:10548C007B61FB681B6A23F00102FB681A62FB68F4
:10549C009B693B613B6923F0F0033B617B681B011B
:1054AC003A6913433B617B6923F00A037B617A6998
:1054BC00BB6813437B61FB683A699A61FB687A6944
:1054CC001A6200BF1C37BD4680BC704780B487B0E1
:1054DC0000AFF860B9607A60FB681B6A7B61FB689F
:1054EC001B6A23F01002FB681A62FB689B693B6124
:1054FC003B6923F470433B617B681B033A6913439C
:10550C003B617B6923F0A0037B61BB681B017A695B
:10551C0013437B61FB683A699A61FB687A691A628A
:10552C0000BF1C37BD4680BC704780B485B000AF4F
:10553C00786039607B689B68FB60FB6823F07003C4
:10554C00FB603A68FB68134343F00703FB607B681E
:10555C00FA689A6000BF1437BD4680BC704780B4AF
:10556C0087B000AFF860B9607A603B60FB689B68FD
:10557C007B617B6923F47F437B613B681A027B6808
:10558C001A43BB6813437A6913437B61FB687A69DE
:10559C009A6000BF1C37BD4680BC704780B485B094
:1055AC0000AF786039607B6893F83C30012B01D1F7
:1055BC00022346E07B68012283F83C207B680222B0
:1055CC0083F83D207B681B685B68FB607B681B680D
:1055DC009B68BB60FB6823F07003FB603B681B6837
:1055EC00FA681343FB607B681B68FA685A607B6837
:1055FC001B68164A93420ED07B681B68B3F1804F30
:10560C0009D07B681B68124A934204D07B681B68E4
:10561C00104A93420CD1BB6823F08003BB603B68FB
:10562C005B68BA681343BB607B681B68BA689A6096
:10563C007B68012283F83D207B68002283F83C20A4
:10564C00002318461437BD4680BC7047002C01401F
:10565C00000400400008004080B483B000AF7860C4
:10566C0000BF0C37BD4680BC704780B483B000AF20
:10567C00786000BF0C37BD4680BC704780B582B0E7
:10568C0000AF78607B68002B01D1012342E07B687E
:10569C0093F84130DBB2002B06D17B68002283F8F3
:1056AC0040207868FBF74AFE7B68242283F841206F
:1056BC007B681B68DA687B681B6822F40052DA602E
:1056CC00786800F02BF87B681B681A697B681B688C
:1056DC0022F490421A617B681B685A697B681B68CC
:1056EC0022F02A025A617B681B68DA687B681B68A7
:1056FC0042F40052DA607B6800225A647B682022F4
:10570C0083F841207B68202283F842207B680022AA
:10571C005A63002318460837BD4680BD80B584B057
:10572C0000AF78607B681B681B6923F440517B6871
:10573C00DA687B681B680A431A617B689A687B6825
:10574C001B691A437B685B691343BB607B681B68EE
:10575C00DB6823F4B05323F00C037A681268B96841
:10576C000B43D3607B681B685B6923F440717B68D7
:10577C009A697B681B680A435A617B681B682C4AD0
:10578C00934203D1FFF756FBF86002E0FFF73EFBB4
:10579C00F860FA6813469B0013449A001A447B681D
:1057AC005B689B00B2FBF3F3224AA2FB03235B0969
:1057BC001901FA6813469B0013449A001A447B683B
:1057CC005B689B00B2FBF3F21A4BA3FB02035B0971
:1057DC00642000FB03F3D31A1B013233154AA2FBDE
:1057EC0003235B0903F0F0031944FA6813469B008A
:1057FC0013449A001A447B685B689B00B2FBF3F27B
:10580C000C4BA3FB02035B09642000FB03F3D31ACC
:10581C001B013233074AA2FB03235B0903F00F027F
:10582C007B681B680A449A6000BF1037BD4680BD78
:10583C00003801401F85EB51014B1868704700BFC1
:10584C006000002070B500260C4D0D4C641BA4109C
:10585C00A64209D100F06CFC00260A4D0A4C641BD0
:10586C00A410A64205D170BD55F8043B98470136EB
:10587C00EEE755F8043B98470136F2E7B8610008AB
:10588C00B8610008B8610008BC610008024B014611
:10589C00186800F05FB800BF60000020024B0146A2
:1058AC00186800F00BB800BF6000002003460244EB
:1058BC00934200D1704703F8011BF9E738B5054650
:1058CC00002943D051F8043C0C1F002BB8BFE4183E
:1058DC0000F0CAF81E4A1368104633B963601460AE
:1058EC002846BDE8384000F0C5B8A3420AD9216863
:1058FC006218934201BF1A685B6852182260636099
:10590C000460EDE71A465B680BB1A342FAD9116843
:10591C005018A0420BD120680144501883421160EA
:10592C00DED118685B68014411605360D8E702D976
:10593C000C232B60D4E7206821188B4201BF196817
:10594C005B680918216063605460C9E738BD00BF0B
:10595C0000010020F8B5CD1C25F0030508350C2DF1
:10596C0038BF0C25002D064601DBA94203D90C23B8
:10597C0033600020F8BD00F077F821490A6814461E
:10598C009CB9204F3B6823B92146304600F03CF8C7
:10599C0038602946304600F037F8431C23D10C23DD
:1059AC003046336000F066F8E3E723685B1B17D4DE
:1059BC000B2B03D923601C44256004E06368A242CE
:1059CC000CBF0B605360304600F054F804F10B0030
:1059DC00231D20F00700C21ACCD01B1AA350C9E714
:1059EC0022466468CCE7C41C24F00304A042E3D034
:1059FC00211A304600F008F80130DDD1CFE700BFA6
:105A0C00000100200401002038B50023054D044698
:105A1C0008462B60FBF732FD431C02D12B6803B107
:105A2C00236038BDA40200200EB46FF0004100B515
:105A3C009CB01DAB0290069007910491084809494F
:105A4C0053F8042B0591006802A9019300F074F837
:105A5C000022029B1A701CB05DF804EB03B0704777
:105A6C00600000200802FFFF014800F0FBBA00BFF5
:105A7C00AC020020014800F0F6BA00BFAC020020D6
:105A8C002DE9F0478E6882469E420C4690461F4692
:105A9C0038D88A8912F4906F32D02568096901339D
:105AAC00A5EB010965694B4405EB450505EBD5757F
:105ABC006D109D4238BF1D46530531D52946FFF761
:105ACC0049FF064650B90C234FF0FF30CAF800309E
